{
  "contractName": "Payroll",
  "abi": [
    {
      "constant": false,
      "inputs": [],
      "name": "hasEnoughFund",
      "outputs": [
        {
          "name": "",
          "type": "bool"
        }
      ],
      "payable": false,
      "stateMutability": "nonpayable",
      "type": "function"
    },
    {
      "constant": false,
      "inputs": [],
      "name": "calculateRunway",
      "outputs": [
        {
          "name": "",
          "type": "uint256"
        }
      ],
      "payable": false,
      "stateMutability": "nonpayable",
      "type": "function"
    },
    {
      "constant": false,
      "inputs": [
        {
          "name": "employeeId",
          "type": "address"
        },
        {
          "name": "salary",
          "type": "uint256"
        }
      ],
      "name": "updateEmployee",
      "outputs": [],
      "payable": false,
      "stateMutability": "nonpayable",
      "type": "function"
    },
    {
      "constant": false,
      "inputs": [
        {
          "name": "newAddress",
          "type": "address"
        }
      ],
      "name": "changePaymentAddress",
      "outputs": [],
      "payable": false,
      "stateMutability": "nonpayable",
      "type": "function"
    },
    {
      "constant": false,
      "inputs": [
        {
          "name": "employeeId",
          "type": "address"
        }
      ],
      "name": "checkEmployee",
      "outputs": [
        {
          "name": "salary",
          "type": "uint256"
        },
        {
          "name": "lastPayday",
          "type": "uint256"
        }
      ],
      "payable": false,
      "stateMutability": "nonpayable",
      "type": "function"
    },
    {
      "constant": false,
      "inputs": [],
      "name": "checkInfo",
      "outputs": [
        {
          "name": "balance",
          "type": "uint256"
        },
        {
          "name": "runway",
          "type": "uint256"
        },
        {
          "name": "employeeCount",
          "type": "uint256"
        }
      ],
      "payable": false,
      "stateMutability": "nonpayable",
      "type": "function"
    },
    {
      "constant": false,
      "inputs": [],
      "name": "addFund",
      "outputs": [
        {
          "name": "",
          "type": "uint256"
        }
      ],
      "payable": true,
      "stateMutability": "payable",
      "type": "function"
    },
    {
      "constant": false,
      "inputs": [],
      "name": "getPaid",
      "outputs": [],
      "payable": false,
      "stateMutability": "nonpayable",
      "type": "function"
    },
    {
      "constant": true,
      "inputs": [
        {
          "name": "",
          "type": "address"
        }
      ],
      "name": "employees",
      "outputs": [
        {
          "name": "id",
          "type": "address"
        },
        {
          "name": "salary",
          "type": "uint256"
        },
        {
          "name": "lastPayday",
          "type": "uint256"
        }
      ],
      "payable": false,
      "stateMutability": "view",
      "type": "function"
    },
    {
      "constant": false,
      "inputs": [
        {
          "name": "employeeId",
          "type": "address"
        }
      ],
      "name": "removeEmployee",
      "outputs": [],
      "payable": false,
      "stateMutability": "nonpayable",
      "type": "function"
    },
    {
      "constant": false,
      "inputs": [
        {
          "name": "employeeId",
          "type": "address"
        }
      ],
      "name": "findEmployee",
      "outputs": [
        {
          "components": [
            {
              "name": "id",
              "type": "address"
            },
            {
              "name": "salary",
              "type": "uint256"
            },
            {
              "name": "lastPayday",
              "type": "uint256"
            }
          ],
          "name": "",
          "type": "tuple"
        }
      ],
      "payable": false,
      "stateMutability": "nonpayable",
      "type": "function"
    },
    {
      "constant": false,
      "inputs": [
        {
          "name": "employeeId",
          "type": "address"
        },
        {
          "name": "salary",
          "type": "uint256"
        }
      ],
      "name": "addEmployee",
      "outputs": [],
      "payable": false,
      "stateMutability": "nonpayable",
      "type": "function"
    },
    {
      "inputs": [],
      "payable": false,
      "stateMutability": "nonpayable",
      "type": "constructor"
    }
  ],
  "bytecode": "0x6060604052341561000f57600080fd5b33600260006101000a81548173ffffffffffffffffffffffffffffffffffffffff021916908373ffffffffffffffffffffffffffffffffffffffff1602179055506111738061005f6000396000f3006060604052600436106100ba576000357c0100000000000000000000000000000000000000000000000000000000900463ffffffff16806323fed09e146100bf5780634ec19512146100ec5780635e91d8ec146101155780637124d613146101575780637cf562b71461019057806385a96258146101e4578063a2f09dfa1461021b578063cf41d6f814610239578063d06789471461024e578063d108177a146102d5578063e68bef201461030e578063e7fd9a131461035b575b600080fd5b34156100ca57600080fd5b6100d261039d565b604051808215151515815260200191505060405180910390f35b34156100f757600080fd5b6100ff6103c3565b6040518082815260200191505060405180910390f35b341561012057600080fd5b610155600480803573ffffffffffffffffffffffffffffffffffffffff169060200190919080359060200190919050506103fd565b005b341561016257600080fd5b61018e600480803573ffffffffffffffffffffffffffffffffffffffff169060200190919050506105eb565b005b341561019b57600080fd5b6101c7600480803573ffffffffffffffffffffffffffffffffffffffff1690602001909190505061089b565b604051808381526020018281526020019250505060405180910390f35b34156101ef57600080fd5b6101f76108f5565b60405180848152602001838152602001828152602001935050505060405180910390f35b610223610928565b6040518082815260200191505060405180910390f35b341561024457600080fd5b61024c610947565b005b341561025957600080fd5b610285600480803573ffffffffffffffffffffffffffffffffffffffff16906020019091905050610ae0565b604051808473ffffffffffffffffffffffffffffffffffffffff1673ffffffffffffffffffffffffffffffffffffffff168152602001838152602001828152602001935050505060405180910390f35b34156102e057600080fd5b61030c600480803573ffffffffffffffffffffffffffffffffffffffff16906020019091905050610b2a565b005b341561031957600080fd5b610345600480803573ffffffffffffffffffffffffffffffffffffffff16906020019091905050610d75565b6040518082815260200191505060405180910390f35b341561036657600080fd5b61039b600480803573ffffffffffffffffffffffffffffffffffffffff16906020019091908035906020019091905050610ec6565b005b60008060005414156103b257600190506103c0565b60006103bc6103c3565b1190505b90565b600080600054141515156103d357fe5b6000543073ffffffffffffffffffffffffffffffffffffffff16318115156103f757fe5b04905090565b6000600260009054906101000a900473ffffffffffffffffffffffffffffffffffffffff1673ffffffffffffffffffffffffffffffffffffffff163373ffffffffffffffffffffffffffffffffffffffff1614151561045b57600080fd5b826000600360008373ffffffffffffffffffffffffffffffffffffffff1673ffffffffffffffffffffffffffffffffffffffff168152602001908152602001600020905060008160000160009054906101000a900473ffffffffffffffffffffffffffffffffffffffff1673ffffffffffffffffffffffffffffffffffffffff16141515156104e657fe5b600360008673ffffffffffffffffffffffffffffffffffffffff1673ffffffffffffffffffffffffffffffffffffffff16815260200190815260200160002092506105a683606060405190810160405290816000820160009054906101000a900473ffffffffffffffffffffffffffffffffffffffff1673ffffffffffffffffffffffffffffffffffffffff1673ffffffffffffffffffffffffffffffffffffffff168152602001600182015481526020016002820154815250506110aa565b82600101546000808282540392505081905550670de0b6b3a7640000840260008082825401925050819055508383600101819055504283600201819055505050505050565b6000336000600360008373ffffffffffffffffffffffffffffffffffffffff1673ffffffffffffffffffffffffffffffffffffffff168152602001908152602001600020905060008160000160009054906101000a900473ffffffffffffffffffffffffffffffffffffffff1673ffffffffffffffffffffffffffffffffffffffff161415151561067857fe5b836000600360008373ffffffffffffffffffffffffffffffffffffffff1673ffffffffffffffffffffffffffffffffffffffff168152602001908152602001600020905060008160000160009054906101000a900473ffffffffffffffffffffffffffffffffffffffff1673ffffffffffffffffffffffffffffffffffffffff1614151561070257fe5b600360003373ffffffffffffffffffffffffffffffffffffffff1673ffffffffffffffffffffffffffffffffffffffff16815260200190815260200160002094506060604051908101604052808773ffffffffffffffffffffffffffffffffffffffff168152602001866001015481526020018660020154815250600360008873ffffffffffffffffffffffffffffffffffffffff1673ffffffffffffffffffffffffffffffffffffffff16815260200190815260200160002060008201518160000160006101000a81548173ffffffffffffffffffffffffffffffffffffffff021916908373ffffffffffffffffffffffffffffffffffffffff1602179055506020820151816001015560408201518160020155905050600360003373ffffffffffffffffffffffffffffffffffffffff1673ffffffffffffffffffffffffffffffffffffffff168152602001908152602001600020600080820160006101000a81549073ffffffffffffffffffffffffffffffffffffffff0219169055600182016000905560028201600090555050505050505050565b6000806000600360008573ffffffffffffffffffffffffffffffffffffffff1673ffffffffffffffffffffffffffffffffffffffff1681526020019081526020016000209050806001015492508060020154915050915091565b60008060003073ffffffffffffffffffffffffffffffffffffffff1631925061091c6103c3565b91506001549050909192565b60003073ffffffffffffffffffffffffffffffffffffffff1631905090565b600080336000600360008373ffffffffffffffffffffffffffffffffffffffff1673ffffffffffffffffffffffffffffffffffffffff168152602001908152602001600020905060008160000160009054906101000a900473ffffffffffffffffffffffffffffffffffffffff1673ffffffffffffffffffffffffffffffffffffffff16141515156109d557fe5b600360003373ffffffffffffffffffffffffffffffffffffffff1673ffffffffffffffffffffffffffffffffffffffff1681526020019081526020016000209350600a84600201540192504283101515610a2b57fe5b82600360003373ffffffffffffffffffffffffffffffffffffffff1673ffffffffffffffffffffffffffffffffffffffff168152602001908152602001600020600201819055508360000160009054906101000a900473ffffffffffffffffffffffffffffffffffffffff1673ffffffffffffffffffffffffffffffffffffffff166108fc85600101549081150290604051600060405180830381858888f193505050501515610ada57600080fd5b50505050565b60036020528060005260406000206000915090508060000160009054906101000a900473ffffffffffffffffffffffffffffffffffffffff16908060010154908060020154905083565b6000600260009054906101000a900473ffffffffffffffffffffffffffffffffffffffff1673ffffffffffffffffffffffffffffffffffffffff163373ffffffffffffffffffffffffffffffffffffffff16141515610b8857600080fd5b816000600360008373ffffffffffffffffffffffffffffffffffffffff1673ffffffffffffffffffffffffffffffffffffffff168152602001908152602001600020905060008160000160009054906101000a900473ffffffffffffffffffffffffffffffffffffffff1673ffffffffffffffffffffffffffffffffffffffff1614151515610c1357fe5b600360008573ffffffffffffffffffffffffffffffffffffffff1673ffffffffffffffffffffffffffffffffffffffff1681526020019081526020016000209250610cd383606060405190810160405290816000820160009054906101000a900473ffffffffffffffffffffffffffffffffffffffff1673ffffffffffffffffffffffffffffffffffffffff1673ffffffffffffffffffffffffffffffffffffffff168152602001600182015481526020016002820154815250506110aa565b8260010154600080828254039250508190555060018060008282540392505081905550600360008573ffffffffffffffffffffffffffffffffffffffff1673ffffffffffffffffffffffffffffffffffffffff168152602001908152602001600020600080820160006101000a81549073ffffffffffffffffffffffffffffffffffffffff021916905560018201600090556002820160009055505050505050565b610d7d61110f565b816000600360008373ffffffffffffffffffffffffffffffffffffffff1673ffffffffffffffffffffffffffffffffffffffff168152602001908152602001600020905060008160000160009054906101000a900473ffffffffffffffffffffffffffffffffffffffff1673ffffffffffffffffffffffffffffffffffffffff1614151515610e0857fe5b600360008573ffffffffffffffffffffffffffffffffffffffff1673ffffffffffffffffffffffffffffffffffffffff168152602001908152602001600020606060405190810160405290816000820160009054906101000a900473ffffffffffffffffffffffffffffffffffffffff1673ffffffffffffffffffffffffffffffffffffffff1673ffffffffffffffffffffffffffffffffffffffff1681526020016001820154815260200160028201548152505092505050919050565b600260009054906101000a900473ffffffffffffffffffffffffffffffffffffffff1673ffffffffffffffffffffffffffffffffffffffff163373ffffffffffffffffffffffffffffffffffffffff16141515610f2257600080fd5b816000600360008373ffffffffffffffffffffffffffffffffffffffff1673ffffffffffffffffffffffffffffffffffffffff168152602001908152602001600020905060008160000160009054906101000a900473ffffffffffffffffffffffffffffffffffffffff1673ffffffffffffffffffffffffffffffffffffffff16141515610fac57fe5b670de0b6b3a764000083026000808282540192505081905550600180600082825401925050819055506060604051908101604052808573ffffffffffffffffffffffffffffffffffffffff16815260200184815260200142815250600360008673ffffffffffffffffffffffffffffffffffffffff1673ffffffffffffffffffffffffffffffffffffffff16815260200190815260200160002060008201518160000160006101000a81548173ffffffffffffffffffffffffffffffffffffffff021916908373ffffffffffffffffffffffffffffffffffffffff160217905550602082015181600101556040820151816002015590505050505050565b6000600a826040015142038360200151028115156110c457fe5b049050816000015173ffffffffffffffffffffffffffffffffffffffff166108fc829081150290604051600060405180830381858888f19350505050151561110b57600080fd5b5050565b606060405190810160405280600073ffffffffffffffffffffffffffffffffffffffff168152602001600081526020016000815250905600a165627a7a723058201b8fd0646db967b28d1443e4bb2da0edb3563db922df17c1156a6186ac3188500029",
  "source": "pragma solidity ^0.4.14;\n\ncontract Payroll {\n    struct Employee {\n        address id;\n        uint salary;\n        uint lastPayday;\n    }\n\n    uint constant payDuration = 10 seconds;\n    uint totalSalary;\n    uint totalEmployee;\n\n    address owner;\n    mapping(address => Employee) public employees; //Mapping\n\n    function Payroll() public {\n        owner = msg.sender;\n    }\n\n    // custom modifier\n    modifier onlyOwner {\n        require(msg.sender == owner);\n        _;\n    }\n    \n    // modifier with parameter\n    modifier employeeExist(address employeeId) {\n        var employee = employees[employeeId];\n        assert(employee.id != 0x0);\n        _;\n    }\n    \n     // modifier with parameter\n    modifier employeeNotExist(address employeeId) {\n        var employee = employees[employeeId];\n        assert(employee.id == 0x0);\n        _;\n    }\n\n    function _partialPaid(Employee employee) private {\n        uint payment = employee.salary * (now - employee.lastPayday) / payDuration;\n        employee.id.transfer(payment);\n    }\n\n    function addEmployee(address employeeId, uint salary) onlyOwner employeeNotExist(employeeId) public {\n        totalSalary += salary * 1 ether;\n        totalEmployee += 1;\n        employees[employeeId] = Employee(employeeId, salary, now);\n    }\n\n    function removeEmployee(address employeeId) onlyOwner employeeExist(employeeId) public {\n        var employee = employees[employeeId];\n\n        _partialPaid(employee);\n        totalSalary -= employee.salary;\n        totalEmployee -= 1;\n        delete employees[employeeId];\n    }\n\n    function findEmployee(address employeeId) employeeExist(employeeId) public returns (Employee){\n        return employees[employeeId];\n    }\n\n    function updateEmployee(address employeeId, uint salary) onlyOwner employeeExist(employeeId) public {\n        var employee = employees[employeeId];\n        _partialPaid(employee);\n        totalSalary -= employee.salary;\n        totalSalary += salary * 1 ether; // Don't forget the unit\n        employee.salary = salary;\n        employee.lastPayday = now;\n    }\n\n    function addFund() payable public returns (uint) {\n        return this.balance;\n    }\n\n    function calculateRunway() public returns (uint) {\n        assert(totalSalary != 0x0);\n        return this.balance / totalSalary;\n    }\n\n    function hasEnoughFund() public returns (bool) {\n        if (totalSalary == 0x0) {\n            return true;\n        }\n        return calculateRunway() > 0;\n    }\n    \n    function checkEmployee(address employeeId) public returns (uint salary, uint lastPayday) { //return parameters naming\n        var employee = employees[employeeId];\n        //return (employee.salary, employee.lastPayday);\n        // return parameters assignment\n        salary = employee.salary;\n        lastPayday = employee.lastPayday;\n    }\n\n    function getPaid() employeeExist(msg.sender) public {\n        var employee = employees[msg.sender];\n\n        uint nextPayday = employee.lastPayday + payDuration;\n        assert(nextPayday < now);\n\n        employees[msg.sender].lastPayday = nextPayday;\n        employee.id.transfer(employee.salary);\n    }\n    \n    // new method\n    function changePaymentAddress(address newAddress) employeeExist(msg.sender) employeeNotExist(newAddress) public {\n        var employee = employees[msg.sender];\n        employees[newAddress] = Employee(newAddress, employee.salary, employee.lastPayday);\n        delete employees[msg.sender];\n    }\n\n    function checkInfo() public returns (uint balance, uint runway, uint employeeCount) {\n        balance = this.balance;\n        runway = calculateRunway();\n        employeeCount = totalEmployee;\n    }\n}\n",
  "sourcePath": "/home/xiang/git_repos/guigulive-operation/Lesson5/assignment/contracts/Payroll.sol",
  "compiler": {
    "name": "solc",
    "version": "0.4.18+commit.9cf6e910.Emscripten.clang"
  },
  "schemaVersion": "1.0.1",
  "updatedAt": "2018-01-28T00:36:14.601Z"
}