{
  "contractName": "Payroll",
  "abi": [
    {
      "constant": false,
      "inputs": [
        {
          "name": "newId",
          "type": "address"
        }
      ],
      "name": "changePaymentAddressByEmployee",
      "outputs": [],
      "payable": false,
      "stateMutability": "nonpayable",
      "type": "function"
    },
    {
      "constant": false,
      "inputs": [],
      "name": "hasEnoughFund",
      "outputs": [
        {
          "name": "",
          "type": "bool"
        }
      ],
      "payable": false,
      "stateMutability": "nonpayable",
      "type": "function"
    },
    {
      "constant": false,
      "inputs": [],
      "name": "calculateRunway",
      "outputs": [
        {
          "name": "",
          "type": "uint256"
        }
      ],
      "payable": false,
      "stateMutability": "nonpayable",
      "type": "function"
    },
    {
      "constant": false,
      "inputs": [
        {
          "name": "employeeId",
          "type": "address"
        },
        {
          "name": "salary",
          "type": "uint256"
        }
      ],
      "name": "updateEmployee",
      "outputs": [],
      "payable": false,
      "stateMutability": "nonpayable",
      "type": "function"
    },
    {
      "constant": false,
      "inputs": [
        {
          "name": "employeeId",
          "type": "address"
        }
      ],
      "name": "checkEmployee",
      "outputs": [
        {
          "name": "salary",
          "type": "uint256"
        },
        {
          "name": "lastPayday",
          "type": "uint256"
        }
      ],
      "payable": false,
      "stateMutability": "nonpayable",
      "type": "function"
    },
    {
      "constant": false,
      "inputs": [],
      "name": "addFund",
      "outputs": [
        {
          "name": "",
          "type": "uint256"
        }
      ],
      "payable": true,
      "stateMutability": "payable",
      "type": "function"
    },
    {
      "constant": false,
      "inputs": [
        {
          "name": "oldId",
          "type": "address"
        },
        {
          "name": "newId",
          "type": "address"
        }
      ],
      "name": "changePaymentAddressByOwner",
      "outputs": [],
      "payable": false,
      "stateMutability": "nonpayable",
      "type": "function"
    },
    {
      "constant": false,
      "inputs": [],
      "name": "getPaid",
      "outputs": [],
      "payable": false,
      "stateMutability": "nonpayable",
      "type": "function"
    },
    {
      "constant": true,
      "inputs": [
        {
          "name": "",
          "type": "address"
        }
      ],
      "name": "employees",
      "outputs": [
        {
          "name": "id",
          "type": "address"
        },
        {
          "name": "salary",
          "type": "uint256"
        },
        {
          "name": "lastPayday",
          "type": "uint256"
        }
      ],
      "payable": false,
      "stateMutability": "view",
      "type": "function"
    },
    {
      "constant": false,
      "inputs": [
        {
          "name": "employeeId",
          "type": "address"
        }
      ],
      "name": "removeEmployee",
      "outputs": [],
      "payable": false,
      "stateMutability": "nonpayable",
      "type": "function"
    },
    {
      "constant": false,
      "inputs": [
        {
          "name": "employeeId",
          "type": "address"
        },
        {
          "name": "salary_in_ether",
          "type": "uint256"
        }
      ],
      "name": "addEmployee",
      "outputs": [],
      "payable": false,
      "stateMutability": "nonpayable",
      "type": "function"
    },
    {
      "inputs": [],
      "payable": false,
      "stateMutability": "nonpayable",
      "type": "constructor"
    }
  ],
  "bytecode": "0x60606040526000600255341561001457600080fd5b336000806101000a81548173ffffffffffffffffffffffffffffffffffffffff021916908373ffffffffffffffffffffffffffffffffffffffff160217905550611227806100636000396000f3006060604052600436106100af576000357c0100000000000000000000000000000000000000000000000000000000900463ffffffff1680631a03f432146100b457806323fed09e146100ed5780634ec195121461011a5780635e91d8ec146101435780637cf562b714610185578063a2f09dfa146101d9578063c9dfb758146101f7578063cf41d6f81461024f578063d067894714610264578063d108177a146102eb578063e7fd9a1314610324575b600080fd5b34156100bf57600080fd5b6100eb600480803573ffffffffffffffffffffffffffffffffffffffff16906020019091905050610366565b005b34156100f857600080fd5b610100610596565b604051808215151515815260200191505060405180910390f35b341561012557600080fd5b61012d6105a7565b6040518082815260200191505060405180910390f35b341561014e57600080fd5b610183600480803573ffffffffffffffffffffffffffffffffffffffff169060200190919080359060200190919050506105d3565b005b341561019057600080fd5b6101bc600480803573ffffffffffffffffffffffffffffffffffffffff1690602001909190505061083e565b604051808381526020018281526020019250505060405180910390f35b6101e1610898565b6040518082815260200191505060405180910390f35b341561020257600080fd5b61024d600480803573ffffffffffffffffffffffffffffffffffffffff1690602001909190803573ffffffffffffffffffffffffffffffffffffffff169060200190919050506108b7565b005b341561025a57600080fd5b610262610b43565b005b341561026f57600080fd5b61029b600480803573ffffffffffffffffffffffffffffffffffffffff16906020019091905050610cd4565b604051808473ffffffffffffffffffffffffffffffffffffffff1673ffffffffffffffffffffffffffffffffffffffff168152602001838152602001828152602001935050505060405180910390f35b34156102f657600080fd5b610322600480803573ffffffffffffffffffffffffffffffffffffffff16906020019091905050610d1e565b005b341561032f57600080fd5b610364600480803573ffffffffffffffffffffffffffffffffffffffff16906020019091908035906020019091905050610f59565b005b60006103706111c3565b336000600160008373ffffffffffffffffffffffffffffffffffffffff1673ffffffffffffffffffffffffffffffffffffffff168152602001908152602001600020905060008160000160009054906101000a900473ffffffffffffffffffffffffffffffffffffffff1673ffffffffffffffffffffffffffffffffffffffff16141515156103fb57fe5b600160003373ffffffffffffffffffffffffffffffffffffffff1673ffffffffffffffffffffffffffffffffffffffff16815260200190815260200160002093506060604051908101604052808673ffffffffffffffffffffffffffffffffffffffff168152602001856001015481526020018560020154815250925082600160008773ffffffffffffffffffffffffffffffffffffffff1673ffffffffffffffffffffffffffffffffffffffff16815260200190815260200160002060008201518160000160006101000a81548173ffffffffffffffffffffffffffffffffffffffff021916908373ffffffffffffffffffffffffffffffffffffffff1602179055506020820151816001015560408201518160020155905050600160003373ffffffffffffffffffffffffffffffffffffffff1673ffffffffffffffffffffffffffffffffffffffff168152602001908152602001600020600080820160006101000a81549073ffffffffffffffffffffffffffffffffffffffff02191690556001820160009055600282016000905550505050505050565b6000806105a16105a7565b11905090565b60006002543073ffffffffffffffffffffffffffffffffffffffff16318115156105cd57fe5b04905090565b60008060009054906101000a900473ffffffffffffffffffffffffffffffffffffffff1673ffffffffffffffffffffffffffffffffffffffff163373ffffffffffffffffffffffffffffffffffffffff1614151561063057600080fd5b826000600160008373ffffffffffffffffffffffffffffffffffffffff1673ffffffffffffffffffffffffffffffffffffffff168152602001908152602001600020905060008160000160009054906101000a900473ffffffffffffffffffffffffffffffffffffffff1673ffffffffffffffffffffffffffffffffffffffff16141515156106bb57fe5b600160008673ffffffffffffffffffffffffffffffffffffffff1673ffffffffffffffffffffffffffffffffffffffff168152602001908152602001600020925061077b83606060405190810160405290816000820160009054906101000a900473ffffffffffffffffffffffffffffffffffffffff1673ffffffffffffffffffffffffffffffffffffffff1673ffffffffffffffffffffffffffffffffffffffff16815260200160018201548152602001600282015481525050611135565b826001015460026000828254039250508190555083600160008773ffffffffffffffffffffffffffffffffffffffff1673ffffffffffffffffffffffffffffffffffffffff16815260200190815260200160002060010181905550670de0b6b3a7640000840260026000828254019250508190555042600160008773ffffffffffffffffffffffffffffffffffffffff1673ffffffffffffffffffffffffffffffffffffffff168152602001908152602001600020600201819055505050505050565b6000806000600160008573ffffffffffffffffffffffffffffffffffffffff1673ffffffffffffffffffffffffffffffffffffffff1681526020019081526020016000209050806001015492508060020154915050915091565b60003073ffffffffffffffffffffffffffffffffffffffff1631905090565b60006108c16111c3565b6000809054906101000a900473ffffffffffffffffffffffffffffffffffffffff1673ffffffffffffffffffffffffffffffffffffffff163373ffffffffffffffffffffffffffffffffffffffff1614151561091c57600080fd5b836000600160008373ffffffffffffffffffffffffffffffffffffffff1673ffffffffffffffffffffffffffffffffffffffff168152602001908152602001600020905060008160000160009054906101000a900473ffffffffffffffffffffffffffffffffffffffff1673ffffffffffffffffffffffffffffffffffffffff16141515156109a757fe5b600160008773ffffffffffffffffffffffffffffffffffffffff1673ffffffffffffffffffffffffffffffffffffffff16815260200190815260200160002093506060604051908101604052808673ffffffffffffffffffffffffffffffffffffffff168152602001856001015481526020018560020154815250925082600160008773ffffffffffffffffffffffffffffffffffffffff1673ffffffffffffffffffffffffffffffffffffffff16815260200190815260200160002060008201518160000160006101000a81548173ffffffffffffffffffffffffffffffffffffffff021916908373ffffffffffffffffffffffffffffffffffffffff1602179055506020820151816001015560408201518160020155905050600160008773ffffffffffffffffffffffffffffffffffffffff1673ffffffffffffffffffffffffffffffffffffffff168152602001908152602001600020600080820160006101000a81549073ffffffffffffffffffffffffffffffffffffffff0219169055600182016000905560028201600090555050505050505050565b600080600160003373ffffffffffffffffffffffffffffffffffffffff1673ffffffffffffffffffffffffffffffffffffffff168152602001908152602001600020915060008260000160009054906101000a900473ffffffffffffffffffffffffffffffffffffffff1673ffffffffffffffffffffffffffffffffffffffff1614151515610bce57fe5b600a82600201540190504281101515610be357fe5b80600160003373ffffffffffffffffffffffffffffffffffffffff1673ffffffffffffffffffffffffffffffffffffffff16815260200190815260200160002060020181905550600160003373ffffffffffffffffffffffffffffffffffffffff1673ffffffffffffffffffffffffffffffffffffffff16815260200190815260200160002060000160009054906101000a900473ffffffffffffffffffffffffffffffffffffffff1673ffffffffffffffffffffffffffffffffffffffff166108fc83600101549081150290604051600060405180830381858888f193505050501515610cd057600080fd5b5050565b60016020528060005260406000206000915090508060000160009054906101000a900473ffffffffffffffffffffffffffffffffffffffff16908060010154908060020154905083565b60008060009054906101000a900473ffffffffffffffffffffffffffffffffffffffff1673ffffffffffffffffffffffffffffffffffffffff163373ffffffffffffffffffffffffffffffffffffffff16141515610d7b57600080fd5b816000600160008373ffffffffffffffffffffffffffffffffffffffff1673ffffffffffffffffffffffffffffffffffffffff168152602001908152602001600020905060008160000160009054906101000a900473ffffffffffffffffffffffffffffffffffffffff1673ffffffffffffffffffffffffffffffffffffffff1614151515610e0657fe5b600160008573ffffffffffffffffffffffffffffffffffffffff1673ffffffffffffffffffffffffffffffffffffffff16815260200190815260200160002092508260010154600260008282540392505081905550610eda83606060405190810160405290816000820160009054906101000a900473ffffffffffffffffffffffffffffffffffffffff1673ffffffffffffffffffffffffffffffffffffffff1673ffffffffffffffffffffffffffffffffffffffff16815260200160018201548152602001600282015481525050611135565b600160008573ffffffffffffffffffffffffffffffffffffffff1673ffffffffffffffffffffffffffffffffffffffff168152602001908152602001600020600080820160006101000a81549073ffffffffffffffffffffffffffffffffffffffff021916905560018201600090556002820160009055505050505050565b60008060009054906101000a900473ffffffffffffffffffffffffffffffffffffffff1673ffffffffffffffffffffffffffffffffffffffff163373ffffffffffffffffffffffffffffffffffffffff16141515610fb657600080fd5b600160008473ffffffffffffffffffffffffffffffffffffffff1673ffffffffffffffffffffffffffffffffffffffff168152602001908152602001600020905060008160000160009054906101000a900473ffffffffffffffffffffffffffffffffffffffff1673ffffffffffffffffffffffffffffffffffffffff1614151561103d57fe5b6060604051908101604052808473ffffffffffffffffffffffffffffffffffffffff168152602001670de0b6b3a76400008402815260200142815250600160008573ffffffffffffffffffffffffffffffffffffffff1673ffffffffffffffffffffffffffffffffffffffff16815260200190815260200160002060008201518160000160006101000a81548173ffffffffffffffffffffffffffffffffffffffff021916908373ffffffffffffffffffffffffffffffffffffffff1602179055506020820151816001015560408201518160020155905050670de0b6b3a76400008202600260008282540192505081905550505050565b600080826000015173ffffffffffffffffffffffffffffffffffffffff161415151561116057600080fd5b600a8260400151420383602001510281151561117857fe5b049050816000015173ffffffffffffffffffffffffffffffffffffffff166108fc829081150290604051600060405180830381858888f1935050505015156111bf57600080fd5b5050565b606060405190810160405280600073ffffffffffffffffffffffffffffffffffffffff168152602001600081526020016000815250905600a165627a7a72305820d50c2e6d2baaff1d5e0460608a90555c3cdcec597b438adec3611cbd819554780029",
  "source": "pragma solidity ^0.4.14;\n\ncontract Payroll {\n    struct Employee{\n        address id;\n        uint salary;\n        uint lastPayday;\n    }\n    uint constant payDuration = 10 seconds;\n    address owner;\n    mapping(address => Employee) public employees;\n    uint total_salary = 0 * 1 ether;\n    \n    function Payroll() public{\n        owner = msg.sender;\n    }\n    \n    modifier onlyOwner {\n        require(msg.sender == owner);\n        _;\n    }\n\n    modifier employeeExist(address employeeId){\n        var employee = employees[employeeId];\n        assert(employee.id != 0x0);\n        _;\n    }\n    \n    function _partialPaid(Employee employee) private{\n        require(employee.id != 0x0);\n        uint payment = employee.salary * (now - employee.lastPayday) / payDuration;\n        employee.id.transfer(payment);\n    }\n    \n    function addEmployee(address employeeId, uint salary_in_ether) \n    public onlyOwner {\n        var employee = employees[employeeId];\n        assert(employee.id == 0x0);\n        employees[employeeId] = Employee(employeeId, salary_in_ether * 1 ether, now);\n        total_salary += salary_in_ether * 1 ether;\n    }\n    \n    function removeEmployee(address employeeId) \n    public onlyOwner employeeExist(employeeId) {\n        var employee = employees[employeeId];\n        total_salary -= employee.salary;\n        _partialPaid(employee);\n        delete employees[employeeId];\n        \n    }\n    \n    function changePaymentAddressByOwner(address oldId, address newId) \n    public onlyOwner employeeExist(oldId) {\n        var employee = employees[oldId];\n        var newEmployee = Employee(newId, employee.salary, employee.lastPayday);\n        employees[newId] = newEmployee;\n        delete employees[oldId];\n    }\n    \n    function changePaymentAddressByEmployee(address newId) \n    public employeeExist(msg.sender) {\n        var employee = employees[msg.sender];\n        var newEmployee = Employee(newId, employee.salary, employee.lastPayday);\n        employees[newId] = newEmployee;\n        delete employees[msg.sender];\n    }\n    \n    function updateEmployee(address employeeId, uint salary) \n    public onlyOwner employeeExist(employeeId) {\n        var employee = employees[employeeId];\n        _partialPaid(employee);\n        total_salary -= employee.salary;\n        employees[employeeId].salary = salary;\n        total_salary += salary * 1 ether;\n        employees[employeeId].lastPayday = now;\n    }\n    \n    function addFund() payable public returns (uint) {\n        return this.balance;\n    }\n    \n    function calculateRunway() public returns (uint) {\n        return this.balance / total_salary;\n    }\n    \n    function checkEmployee(address employeeId) \n    public returns (uint salary, uint lastPayday) {\n        var employee = employees[employeeId];\n        //return (employee.salary, employee.lastPayday);\n        salary = employee.salary;\n        lastPayday = employee.lastPayday;\n    }\n    \n    function hasEnoughFund() \n    public returns (bool) {\n        return calculateRunway() > 0;\n    }\n    \n    function getPaid() \n    public{\n        var employee= employees[msg.sender];\n        assert(employee.id != 0x0);\n        \n        uint nextPayday = employee.lastPayday + payDuration;\n        assert(nextPayday < now);\n        \n        employees[msg.sender].lastPayday = nextPayday;\n        employees[msg.sender].id.transfer(employee.salary);\n        \n    }\n}\n",
  "sourcePath": "/home/juicebox/guigulive-operation/Lesson4/assignment/payroll/contracts/Payroll.sol",
  "compiler": {
    "name": "solc",
    "version": "0.4.18+commit.9cf6e910.Emscripten.clang"
  },
  "schemaVersion": "1.0.1",
  "updatedAt": "2018-01-20T13:12:59.025Z"
}