{
  "contractName": "Payroll",
  "abi": [
    {
      "constant": false,
      "inputs": [],
      "name": "hasEnoughFund",
      "outputs": [
        {
          "name": "",
          "type": "bool"
        }
      ],
      "payable": false,
      "stateMutability": "nonpayable",
      "type": "function"
    },
    {
      "constant": false,
      "inputs": [],
      "name": "calculateRunway",
      "outputs": [
        {
          "name": "",
          "type": "uint256"
        }
      ],
      "payable": false,
      "stateMutability": "nonpayable",
      "type": "function"
    },
    {
      "constant": false,
      "inputs": [
        {
          "name": "employeeId",
          "type": "address"
        },
        {
          "name": "salary",
          "type": "uint256"
        }
      ],
      "name": "updateEmployee",
      "outputs": [],
      "payable": false,
      "stateMutability": "nonpayable",
      "type": "function"
    },
    {
      "constant": false,
      "inputs": [
        {
          "name": "newEmployeeId",
          "type": "address"
        }
      ],
      "name": "changePaymentAddress",
      "outputs": [],
      "payable": false,
      "stateMutability": "nonpayable",
      "type": "function"
    },
    {
      "constant": true,
      "inputs": [],
      "name": "owner",
      "outputs": [
        {
          "name": "",
          "type": "address"
        }
      ],
      "payable": false,
      "stateMutability": "view",
      "type": "function"
    },
    {
      "constant": false,
      "inputs": [],
      "name": "addFund",
      "outputs": [
        {
          "name": "",
          "type": "uint256"
        }
      ],
      "payable": true,
      "stateMutability": "payable",
      "type": "function"
    },
    {
      "constant": false,
      "inputs": [],
      "name": "getPaid",
      "outputs": [],
      "payable": false,
      "stateMutability": "nonpayable",
      "type": "function"
    },
    {
      "constant": true,
      "inputs": [
        {
          "name": "",
          "type": "address"
        }
      ],
      "name": "employees",
      "outputs": [
        {
          "name": "id",
          "type": "address"
        },
        {
          "name": "salary",
          "type": "uint256"
        },
        {
          "name": "lastPayday",
          "type": "uint256"
        }
      ],
      "payable": false,
      "stateMutability": "view",
      "type": "function"
    },
    {
      "constant": false,
      "inputs": [
        {
          "name": "employeeId",
          "type": "address"
        }
      ],
      "name": "removeEmployee",
      "outputs": [],
      "payable": false,
      "stateMutability": "nonpayable",
      "type": "function"
    },
    {
      "constant": false,
      "inputs": [
        {
          "name": "employeeId",
          "type": "address"
        },
        {
          "name": "salary",
          "type": "uint256"
        }
      ],
      "name": "addEmployee",
      "outputs": [],
      "payable": false,
      "stateMutability": "nonpayable",
      "type": "function"
    }
  ],
  "bytecode": "0x60606040526000600355336000806101000a81548173ffffffffffffffffffffffffffffffffffffffff021916908373ffffffffffffffffffffffffffffffffffffffff160217905550610ee6806100586000396000f3006060604052600436106100a4576000357c0100000000000000000000000000000000000000000000000000000000900463ffffffff16806323fed09e146100a95780634ec19512146100d65780635e91d8ec146100ff5780637124d613146101415780638da5cb5b1461017a578063a2f09dfa146101cf578063cf41d6f8146101ed578063d067894714610202578063d108177a14610289578063e7fd9a13146102c2575b600080fd5b34156100b457600080fd5b6100bc610304565b604051808215151515815260200191505060405180910390f35b34156100e157600080fd5b6100e9610315565b6040518082815260200191505060405180910390f35b341561010a57600080fd5b61013f600480803573ffffffffffffffffffffffffffffffffffffffff16906020019091908035906020019091905050610348565b005b341561014c57600080fd5b610178600480803573ffffffffffffffffffffffffffffffffffffffff16906020019091905050610561565b005b341561018557600080fd5b61018d610781565b604051808273ffffffffffffffffffffffffffffffffffffffff1673ffffffffffffffffffffffffffffffffffffffff16815260200191505060405180910390f35b6101d76107a6565b6040518082815260200191505060405180910390f35b34156101f857600080fd5b6102006107c5565b005b341561020d57600080fd5b610239600480803573ffffffffffffffffffffffffffffffffffffffff16906020019091905050610920565b604051808473ffffffffffffffffffffffffffffffffffffffff1673ffffffffffffffffffffffffffffffffffffffff168152602001838152602001828152602001935050505060405180910390f35b341561029457600080fd5b6102c0600480803573ffffffffffffffffffffffffffffffffffffffff1690602001909190505061096a565b005b34156102cd57600080fd5b610302600480803573ffffffffffffffffffffffffffffffffffffffff16906020019091908035906020019091905050610bb0565b005b60008061030f610315565b11905090565b60006103436003543073ffffffffffffffffffffffffffffffffffffffff1631610da190919063ffffffff16565b905090565b60003373ffffffffffffffffffffffffffffffffffffffff166000809054906101000a900473ffffffffffffffffffffffffffffffffffffffff1673ffffffffffffffffffffffffffffffffffffffff161415156103a557600080fd5b826000600260008373ffffffffffffffffffffffffffffffffffffffff1673ffffffffffffffffffffffffffffffffffffffff168152602001908152602001600020905060008160000160009054906101000a900473ffffffffffffffffffffffffffffffffffffffff1673ffffffffffffffffffffffffffffffffffffffff161415151561043057fe5b600260008673ffffffffffffffffffffffffffffffffffffffff1673ffffffffffffffffffffffffffffffffffffffff16815260200190815260200160002092506104f083606060405190810160405290816000820160009054906101000a900473ffffffffffffffffffffffffffffffffffffffff1673ffffffffffffffffffffffffffffffffffffffff1673ffffffffffffffffffffffffffffffffffffffff16815260200160018201548152602001600282015481525050610dbc565b6105098360010154600354610e4890919063ffffffff16565b60038190555061052a670de0b6b3a764000085610e6190919063ffffffff16565b83600101819055504283600201819055506105548360010154600354610e9c90919063ffffffff16565b6003819055505050505050565b6000336000600260008373ffffffffffffffffffffffffffffffffffffffff1673ffffffffffffffffffffffffffffffffffffffff168152602001908152602001600020905060008160000160009054906101000a900473ffffffffffffffffffffffffffffffffffffffff1673ffffffffffffffffffffffffffffffffffffffff16141515156105ee57fe5b600260003373ffffffffffffffffffffffffffffffffffffffff1673ffffffffffffffffffffffffffffffffffffffff16815260200190815260200160002092506060604051908101604052808573ffffffffffffffffffffffffffffffffffffffff1681526020018460010154815260200142815250600260008673ffffffffffffffffffffffffffffffffffffffff1673ffffffffffffffffffffffffffffffffffffffff16815260200190815260200160002060008201518160000160006101000a81548173ffffffffffffffffffffffffffffffffffffffff021916908373ffffffffffffffffffffffffffffffffffffffff1602179055506020820151816001015560408201518160020155905050600260003373ffffffffffffffffffffffffffffffffffffffff1673ffffffffffffffffffffffffffffffffffffffff168152602001908152602001600020600080820160006101000a81549073ffffffffffffffffffffffffffffffffffffffff021916905560018201600090556002820160009055505050505050565b6000809054906101000a900473ffffffffffffffffffffffffffffffffffffffff1681565b60003073ffffffffffffffffffffffffffffffffffffffff1631905090565b600080336000600260008373ffffffffffffffffffffffffffffffffffffffff1673ffffffffffffffffffffffffffffffffffffffff168152602001908152602001600020905060008160000160009054906101000a900473ffffffffffffffffffffffffffffffffffffffff1673ffffffffffffffffffffffffffffffffffffffff161415151561085357fe5b600260003373ffffffffffffffffffffffffffffffffffffffff1673ffffffffffffffffffffffffffffffffffffffff1681526020019081526020016000209350600a846002015401925042831015156108a957fe5b8284600201819055508360000160009054906101000a900473ffffffffffffffffffffffffffffffffffffffff1673ffffffffffffffffffffffffffffffffffffffff166108fc85600101549081150290604051600060405180830381858888f19350505050151561091a57600080fd5b50505050565b60026020528060005260406000206000915090508060000160009054906101000a900473ffffffffffffffffffffffffffffffffffffffff16908060010154908060020154905083565b60003373ffffffffffffffffffffffffffffffffffffffff166000809054906101000a900473ffffffffffffffffffffffffffffffffffffffff1673ffffffffffffffffffffffffffffffffffffffff161415156109c757600080fd5b816000600260008373ffffffffffffffffffffffffffffffffffffffff1673ffffffffffffffffffffffffffffffffffffffff168152602001908152602001600020905060008160000160009054906101000a900473ffffffffffffffffffffffffffffffffffffffff1673ffffffffffffffffffffffffffffffffffffffff1614151515610a5257fe5b600260008573ffffffffffffffffffffffffffffffffffffffff1673ffffffffffffffffffffffffffffffffffffffff1681526020019081526020016000209250610b1283606060405190810160405290816000820160009054906101000a900473ffffffffffffffffffffffffffffffffffffffff1673ffffffffffffffffffffffffffffffffffffffff1673ffffffffffffffffffffffffffffffffffffffff16815260200160018201548152602001600282015481525050610dbc565b610b2b8360010154600354610e4890919063ffffffff16565b600381905550600260008573ffffffffffffffffffffffffffffffffffffffff1673ffffffffffffffffffffffffffffffffffffffff168152602001908152602001600020600080820160006101000a81549073ffffffffffffffffffffffffffffffffffffffff021916905560018201600090556002820160009055505050505050565b60003373ffffffffffffffffffffffffffffffffffffffff166000809054906101000a900473ffffffffffffffffffffffffffffffffffffffff1673ffffffffffffffffffffffffffffffffffffffff16141515610c0d57600080fd5b600260008473ffffffffffffffffffffffffffffffffffffffff1673ffffffffffffffffffffffffffffffffffffffff168152602001908152602001600020905060008160000160009054906101000a900473ffffffffffffffffffffffffffffffffffffffff1673ffffffffffffffffffffffffffffffffffffffff16141515610c9457fe5b6060604051908101604052808473ffffffffffffffffffffffffffffffffffffffff168152602001610cd7670de0b6b3a764000085610e6190919063ffffffff16565b815260200142815250600260008573ffffffffffffffffffffffffffffffffffffffff1673ffffffffffffffffffffffffffffffffffffffff16815260200190815260200160002060008201518160000160006101000a81548173ffffffffffffffffffffffffffffffffffffffff021916908373ffffffffffffffffffffffffffffffffffffffff1602179055506020820151816001015560408201518160020155905050610d968160010154600354610e9c90919063ffffffff16565b600381905550505050565b6000808284811515610daf57fe5b0490508091505092915050565b6000610dfe600a610df08460200151610de2866040015142610e4890919063ffffffff16565b610e6190919063ffffffff16565b610da190919063ffffffff16565b9050816000015173ffffffffffffffffffffffffffffffffffffffff166108fc829081150290604051600060405180830381858888f193505050501515610e4457600080fd5b5050565b6000828211151515610e5657fe5b818303905092915050565b6000806000841415610e765760009150610e95565b8284029050828482811515610e8757fe5b04141515610e9157fe5b8091505b5092915050565b6000808284019050838110151515610eb057fe5b80915050929150505600a165627a7a72305820aa2d9b9e694c98fd9741b5c4398167fc9d3d03d88b1d7399f2b4790750353fdf0029",
  "source": "pragma solidity ^0.4.14;\r\n\r\nimport './Owner.sol';\r\nimport './SafeMath.sol';\r\n\r\ncontract Payroll is Owner {\r\n    using SafeMath for uint;\r\n    struct Employee {\r\n      address id;\r\n      uint salary;\r\n      uint lastPayday;\r\n    }\r\n\r\n    uint constant payDuration = 10 seconds;\r\n    address owner;\r\n    mapping (address => Employee) public employees;\r\n    uint totalSalary = 0;\r\n\r\n    modifier employeeExist(address employeeId) {\r\n      var employee = employees[employeeId];\r\n      assert(employee.id != 0x00);\r\n      _;\r\n    }\r\n\r\n    function _partialPaid(Employee employee) private {\r\n      //uint payment = employee.salary * (now - employee.lastPayday) / payDuration;\r\n      uint payment = now.sub(employee.lastPayday).mul(employee.salary).div(payDuration);\r\n      employee.id.transfer(payment);\r\n    }\r\n\r\n    function addEmployee(address employeeId, uint salary) onlyOwner {\r\n      var employee = employees[employeeId];\r\n      assert(employee.id == 0x00);\r\n\r\n      employees[employeeId] = Employee(employeeId, salary.mul(1 ether), now);\r\n      totalSalary = totalSalary.add(employee.salary);\r\n    }\r\n\r\n    function removeEmployee(address employeeId) onlyOwner employeeExist(employeeId) {\r\n      var employee = employees[employeeId];\r\n\r\n      _partialPaid(employee);\r\n      totalSalary = totalSalary.sub(employee.salary);\r\n      delete employees[employeeId];\r\n    }\r\n\r\n    function updateEmployee(address employeeId, uint salary) onlyOwner employeeExist(employeeId) {\r\n      var employee = employees[employeeId];\r\n\r\n      _partialPaid(employee);\r\n      totalSalary = totalSalary.sub(employee.salary);\r\n      employee.salary = salary.mul(1 ether);\r\n      employee.lastPayday = now;\r\n      totalSalary = totalSalary.add(employee.salary);\r\n    }\r\n\r\n    function changePaymentAddress(address newEmployeeId) employeeExist(msg.sender) {\r\n      var employee = employees[msg.sender];\r\n\r\n      employees[newEmployeeId] = Employee(newEmployeeId, employee.salary, now);\r\n      delete employees[msg.sender];\r\n    }\r\n\r\n    function addFund() payable returns (uint) {\r\n      return this.balance;\r\n    }\r\n\r\n    function calculateRunway() returns (uint) {\r\n      return this.balance.div(totalSalary);\r\n    }\r\n\r\n    function hasEnoughFund() returns (bool) {\r\n      return calculateRunway() > 0;\r\n    }\r\n\r\n    function getPaid() public employeeExist(msg.sender) {\r\n      var employee = employees[msg.sender];\r\n\r\n      uint nextPayday = employee.lastPayday + payDuration;\r\n      assert(nextPayday < now);\r\n\r\n      employee.lastPayday = nextPayday;\r\n      employee.id.transfer(employee.salary);\r\n    }\r\n}\r\n",
  "sourcePath": "E:\\master\\guigulive-operation\\lesson4\\assignment\\payroll\\contracts\\Payroll.sol",
  "compiler": {
    "name": "solc",
    "version": "0.4.18+commit.9cf6e910.Emscripten.clang"
  },
  "schemaVersion": "1.0.1",
  "updatedAt": "2018-01-29T02:43:01.695Z"
}