{
  "contractName": "Payroll",
  "abi": [
    {
      "constant": true,
      "inputs": [],
      "name": "hasEnoughFund",
      "outputs": [
        {
          "name": "",
          "type": "bool"
        }
      ],
      "payable": false,
      "stateMutability": "view",
      "type": "function"
    },
    {
      "constant": true,
      "inputs": [
        {
          "name": "_employeeAddr",
          "type": "address"
        }
      ],
      "name": "getEmployee",
      "outputs": [
        {
          "name": "",
          "type": "uint256"
        }
      ],
      "payable": false,
      "stateMutability": "view",
      "type": "function"
    },
    {
      "constant": true,
      "inputs": [],
      "name": "calculateRunway",
      "outputs": [
        {
          "name": "",
          "type": "uint256"
        }
      ],
      "payable": false,
      "stateMutability": "view",
      "type": "function"
    },
    {
      "constant": true,
      "inputs": [],
      "name": "getInfo",
      "outputs": [
        {
          "name": "balance",
          "type": "uint256"
        },
        {
          "name": "runway",
          "type": "uint256"
        },
        {
          "name": "employeeCount",
          "type": "uint256"
        }
      ],
      "payable": false,
      "stateMutability": "view",
      "type": "function"
    },
    {
      "constant": false,
      "inputs": [
        {
          "name": "_employeeAddr",
          "type": "address"
        },
        {
          "name": "_salary",
          "type": "uint256"
        }
      ],
      "name": "updateEmployee",
      "outputs": [],
      "payable": false,
      "stateMutability": "nonpayable",
      "type": "function"
    },
    {
      "constant": true,
      "inputs": [],
      "name": "owner",
      "outputs": [
        {
          "name": "",
          "type": "address"
        }
      ],
      "payable": false,
      "stateMutability": "view",
      "type": "function"
    },
    {
      "constant": true,
      "inputs": [
        {
          "name": "index",
          "type": "uint256"
        }
      ],
      "name": "checkEmployee",
      "outputs": [
        {
          "name": "employeeAddr",
          "type": "address"
        },
        {
          "name": "salary",
          "type": "uint256"
        },
        {
          "name": "lastPayDay",
          "type": "uint256"
        }
      ],
      "payable": false,
      "stateMutability": "view",
      "type": "function"
    },
    {
      "constant": false,
      "inputs": [],
      "name": "addFund",
      "outputs": [
        {
          "name": "",
          "type": "uint256"
        }
      ],
      "payable": true,
      "stateMutability": "payable",
      "type": "function"
    },
    {
      "constant": false,
      "inputs": [
        {
          "name": "_oldAddr",
          "type": "address"
        },
        {
          "name": "_newAddr",
          "type": "address"
        }
      ],
      "name": "changePaymentAddress",
      "outputs": [],
      "payable": false,
      "stateMutability": "nonpayable",
      "type": "function"
    },
    {
      "constant": false,
      "inputs": [],
      "name": "getPaid",
      "outputs": [],
      "payable": false,
      "stateMutability": "nonpayable",
      "type": "function"
    },
    {
      "constant": true,
      "inputs": [
        {
          "name": "",
          "type": "address"
        }
      ],
      "name": "employees",
      "outputs": [
        {
          "name": "addr",
          "type": "address"
        },
        {
          "name": "salary",
          "type": "uint256"
        },
        {
          "name": "lastPayDay",
          "type": "uint256"
        }
      ],
      "payable": false,
      "stateMutability": "view",
      "type": "function"
    },
    {
      "constant": false,
      "inputs": [
        {
          "name": "_employeeAddr",
          "type": "address"
        }
      ],
      "name": "removeEmployee",
      "outputs": [],
      "payable": false,
      "stateMutability": "nonpayable",
      "type": "function"
    },
    {
      "constant": false,
      "inputs": [
        {
          "name": "_employeeAddr",
          "type": "address"
        },
        {
          "name": "_salary",
          "type": "uint256"
        }
      ],
      "name": "addEmployee",
      "outputs": [],
      "payable": false,
      "stateMutability": "nonpayable",
      "type": "function"
    },
    {
      "constant": false,
      "inputs": [
        {
          "name": "newOwner",
          "type": "address"
        }
      ],
      "name": "transferOwnership",
      "outputs": [],
      "payable": false,
      "stateMutability": "nonpayable",
      "type": "function"
    },
    {
      "anonymous": false,
      "inputs": [
        {
          "indexed": false,
          "name": "employeeAddr",
          "type": "address"
        },
        {
          "indexed": true,
          "name": "newOwner",
          "type": "address"
        }
      ],
      "name": "AddEmployee",
      "type": "event"
    },
    {
      "anonymous": false,
      "inputs": [
        {
          "indexed": false,
          "name": "employeeAddr",
          "type": "address"
        }
      ],
      "name": "UpdateEmployee",
      "type": "event"
    },
    {
      "anonymous": false,
      "inputs": [
        {
          "indexed": false,
          "name": "employeeAddr",
          "type": "address"
        }
      ],
      "name": "RemoveEmployee",
      "type": "event"
    },
    {
      "anonymous": false,
      "inputs": [
        {
          "indexed": false,
          "name": "balance",
          "type": "uint256"
        }
      ],
      "name": "AddFund",
      "type": "event"
    },
    {
      "anonymous": false,
      "inputs": [
        {
          "indexed": false,
          "name": "employeeAddr",
          "type": "address"
        }
      ],
      "name": "GetPaid",
      "type": "event"
    },
    {
      "anonymous": false,
      "inputs": [
        {
          "indexed": true,
          "name": "previousOwner",
          "type": "address"
        },
        {
          "indexed": true,
          "name": "newOwner",
          "type": "address"
        }
      ],
      "name": "OwnershipTransferred",
      "type": "event"
    }
  ],
  "bytecode": "0x6060604052336000806101000a81548173ffffffffffffffffffffffffffffffffffffffff021916908373ffffffffffffffffffffffffffffffffffffffff1602179055506119a2806100536000396000f3006060604052600436106100d0576000357c0100000000000000000000000000000000000000000000000000000000900463ffffffff16806323fed09e146100d557806332648e09146101025780634ec195121461014f5780635a9b0b89146101785780635e91d8ec146101af5780638da5cb5b146101f157806396b0269614610246578063a2f09dfa146102b7578063bc456c42146102d5578063cf41d6f81461032d578063d067894714610342578063d108177a146103c9578063e7fd9a1314610402578063f2fde38b14610444575b600080fd5b34156100e057600080fd5b6100e861047d565b604051808215151515815260200191505060405180910390f35b341561010d57600080fd5b610139600480803573ffffffffffffffffffffffffffffffffffffffff1690602001909190505061048e565b6040518082815260200191505060405180910390f35b341561015a57600080fd5b6101626104da565b6040518082815260200191505060405180910390f35b341561018357600080fd5b61018b61050d565b60405180848152602001838152602001828152602001935050505060405180910390f35b34156101ba57600080fd5b6101ef600480803573ffffffffffffffffffffffffffffffffffffffff1690602001909190803590602001909190505061054c565b005b34156101fc57600080fd5b610204610844565b604051808273ffffffffffffffffffffffffffffffffffffffff1673ffffffffffffffffffffffffffffffffffffffff16815260200191505060405180910390f35b341561025157600080fd5b6102676004808035906020019091905050610869565b604051808473ffffffffffffffffffffffffffffffffffffffff1673ffffffffffffffffffffffffffffffffffffffff168152602001838152602001828152602001935050505060405180910390f35b6102bf610903565b6040518082815260200191505060405180910390f35b34156102e057600080fd5b61032b600480803573ffffffffffffffffffffffffffffffffffffffff1690602001909190803573ffffffffffffffffffffffffffffffffffffffff16906020019091905050610970565b005b341561033857600080fd5b610340610c30565b005b341561034d57600080fd5b610379600480803573ffffffffffffffffffffffffffffffffffffffff16906020019091905050610e7c565b604051808473ffffffffffffffffffffffffffffffffffffffff1673ffffffffffffffffffffffffffffffffffffffff168152602001838152602001828152602001935050505060405180910390f35b34156103d457600080fd5b610400600480803573ffffffffffffffffffffffffffffffffffffffff16906020019091905050610ec6565b005b341561040d57600080fd5b610442600480803573ffffffffffffffffffffffffffffffffffffffff1690602001909190803590602001909190505061130b565b005b341561044f57600080fd5b61047b600480803573ffffffffffffffffffffffffffffffffffffffff169060200190919050506115df565b005b6000806104886104da565b11905090565b6000600460008373ffffffffffffffffffffffffffffffffffffffff1673ffffffffffffffffffffffffffffffffffffffff168152602001908152602001600020600101549050919050565b60006105086001543073ffffffffffffffffffffffffffffffffffffffff163161173490919063ffffffff16565b905090565b60008060003073ffffffffffffffffffffffffffffffffffffffff16319250600254905060006001541115610547576105446104da565b91505b909192565b60008060009054906101000a900473ffffffffffffffffffffffffffffffffffffffff1673ffffffffffffffffffffffffffffffffffffffff163373ffffffffffffffffffffffffffffffffffffffff161415156105a957600080fd5b826000600460008373ffffffffffffffffffffffffffffffffffffffff1673ffffffffffffffffffffffffffffffffffffffff168152602001908152602001600020905060008160000160009054906101000a900473ffffffffffffffffffffffffffffffffffffffff1673ffffffffffffffffffffffffffffffffffffffff161415151561063457fe5b600460008673ffffffffffffffffffffffffffffffffffffffff1673ffffffffffffffffffffffffffffffffffffffff16815260200190815260200160002092506106f483606060405190810160405290816000820160009054906101000a900473ffffffffffffffffffffffffffffffffffffffff1673ffffffffffffffffffffffffffffffffffffffff1673ffffffffffffffffffffffffffffffffffffffff1681526020016001820154815260200160028201548152505061174f565b61070d83600101546001546117db90919063ffffffff16565b60018190555061072e670de0b6b3a7640000856117f490919063ffffffff16565b600460008773ffffffffffffffffffffffffffffffffffffffff1673ffffffffffffffffffffffffffffffffffffffff1681526020019081526020016000206001018190555042600460008773ffffffffffffffffffffffffffffffffffffffff1673ffffffffffffffffffffffffffffffffffffffff168152602001908152602001600020600201819055506107d4836001015460015461182f90919063ffffffff16565b6001819055507f488bacda22fcd72c26e796890d62491cef03e8de61cad515b1826a683f2e760f85604051808273ffffffffffffffffffffffffffffffffffffffff1673ffffffffffffffffffffffffffffffffffffffff16815260200191505060405180910390a15050505050565b6000809054906101000a900473ffffffffffffffffffffffffffffffffffffffff1681565b60008060008060038581548110151561087e57fe5b906000526020600020900160009054906101000a900473ffffffffffffffffffffffffffffffffffffffff169350600460008573ffffffffffffffffffffffffffffffffffffffff1673ffffffffffffffffffffffffffffffffffffffff16815260200190815260200160002090508060010154925080600201549150509193909250565b60007f7a651fc0ce07714731a81504253279844b66813feb5b6317eb21da01efa1dc093073ffffffffffffffffffffffffffffffffffffffff16316040518082815260200191505060405180910390a13073ffffffffffffffffffffffffffffffffffffffff1631905090565b60008060009054906101000a900473ffffffffffffffffffffffffffffffffffffffff1673ffffffffffffffffffffffffffffffffffffffff163373ffffffffffffffffffffffffffffffffffffffff161415156109cd57600080fd5b826000600460008373ffffffffffffffffffffffffffffffffffffffff1673ffffffffffffffffffffffffffffffffffffffff168152602001908152602001600020905060008160000160009054906101000a900473ffffffffffffffffffffffffffffffffffffffff1673ffffffffffffffffffffffffffffffffffffffff1614151515610a5857fe5b600460008673ffffffffffffffffffffffffffffffffffffffff1673ffffffffffffffffffffffffffffffffffffffff168152602001908152602001600020925083600460008673ffffffffffffffffffffffffffffffffffffffff1673ffffffffffffffffffffffffffffffffffffffff16815260200190815260200160002060000160006101000a81548173ffffffffffffffffffffffffffffffffffffffff021916908373ffffffffffffffffffffffffffffffffffffffff1602179055508260010154600460008673ffffffffffffffffffffffffffffffffffffffff1673ffffffffffffffffffffffffffffffffffffffff168152602001908152602001600020600101819055508260020154600460008673ffffffffffffffffffffffffffffffffffffffff1673ffffffffffffffffffffffffffffffffffffffff16815260200190815260200160002060020181905550600460008673ffffffffffffffffffffffffffffffffffffffff1673ffffffffffffffffffffffffffffffffffffffff168152602001908152602001600020600080820160006101000a81549073ffffffffffffffffffffffffffffffffffffffff02191690556001820160009055600282016000905550505050505050565b600080336000600460008373ffffffffffffffffffffffffffffffffffffffff1673ffffffffffffffffffffffffffffffffffffffff168152602001908152602001600020905060008160000160009054906101000a900473ffffffffffffffffffffffffffffffffffffffff1673ffffffffffffffffffffffffffffffffffffffff1614151515610cbe57fe5b600460003373ffffffffffffffffffffffffffffffffffffffff1673ffffffffffffffffffffffffffffffffffffffff1681526020019081526020016000209350610d17601e856002015461182f90919063ffffffff16565b925042831115610d2657600080fd5b82600460003373ffffffffffffffffffffffffffffffffffffffff1673ffffffffffffffffffffffffffffffffffffffff16815260200190815260200160002060020181905550600460003373ffffffffffffffffffffffffffffffffffffffff1673ffffffffffffffffffffffffffffffffffffffff16815260200190815260200160002060000160009054906101000a900473ffffffffffffffffffffffffffffffffffffffff1673ffffffffffffffffffffffffffffffffffffffff166108fc85600101549081150290604051600060405180830381858888f193505050501515610e1357600080fd5b7f7decdec0fa70b21ecd45a15b04d5f5313c8fc915a1b3c034aa2bffa4fc8fc59133604051808273ffffffffffffffffffffffffffffffffffffffff1673ffffffffffffffffffffffffffffffffffffffff16815260200191505060405180910390a150505050565b60046020528060005260406000206000915090508060000160009054906101000a900473ffffffffffffffffffffffffffffffffffffffff16908060010154908060020154905083565b6000806000809054906101000a900473ffffffffffffffffffffffffffffffffffffffff1673ffffffffffffffffffffffffffffffffffffffff163373ffffffffffffffffffffffffffffffffffffffff16141515610f2457600080fd5b826000600460008373ffffffffffffffffffffffffffffffffffffffff1673ffffffffffffffffffffffffffffffffffffffff168152602001908152602001600020905060008160000160009054906101000a900473ffffffffffffffffffffffffffffffffffffffff1673ffffffffffffffffffffffffffffffffffffffff1614151515610faf57fe5b600460008673ffffffffffffffffffffffffffffffffffffffff1673ffffffffffffffffffffffffffffffffffffffff168152602001908152602001600020935061106f84606060405190810160405290816000820160009054906101000a900473ffffffffffffffffffffffffffffffffffffffff1673ffffffffffffffffffffffffffffffffffffffff1673ffffffffffffffffffffffffffffffffffffffff1681526020016001820154815260200160028201548152505061174f565b6110c6600460008773ffffffffffffffffffffffffffffffffffffffff1673ffffffffffffffffffffffffffffffffffffffff168152602001908152602001600020600101546001546117db90919063ffffffff16565b600181905550600460008673ffffffffffffffffffffffffffffffffffffffff1673ffffffffffffffffffffffffffffffffffffffff168152602001908152602001600020600080820160006101000a81549073ffffffffffffffffffffffffffffffffffffffff021916905560018201600090556002820160009055505061115b60016002546117db90919063ffffffff16565b60028190555061116a8561184d565b925061118560016003805490506117db90919063ffffffff16565b8314156111ce5760038381548110151561119b57fe5b906000526020600020900160006101000a81549073ffffffffffffffffffffffffffffffffffffffff021916905561127a565b60036111e960016003805490506117db90919063ffffffff16565b8154811015156111f557fe5b906000526020600020900160009054906101000a900473ffffffffffffffffffffffffffffffffffffffff1660038481548110151561123057fe5b906000526020600020900160006101000a81548173ffffffffffffffffffffffffffffffffffffffff021916908373ffffffffffffffffffffffffffffffffffffffff1602179055505b61129360016003805490506117db90919063ffffffff16565b6003816112a091906118f9565b507f52d6abdca596d1c4a93f3df131dcf3a55ecaaa92ab3a0be58a15b98aab12d49b85604051808273ffffffffffffffffffffffffffffffffffffffff1673ffffffffffffffffffffffffffffffffffffffff16815260200191505060405180910390a15050505050565b6000806000809054906101000a900473ffffffffffffffffffffffffffffffffffffffff1673ffffffffffffffffffffffffffffffffffffffff163373ffffffffffffffffffffffffffffffffffffffff1614151561136957600080fd5b600460008573ffffffffffffffffffffffffffffffffffffffff1673ffffffffffffffffffffffffffffffffffffffff168152602001908152602001600020915060008260000160009054906101000a900473ffffffffffffffffffffffffffffffffffffffff1673ffffffffffffffffffffffffffffffffffffffff161415156113f057fe5b61140b670de0b6b3a7640000846117f490919063ffffffff16565b90506114228160015461182f90919063ffffffff16565b6001819055506060604051908101604052808573ffffffffffffffffffffffffffffffffffffffff16815260200182815260200142815250600460008673ffffffffffffffffffffffffffffffffffffffff1673ffffffffffffffffffffffffffffffffffffffff16815260200190815260200160002060008201518160000160006101000a81548173ffffffffffffffffffffffffffffffffffffffff021916908373ffffffffffffffffffffffffffffffffffffffff160217905550602082015181600101556040820151816002015590505061150d600160025461182f90919063ffffffff16565b600281905550600380548060010182816115279190611925565b9160005260206000209001600086909190916101000a81548173ffffffffffffffffffffffffffffffffffffffff021916908373ffffffffffffffffffffffffffffffffffffffff160217905550507f781b18cb87f69da304aa6a3ffdd3af7b95e6a6f8d000e3abb3dfde21cbe5810384604051808273ffffffffffffffffffffffffffffffffffffffff1673ffffffffffffffffffffffffffffffffffffffff16815260200191505060405180910390a150505050565b6000809054906101000a900473ffffffffffffffffffffffffffffffffffffffff1673ffffffffffffffffffffffffffffffffffffffff163373ffffffffffffffffffffffffffffffffffffffff1614151561163a57600080fd5b600073ffffffffffffffffffffffffffffffffffffffff168173ffffffffffffffffffffffffffffffffffffffff161415151561167657600080fd5b8073ffffffffffffffffffffffffffffffffffffffff166000809054906101000a900473ffffffffffffffffffffffffffffffffffffffff1673ffffffffffffffffffffffffffffffffffffffff167f8be0079c531659141344cd1fd0a4f28419497f9722a3daafe3b4186f6b6457e060405160405180910390a3806000806101000a81548173ffffffffffffffffffffffffffffffffffffffff021916908373ffffffffffffffffffffffffffffffffffffffff16021790555050565b600080828481151561174257fe5b0490508091505092915050565b6000611791601e6117836117708560400151426117db90919063ffffffff16565b85602001516117f490919063ffffffff16565b61173490919063ffffffff16565b9050816000015173ffffffffffffffffffffffffffffffffffffffff166108fc829081150290604051600060405180830381858888f1935050505015156117d757600080fd5b5050565b60008282111515156117e957fe5b818303905092915050565b60008060008414156118095760009150611828565b828402905082848281151561181a57fe5b0414151561182457fe5b8091505b5092915050565b600080828401905083811015151561184357fe5b8091505092915050565b60008060009050600090505b6003805490508160ff1610156118f2578273ffffffffffffffffffffffffffffffffffffffff1660038260ff1681548110151561189257fe5b906000526020600020900160009054906101000a900473ffffffffffffffffffffffffffffffffffffffff1673ffffffffffffffffffffffffffffffffffffffff1614156118e5578060ff1691506118f3565b8080600101915050611859565b5b50919050565b8154818355818115116119205781836000526020600020918201910161191f9190611951565b5b505050565b81548183558181151161194c5781836000526020600020918201910161194b9190611951565b5b505050565b61197391905b8082111561196f576000816000905550600101611957565b5090565b905600a165627a7a7230582043fec5a2bc00e0cdefb679ec6a55e75a38b9dce2c2577a0108d062745609d9ef0029",
  "source": "pragma solidity ^0.4.14;\n\nimport \"zeppelin-solidity/contracts/math/SafeMath.sol\";\nimport \"zeppelin-solidity/contracts/ownership/Ownable.sol\";\n\n/**\n * The Payroll contract does this and that...\n */\ncontract Payroll is Ownable {\n\n\tusing SafeMath for uint;\n\n\tuint totalSalary;\n\tuint totalEmployee;\n\n\tstruct Employee {\n\t\taddress addr;\n\t\tuint salary;\n\t\tuint lastPayDay;\n\t}\n\n\taddress[] employeeList;\n\n\tmapping (address => Employee) public employees;\n\t\n\n\tuint constant payDuration = 30 seconds;\n\n\t// 定义事件\n\tevent AddEmployee(address employeeAddr);\n\tevent UpdateEmployee(address employeeAddr);\n\tevent RemoveEmployee(address employeeAddr);\n\tevent AddFund(uint balance);\n\tevent GetPaid(address employeeAddr);\n\n\t/**\n\t * 是否存在指定雇员\n\t */\n\tmodifier employeeExist(address _employeeAddr) { \n\t\t// 寻找指定雇员\n\t\tvar employee = employees[_employeeAddr];\n\t\t// 当返回空 则表示不存在\n\t\tassert(employee.addr != 0x0);\t\n\t\t_; \n\t}\n\n\t/**\n\t * 添加余额\n\t */\n\tfunction addFund() payable public returns(uint) {\n\t\tAddFund(this.balance);\n\t\treturn this.balance;\n\t}\n\n\t/**\n\t * 支付剩余薪水\n\t */\n\tfunction _partialPaid(Employee _employee) private {\n\t\t\n\t\tuint payment = _employee.salary.mul(now.sub(_employee.lastPayDay)).div(payDuration);\n\t\t_employee.addr.transfer(payment);\n\t}\t\n\n\t/**\n\t * 获取index\n\t */\n\tfunction _getEmployeeIndex(address _employeeAddr) private returns (uint index) {\n\t\tvar i = 0;\n\t\tfor (i = 0; i < employeeList.length; i++) {\n\t\t\tif (employeeList[i] == _employeeAddr) {\n\t\t\t\treturn i;\n\t\t\t} \n\t\t}\n\t}\n\n\t/**\n\t * 添加雇员\n\t */\n\tfunction addEmployee(address _employeeAddr, uint _salary) public onlyOwner {\n\n\t\t// 寻找指定雇员\n\t\tvar employee = employees[_employeeAddr];\n\n\t\t// 当返回空 则表示不存在\n\t\tassert(employee.addr == 0x0);\n\n\t\t// 添加雇员\n\t\tuint salary = _salary.mul(1 ether);\n\t\ttotalSalary = totalSalary.add(salary);\n\t\temployees[_employeeAddr] = Employee(_employeeAddr, salary, now);\n\t\ttotalEmployee = totalEmployee.add(1);\n\t\temployeeList.push(_employeeAddr);\n\t\tAddEmployee(_employeeAddr);\n\t} \t\n\n\t/**\n\t * 获取雇员工资\n\t */\n\tfunction getEmployee(address _employeeAddr) view public returns(uint) {\n\n\t\treturn employees[_employeeAddr].salary;\n\t}\n\n\t/**\n\t * 获取员工薪水\n\t */\n\tfunction checkEmployee(uint index) public view returns (address employeeAddr, uint salary, uint lastPayDay) {\n\n\t\temployeeAddr = employeeList[index];\n\t\tvar employee = employees[employeeAddr];\n\t\tsalary = employee.salary;\n\t\tlastPayDay = employee.lastPayDay;\n\t}\n\n\t/**\n\t * 移除雇员\n\t */\n\tfunction removeEmployee(address _employeeAddr) public onlyOwner employeeExist(_employeeAddr) {\n\n        var employee = employees[_employeeAddr];\n\n\t\t// 支付剩余薪水\n\t\t_partialPaid(employee);\n\n\t\ttotalSalary = totalSalary.sub(employees[_employeeAddr].salary);\n\t\t\n\t\t// 移除雇员\n\t\tdelete employees[_employeeAddr];\n\t\ttotalEmployee = totalEmployee.sub(1);\n\t\tvar index = _getEmployeeIndex(_employeeAddr);\n\t\t\n\t\tif (index == employeeList.length.sub(1)) {\n\t\t\tdelete employeeList[index];\n\t\t} else {\n\t\t\temployeeList[index] = employeeList[employeeList.length.sub(1)];\n\t\t}\n\t\temployeeList.length = employeeList.length.sub(1);\n\t\tRemoveEmployee(_employeeAddr);\n\t}\n\n\t/**\n\t * 更新员工薪水\n\t */\n\tfunction updateEmployee(address _employeeAddr, uint _salary) public onlyOwner employeeExist(_employeeAddr) {\n\n        var employee = employees[_employeeAddr];\n\n\t\t// 支付剩余薪水\n\t\t_partialPaid(employee);\n\t\ttotalSalary = totalSalary.sub(employee.salary);\n\n\t\t// 更新员工数据\n\t\temployees[_employeeAddr].salary \t= _salary.mul(1 ether);\n\t\temployees[_employeeAddr].lastPayDay = now;\n\t\ttotalSalary = totalSalary.add(employee.salary);\n\t\tUpdateEmployee(_employeeAddr);\n\t}\n\n\t/**\n\t * 更新员工收取工资地址\n\t */\n\tfunction changePaymentAddress(address _oldAddr, address _newAddr) public onlyOwner employeeExist(_oldAddr) {\n\n\t\tvar employee \t\t\t\t\t= employees[_oldAddr];\n\t\temployees[_newAddr].addr \t\t= _newAddr;\n\t\temployees[_newAddr].salary \t\t= employee.salary;\n\t\temployees[_newAddr].lastPayDay \t= employee.lastPayDay;\n\t\tdelete employees[_oldAddr];\n\t}\n\n\t/**\n\t * 计算能够发送多久的薪水\n\t */\n\tfunction calculateRunway() public view returns (uint) {\n\n\t\treturn this.balance.div(totalSalary);\n\t}\t\n\n\t/**\n\t * 是否有足够的余额发送薪水\n\t */\n\tfunction hasEnoughFund() public view returns (bool) {\n\t\treturn calculateRunway() > 0;\n\t}\t\n\n\t/**\n\t * 领取薪水\n\t */\n\tfunction getPaid() public employeeExist(msg.sender) {\n        \n        var employee \t= employees[msg.sender];\n        \n\t\tuint nextPayDay = employee.lastPayDay.add(payDuration);\n\n\t\tif (nextPayDay > now) {\n\t\t\trevert();\n\t\t}\n\t\t\n\t\temployees[msg.sender].lastPayDay = nextPayDay; \n\t\temployees[msg.sender].addr.transfer(employee.salary);\n\t\tGetPaid(msg.sender);\n\t}\n\n\t/**\n\t * 获取合约信息\n\t */\n\tfunction getInfo() public view returns(uint balance, uint runway, uint employeeCount) {\n\n\t\tbalance = this.balance;\n\t\temployeeCount = totalEmployee;\n\n\t\tif (totalSalary > 0) {\n\t\t\trunway = calculateRunway();\n\t\t}\n\t}\n}",
  "sourcePath": "/Users/2liang/Code/blockchain/guigulive-operation/lesson5/contracts/Payroll.sol",
  "compiler": {
    "name": "solc",
    "version": "0.4.18+commit.9cf6e910.Emscripten.clang"
  },
  "schemaVersion": "1.0.1",
  "updatedAt": "2018-01-27T05:55:10.121Z"
}