{
  "contractName": "Payroll",
  "abi": [
    {
      "constant": true,
      "inputs": [],
      "name": "hasEnoughFund",
      "outputs": [
        {
          "name": "",
          "type": "bool"
        }
      ],
      "payable": false,
      "stateMutability": "view",
      "type": "function"
    },
    {
      "constant": true,
      "inputs": [
        {
          "name": "_employeeAddr",
          "type": "address"
        }
      ],
      "name": "getEmployee",
      "outputs": [
        {
          "name": "",
          "type": "uint256"
        }
      ],
      "payable": false,
      "stateMutability": "view",
      "type": "function"
    },
    {
      "constant": true,
      "inputs": [],
      "name": "calculateRunway",
      "outputs": [
        {
          "name": "",
          "type": "uint256"
        }
      ],
      "payable": false,
      "stateMutability": "view",
      "type": "function"
    },
    {
      "constant": false,
      "inputs": [
        {
          "name": "_employeeAddr",
          "type": "address"
        },
        {
          "name": "_salary",
          "type": "uint256"
        }
      ],
      "name": "updateEmployee",
      "outputs": [],
      "payable": false,
      "stateMutability": "nonpayable",
      "type": "function"
    },
    {
      "constant": true,
      "inputs": [],
      "name": "owner",
      "outputs": [
        {
          "name": "",
          "type": "address"
        }
      ],
      "payable": false,
      "stateMutability": "view",
      "type": "function"
    },
    {
      "constant": false,
      "inputs": [],
      "name": "addFund",
      "outputs": [
        {
          "name": "",
          "type": "uint256"
        }
      ],
      "payable": true,
      "stateMutability": "payable",
      "type": "function"
    },
    {
      "constant": false,
      "inputs": [
        {
          "name": "_oldAddr",
          "type": "address"
        },
        {
          "name": "_newAddr",
          "type": "address"
        }
      ],
      "name": "changePaymentAddress",
      "outputs": [],
      "payable": false,
      "stateMutability": "nonpayable",
      "type": "function"
    },
    {
      "constant": false,
      "inputs": [],
      "name": "getPaid",
      "outputs": [],
      "payable": false,
      "stateMutability": "nonpayable",
      "type": "function"
    },
    {
      "constant": true,
      "inputs": [
        {
          "name": "",
          "type": "address"
        }
      ],
      "name": "employees",
      "outputs": [
        {
          "name": "addr",
          "type": "address"
        },
        {
          "name": "salary",
          "type": "uint256"
        },
        {
          "name": "lastPayDay",
          "type": "uint256"
        }
      ],
      "payable": false,
      "stateMutability": "view",
      "type": "function"
    },
    {
      "constant": false,
      "inputs": [
        {
          "name": "_employeeAddr",
          "type": "address"
        }
      ],
      "name": "removeEmployee",
      "outputs": [],
      "payable": false,
      "stateMutability": "nonpayable",
      "type": "function"
    },
    {
      "constant": false,
      "inputs": [
        {
          "name": "_employeeAddr",
          "type": "address"
        },
        {
          "name": "_salary",
          "type": "uint256"
        }
      ],
      "name": "addEmployee",
      "outputs": [],
      "payable": false,
      "stateMutability": "nonpayable",
      "type": "function"
    },
    {
      "constant": false,
      "inputs": [
        {
          "name": "newOwner",
          "type": "address"
        }
      ],
      "name": "transferOwnership",
      "outputs": [],
      "payable": false,
      "stateMutability": "nonpayable",
      "type": "function"
    },
    {
      "anonymous": false,
      "inputs": [
        {
          "indexed": true,
          "name": "previousOwner",
          "type": "address"
        },
        {
          "indexed": true,
          "name": "newOwner",
          "type": "address"
        }
      ],
      "name": "OwnershipTransferred",
      "type": "event"
    }
  ],
  "bytecode": "0x6060604052336000806101000a81548173ffffffffffffffffffffffffffffffffffffffff021916908373ffffffffffffffffffffffffffffffffffffffff160217905550611336806100536000396000f3006060604052600436106100ba576000357c0100000000000000000000000000000000000000000000000000000000900463ffffffff16806323fed09e146100bf57806332648e09146100ec5780634ec19512146101395780635e91d8ec146101625780638da5cb5b146101a4578063a2f09dfa146101f9578063bc456c4214610217578063cf41d6f81461026f578063d067894714610284578063d108177a1461030b578063e7fd9a1314610344578063f2fde38b14610386575b600080fd5b34156100ca57600080fd5b6100d26103bf565b604051808215151515815260200191505060405180910390f35b34156100f757600080fd5b610123600480803573ffffffffffffffffffffffffffffffffffffffff169060200190919050506103d0565b6040518082815260200191505060405180910390f35b341561014457600080fd5b61014c61041c565b6040518082815260200191505060405180910390f35b341561016d57600080fd5b6101a2600480803573ffffffffffffffffffffffffffffffffffffffff1690602001909190803590602001909190505061044f565b005b34156101af57600080fd5b6101b76106ed565b604051808273ffffffffffffffffffffffffffffffffffffffff1673ffffffffffffffffffffffffffffffffffffffff16815260200191505060405180910390f35b610201610712565b6040518082815260200191505060405180910390f35b341561022257600080fd5b61026d600480803573ffffffffffffffffffffffffffffffffffffffff1690602001909190803573ffffffffffffffffffffffffffffffffffffffff16906020019091905050610731565b005b341561027a57600080fd5b6102826109f1565b005b341561028f57600080fd5b6102bb600480803573ffffffffffffffffffffffffffffffffffffffff16906020019091905050610bdb565b604051808473ffffffffffffffffffffffffffffffffffffffff1673ffffffffffffffffffffffffffffffffffffffff168152602001838152602001828152602001935050505060405180910390f35b341561031657600080fd5b610342600480803573ffffffffffffffffffffffffffffffffffffffff16906020019091905050610c25565b005b341561034f57600080fd5b610384600480803573ffffffffffffffffffffffffffffffffffffffff16906020019091908035906020019091905050610ea9565b005b341561039157600080fd5b6103bd600480803573ffffffffffffffffffffffffffffffffffffffff1690602001909190505061109b565b005b6000806103ca61041c565b11905090565b6000600260008373ffffffffffffffffffffffffffffffffffffffff1673ffffffffffffffffffffffffffffffffffffffff168152602001908152602001600020600101549050919050565b600061044a6001543073ffffffffffffffffffffffffffffffffffffffff16316111f090919063ffffffff16565b905090565b60008060009054906101000a900473ffffffffffffffffffffffffffffffffffffffff1673ffffffffffffffffffffffffffffffffffffffff163373ffffffffffffffffffffffffffffffffffffffff161415156104ac57600080fd5b826000600260008373ffffffffffffffffffffffffffffffffffffffff1673ffffffffffffffffffffffffffffffffffffffff168152602001908152602001600020905060008160000160009054906101000a900473ffffffffffffffffffffffffffffffffffffffff1673ffffffffffffffffffffffffffffffffffffffff161415151561053757fe5b600260008673ffffffffffffffffffffffffffffffffffffffff1673ffffffffffffffffffffffffffffffffffffffff16815260200190815260200160002092506105f783606060405190810160405290816000820160009054906101000a900473ffffffffffffffffffffffffffffffffffffffff1673ffffffffffffffffffffffffffffffffffffffff1673ffffffffffffffffffffffffffffffffffffffff1681526020016001820154815260200160028201548152505061120b565b610610836001015460015461129890919063ffffffff16565b60016000828254039250508190555061063a670de0b6b3a7640000856112b190919063ffffffff16565b600260008773ffffffffffffffffffffffffffffffffffffffff1673ffffffffffffffffffffffffffffffffffffffff1681526020019081526020016000206001018190555042600260008773ffffffffffffffffffffffffffffffffffffffff1673ffffffffffffffffffffffffffffffffffffffff168152602001908152602001600020600201819055506106e083600101546001546112ec90919063ffffffff16565b6001819055505050505050565b6000809054906101000a900473ffffffffffffffffffffffffffffffffffffffff1681565b60003073ffffffffffffffffffffffffffffffffffffffff1631905090565b60008060009054906101000a900473ffffffffffffffffffffffffffffffffffffffff1673ffffffffffffffffffffffffffffffffffffffff163373ffffffffffffffffffffffffffffffffffffffff1614151561078e57600080fd5b826000600260008373ffffffffffffffffffffffffffffffffffffffff1673ffffffffffffffffffffffffffffffffffffffff168152602001908152602001600020905060008160000160009054906101000a900473ffffffffffffffffffffffffffffffffffffffff1673ffffffffffffffffffffffffffffffffffffffff161415151561081957fe5b600260008673ffffffffffffffffffffffffffffffffffffffff1673ffffffffffffffffffffffffffffffffffffffff168152602001908152602001600020925083600260008673ffffffffffffffffffffffffffffffffffffffff1673ffffffffffffffffffffffffffffffffffffffff16815260200190815260200160002060000160006101000a81548173ffffffffffffffffffffffffffffffffffffffff021916908373ffffffffffffffffffffffffffffffffffffffff1602179055508260010154600260008673ffffffffffffffffffffffffffffffffffffffff1673ffffffffffffffffffffffffffffffffffffffff168152602001908152602001600020600101819055508260020154600260008673ffffffffffffffffffffffffffffffffffffffff1673ffffffffffffffffffffffffffffffffffffffff16815260200190815260200160002060020181905550600260008673ffffffffffffffffffffffffffffffffffffffff1673ffffffffffffffffffffffffffffffffffffffff168152602001908152602001600020600080820160006101000a81549073ffffffffffffffffffffffffffffffffffffffff02191690556001820160009055600282016000905550505050505050565b600080336000600260008373ffffffffffffffffffffffffffffffffffffffff1673ffffffffffffffffffffffffffffffffffffffff168152602001908152602001600020905060008160000160009054906101000a900473ffffffffffffffffffffffffffffffffffffffff1673ffffffffffffffffffffffffffffffffffffffff1614151515610a7f57fe5b600260003373ffffffffffffffffffffffffffffffffffffffff1673ffffffffffffffffffffffffffffffffffffffff1681526020019081526020016000209350610ad961012c85600201546112ec90919063ffffffff16565b925042831115610ae857600080fd5b82600260003373ffffffffffffffffffffffffffffffffffffffff1673ffffffffffffffffffffffffffffffffffffffff16815260200190815260200160002060020181905550600260003373ffffffffffffffffffffffffffffffffffffffff1673ffffffffffffffffffffffffffffffffffffffff16815260200190815260200160002060000160009054906101000a900473ffffffffffffffffffffffffffffffffffffffff1673ffffffffffffffffffffffffffffffffffffffff166108fc85600101549081150290604051600060405180830381858888f193505050501515610bd557600080fd5b50505050565b60026020528060005260406000206000915090508060000160009054906101000a900473ffffffffffffffffffffffffffffffffffffffff16908060010154908060020154905083565b60008060009054906101000a900473ffffffffffffffffffffffffffffffffffffffff1673ffffffffffffffffffffffffffffffffffffffff163373ffffffffffffffffffffffffffffffffffffffff16141515610c8257600080fd5b816000600260008373ffffffffffffffffffffffffffffffffffffffff1673ffffffffffffffffffffffffffffffffffffffff168152602001908152602001600020905060008160000160009054906101000a900473ffffffffffffffffffffffffffffffffffffffff1673ffffffffffffffffffffffffffffffffffffffff1614151515610d0d57fe5b600260008573ffffffffffffffffffffffffffffffffffffffff1673ffffffffffffffffffffffffffffffffffffffff1681526020019081526020016000209250610dcd83606060405190810160405290816000820160009054906101000a900473ffffffffffffffffffffffffffffffffffffffff1673ffffffffffffffffffffffffffffffffffffffff1673ffffffffffffffffffffffffffffffffffffffff1681526020016001820154815260200160028201548152505061120b565b610e24600260008673ffffffffffffffffffffffffffffffffffffffff1673ffffffffffffffffffffffffffffffffffffffff1681526020019081526020016000206001015460015461129890919063ffffffff16565b600181905550600260008573ffffffffffffffffffffffffffffffffffffffff1673ffffffffffffffffffffffffffffffffffffffff168152602001908152602001600020600080820160006101000a81549073ffffffffffffffffffffffffffffffffffffffff021916905560018201600090556002820160009055505050505050565b6000806000809054906101000a900473ffffffffffffffffffffffffffffffffffffffff1673ffffffffffffffffffffffffffffffffffffffff163373ffffffffffffffffffffffffffffffffffffffff16141515610f0757600080fd5b600260008573ffffffffffffffffffffffffffffffffffffffff1673ffffffffffffffffffffffffffffffffffffffff168152602001908152602001600020915060008260000160009054906101000a900473ffffffffffffffffffffffffffffffffffffffff1673ffffffffffffffffffffffffffffffffffffffff16141515610f8e57fe5b610fa9670de0b6b3a7640000846112b190919063ffffffff16565b9050610fc0816001546112ec90919063ffffffff16565b6001819055506060604051908101604052808573ffffffffffffffffffffffffffffffffffffffff16815260200182815260200142815250600260008673ffffffffffffffffffffffffffffffffffffffff1673ffffffffffffffffffffffffffffffffffffffff16815260200190815260200160002060008201518160000160006101000a81548173ffffffffffffffffffffffffffffffffffffffff021916908373ffffffffffffffffffffffffffffffffffffffff160217905550602082015181600101556040820151816002015590505050505050565b6000809054906101000a900473ffffffffffffffffffffffffffffffffffffffff1673ffffffffffffffffffffffffffffffffffffffff163373ffffffffffffffffffffffffffffffffffffffff161415156110f657600080fd5b600073ffffffffffffffffffffffffffffffffffffffff168173ffffffffffffffffffffffffffffffffffffffff161415151561113257600080fd5b8073ffffffffffffffffffffffffffffffffffffffff166000809054906101000a900473ffffffffffffffffffffffffffffffffffffffff1673ffffffffffffffffffffffffffffffffffffffff167f8be0079c531659141344cd1fd0a4f28419497f9722a3daafe3b4186f6b6457e060405160405180910390a3806000806101000a81548173ffffffffffffffffffffffffffffffffffffffff021916908373ffffffffffffffffffffffffffffffffffffffff16021790555050565b60008082848115156111fe57fe5b0490508091505092915050565b600061124e61012c61124061122d85604001514261129890919063ffffffff16565b85602001516112b190919063ffffffff16565b6111f090919063ffffffff16565b9050816000015173ffffffffffffffffffffffffffffffffffffffff166108fc829081150290604051600060405180830381858888f19350505050151561129457600080fd5b5050565b60008282111515156112a657fe5b818303905092915050565b60008060008414156112c657600091506112e5565b82840290508284828115156112d757fe5b041415156112e157fe5b8091505b5092915050565b600080828401905083811015151561130057fe5b80915050929150505600a165627a7a7230582018d38ee3f603d4388db4cbb31c229ec89ed8290504f2024bece2f8bc03423ab50029",
  "source": "pragma solidity ^0.4.14;\n\nimport \"zeppelin-solidity/contracts/math/SafeMath.sol\";\nimport \"zeppelin-solidity/contracts/ownership/Ownable.sol\";\n\n/**\n * The Payroll contract does this and that...\n */\ncontract Payroll is Ownable {\n\n\tusing SafeMath for uint;\n\n\tuint totalSalary;\n\n\tstruct Employee {\n\t\taddress addr;\n\t\tuint salary;\n\t\tuint lastPayDay;\n\t}\n\n\tmapping (address => Employee) public employees;\n\t\n\n\tuint constant payDuration = 5 minutes;\n\n\t/**\n\t * 是否存在指定雇员\n\t */\n\tmodifier employeeExist(address _employeeAddr) { \n\t\t// 寻找指定雇员\n\t\tvar employee = employees[_employeeAddr];\n\t\t// 当返回空 则表示不存在\n\t\tassert(employee.addr != 0x0);\t\n\t\t_; \n\t}\n\n\t/**\n\t * 添加余额\n\t */\n\tfunction addFund() payable public returns(uint) {\n\t\treturn this.balance;\n\t}\n\n\t/**\n\t * 支付剩余薪水\n\t */\n\tfunction _partialPaid(Employee _employee) private {\n\t\t\n\t\tuint payment = _employee.salary.mul(now.sub(_employee.lastPayDay)).div(payDuration);\n\t\t_employee.addr.transfer(payment);\n\t}\t\n\n\t/**\n\t * 添加雇员\n\t */\n\tfunction addEmployee(address _employeeAddr, uint _salary) public onlyOwner {\n\n\t\t// 寻找指定雇员\n\t\tvar employee = employees[_employeeAddr];\n\n\t\t// 当返回空 则表示不存在\n\t\tassert(employee.addr == 0x0);\n\n\t\t// 添加雇员\n\t\tuint salary = _salary.mul(1 ether);\n\t\ttotalSalary = totalSalary.add(salary);\n\t\temployees[_employeeAddr] = Employee(_employeeAddr, salary, now);\n\t} \t\n\n\t/**\n\t * 获取雇员工资\n\t */\n\tfunction getEmployee(address _employeeAddr) view public returns(uint) {\n\n\t\treturn employees[_employeeAddr].salary;\n\t}\n\n\t/**\n\t * 移除雇员\n\t */\n\tfunction removeEmployee(address _employeeAddr) public onlyOwner employeeExist(_employeeAddr) {\n\n        var employee = employees[_employeeAddr];\n\n\t\t// 支付剩余薪水\n\t\t_partialPaid(employee);\n\n\t\ttotalSalary = totalSalary.sub(employees[_employeeAddr].salary);\n\t\t\n\t\t// 移除雇员\n\t\tdelete employees[_employeeAddr];\n\t}\n\n\t/**\n\t * 更新员工薪水\n\t */\n\tfunction updateEmployee(address _employeeAddr, uint _salary) public onlyOwner employeeExist(_employeeAddr) {\n\n        var employee = employees[_employeeAddr];\n\n\t\t// 支付剩余薪水\n\t\t_partialPaid(employee);\n\t\ttotalSalary -= totalSalary.sub(employee.salary);\n\n\t\t// 更新员工数据\n\t\temployees[_employeeAddr].salary \t= _salary.mul(1 ether);\n\t\temployees[_employeeAddr].lastPayDay = now;\n\t\ttotalSalary = totalSalary.add(employee.salary);\n\t\treturn;\n\t}\n\n\t/**\n\t * 更新员工收取工资地址\n\t */\n\tfunction changePaymentAddress(address _oldAddr, address _newAddr) public onlyOwner employeeExist(_oldAddr) {\n\n\t\tvar employee \t\t\t\t\t= employees[_oldAddr];\n\t\temployees[_newAddr].addr \t\t= _newAddr;\n\t\temployees[_newAddr].salary \t\t= employee.salary;\n\t\temployees[_newAddr].lastPayDay \t= employee.lastPayDay;\n\t\tdelete employees[_oldAddr];\n\t}\n\n\t/**\n\t * 计算能够发送多久的薪水\n\t */\n\tfunction calculateRunway() public view returns (uint) {\n\n\t\treturn this.balance.div(totalSalary);\n\t}\t\n\n\t/**\n\t * 是否有足够的余额发送薪水\n\t */\n\tfunction hasEnoughFund() public view returns (bool) {\n\t\treturn calculateRunway() > 0;\n\t}\t\n\n\t/**\n\t * 领取薪水\n\t */\n\tfunction getPaid() public employeeExist(msg.sender) {\n        \n        var employee \t= employees[msg.sender];\n        \n\t\tuint nextPayDay = employee.lastPayDay.add(payDuration);\n\n\t\tif (nextPayDay > now) {\n\t\t\trevert();\n\t\t}\n\n\t\temployees[msg.sender].lastPayDay = nextPayDay; \n\t\temployees[msg.sender].addr.transfer(employee.salary);\n\t}\n}",
  "sourcePath": "/Users/2liang/Code/blockchain/guigulive-operation/lesson4/contracts/Payroll.sol",
  "compiler": {
    "name": "solc",
    "version": "0.4.18+commit.9cf6e910.Emscripten.clang"
  },
  "schemaVersion": "1.0.1",
  "updatedAt": "2018-01-19T15:08:55.147Z"
}