{
  "contractName": "Payroll",
  "abi": [
    {
      "constant": false,
      "inputs": [],
      "name": "hasEnoughFund",
      "outputs": [
        {
          "name": "",
          "type": "bool"
        }
      ],
      "payable": false,
      "stateMutability": "nonpayable",
      "type": "function"
    },
    {
      "constant": false,
      "inputs": [],
      "name": "calculateRunway",
      "outputs": [
        {
          "name": "",
          "type": "uint256"
        }
      ],
      "payable": false,
      "stateMutability": "nonpayable",
      "type": "function"
    },
    {
      "constant": false,
      "inputs": [
        {
          "name": "employeeId",
          "type": "address"
        },
        {
          "name": "salary",
          "type": "uint256"
        }
      ],
      "name": "updateEmployee",
      "outputs": [],
      "payable": false,
      "stateMutability": "nonpayable",
      "type": "function"
    },
    {
      "constant": false,
      "inputs": [
        {
          "name": "newAddress",
          "type": "address"
        }
      ],
      "name": "changePaymentAddress",
      "outputs": [],
      "payable": false,
      "stateMutability": "nonpayable",
      "type": "function"
    },
    {
      "constant": false,
      "inputs": [
        {
          "name": "employeeId",
          "type": "address"
        }
      ],
      "name": "checkEmployee",
      "outputs": [
        {
          "name": "salary",
          "type": "uint256"
        },
        {
          "name": "lastPayday",
          "type": "uint256"
        }
      ],
      "payable": false,
      "stateMutability": "nonpayable",
      "type": "function"
    },
    {
      "constant": false,
      "inputs": [],
      "name": "addFund",
      "outputs": [
        {
          "name": "",
          "type": "uint256"
        }
      ],
      "payable": true,
      "stateMutability": "payable",
      "type": "function"
    },
    {
      "constant": false,
      "inputs": [],
      "name": "getPaid",
      "outputs": [],
      "payable": false,
      "stateMutability": "nonpayable",
      "type": "function"
    },
    {
      "constant": true,
      "inputs": [
        {
          "name": "",
          "type": "address"
        }
      ],
      "name": "employees",
      "outputs": [
        {
          "name": "id",
          "type": "address"
        },
        {
          "name": "salary",
          "type": "uint256"
        },
        {
          "name": "lastPayday",
          "type": "uint256"
        }
      ],
      "payable": false,
      "stateMutability": "view",
      "type": "function"
    },
    {
      "constant": false,
      "inputs": [
        {
          "name": "employeeId",
          "type": "address"
        }
      ],
      "name": "removeEmployee",
      "outputs": [],
      "payable": false,
      "stateMutability": "nonpayable",
      "type": "function"
    },
    {
      "constant": false,
      "inputs": [
        {
          "name": "employeeId",
          "type": "address"
        }
      ],
      "name": "findEmployee",
      "outputs": [
        {
          "components": [
            {
              "name": "id",
              "type": "address"
            },
            {
              "name": "salary",
              "type": "uint256"
            },
            {
              "name": "lastPayday",
              "type": "uint256"
            }
          ],
          "name": "",
          "type": "tuple"
        }
      ],
      "payable": false,
      "stateMutability": "nonpayable",
      "type": "function"
    },
    {
      "constant": false,
      "inputs": [
        {
          "name": "employeeId",
          "type": "address"
        },
        {
          "name": "salary",
          "type": "uint256"
        }
      ],
      "name": "addEmployee",
      "outputs": [],
      "payable": false,
      "stateMutability": "nonpayable",
      "type": "function"
    },
    {
      "inputs": [],
      "payable": false,
      "stateMutability": "nonpayable",
      "type": "constructor"
    }
  ],
  "bytecode": "0x6060604052341561000f57600080fd5b33600160006101000a81548173ffffffffffffffffffffffffffffffffffffffff021916908373ffffffffffffffffffffffffffffffffffffffff1602179055506110de8061005f6000396000f3006060604052600436106100af576000357c0100000000000000000000000000000000000000000000000000000000900463ffffffff16806323fed09e146100b45780634ec19512146100e15780635e91d8ec1461010a5780637124d6131461014c5780637cf562b714610185578063a2f09dfa146101d9578063cf41d6f8146101f7578063d06789471461020c578063d108177a14610293578063e68bef20146102cc578063e7fd9a1314610319575b600080fd5b34156100bf57600080fd5b6100c761035b565b604051808215151515815260200191505060405180910390f35b34156100ec57600080fd5b6100f4610381565b6040518082815260200191505060405180910390f35b341561011557600080fd5b61014a600480803573ffffffffffffffffffffffffffffffffffffffff169060200190919080359060200190919050506103bb565b005b341561015757600080fd5b610183600480803573ffffffffffffffffffffffffffffffffffffffff169060200190919050506105a9565b005b341561019057600080fd5b6101bc600480803573ffffffffffffffffffffffffffffffffffffffff16906020019091905050610859565b604051808381526020018281526020019250505060405180910390f35b6101e16108b3565b6040518082815260200191505060405180910390f35b341561020257600080fd5b61020a6108d2565b005b341561021757600080fd5b610243600480803573ffffffffffffffffffffffffffffffffffffffff16906020019091905050610a6b565b604051808473ffffffffffffffffffffffffffffffffffffffff1673ffffffffffffffffffffffffffffffffffffffff168152602001838152602001828152602001935050505060405180910390f35b341561029e57600080fd5b6102ca600480803573ffffffffffffffffffffffffffffffffffffffff16906020019091905050610ab5565b005b34156102d757600080fd5b610303600480803573ffffffffffffffffffffffffffffffffffffffff16906020019091905050610cf0565b6040518082815260200191505060405180910390f35b341561032457600080fd5b610359600480803573ffffffffffffffffffffffffffffffffffffffff16906020019091908035906020019091905050610e41565b005b6000806000541415610370576001905061037e565b600061037a610381565b1190505b90565b6000806000541415151561039157fe5b6000543073ffffffffffffffffffffffffffffffffffffffff16318115156103b557fe5b04905090565b6000600160009054906101000a900473ffffffffffffffffffffffffffffffffffffffff1673ffffffffffffffffffffffffffffffffffffffff163373ffffffffffffffffffffffffffffffffffffffff1614151561041957600080fd5b826000600260008373ffffffffffffffffffffffffffffffffffffffff1673ffffffffffffffffffffffffffffffffffffffff168152602001908152602001600020905060008160000160009054906101000a900473ffffffffffffffffffffffffffffffffffffffff1673ffffffffffffffffffffffffffffffffffffffff16141515156104a457fe5b600260008673ffffffffffffffffffffffffffffffffffffffff1673ffffffffffffffffffffffffffffffffffffffff168152602001908152602001600020925061056483606060405190810160405290816000820160009054906101000a900473ffffffffffffffffffffffffffffffffffffffff1673ffffffffffffffffffffffffffffffffffffffff1673ffffffffffffffffffffffffffffffffffffffff16815260200160018201548152602001600282015481525050611015565b82600101546000808282540392505081905550670de0b6b3a7640000840260008082825401925050819055508383600101819055504283600201819055505050505050565b6000336000600260008373ffffffffffffffffffffffffffffffffffffffff1673ffffffffffffffffffffffffffffffffffffffff168152602001908152602001600020905060008160000160009054906101000a900473ffffffffffffffffffffffffffffffffffffffff1673ffffffffffffffffffffffffffffffffffffffff161415151561063657fe5b836000600260008373ffffffffffffffffffffffffffffffffffffffff1673ffffffffffffffffffffffffffffffffffffffff168152602001908152602001600020905060008160000160009054906101000a900473ffffffffffffffffffffffffffffffffffffffff1673ffffffffffffffffffffffffffffffffffffffff161415156106c057fe5b600260003373ffffffffffffffffffffffffffffffffffffffff1673ffffffffffffffffffffffffffffffffffffffff16815260200190815260200160002094506060604051908101604052808773ffffffffffffffffffffffffffffffffffffffff168152602001866001015481526020018660020154815250600260008873ffffffffffffffffffffffffffffffffffffffff1673ffffffffffffffffffffffffffffffffffffffff16815260200190815260200160002060008201518160000160006101000a81548173ffffffffffffffffffffffffffffffffffffffff021916908373ffffffffffffffffffffffffffffffffffffffff1602179055506020820151816001015560408201518160020155905050600260003373ffffffffffffffffffffffffffffffffffffffff1673ffffffffffffffffffffffffffffffffffffffff168152602001908152602001600020600080820160006101000a81549073ffffffffffffffffffffffffffffffffffffffff0219169055600182016000905560028201600090555050505050505050565b6000806000600260008573ffffffffffffffffffffffffffffffffffffffff1673ffffffffffffffffffffffffffffffffffffffff1681526020019081526020016000209050806001015492508060020154915050915091565b60003073ffffffffffffffffffffffffffffffffffffffff1631905090565b600080336000600260008373ffffffffffffffffffffffffffffffffffffffff1673ffffffffffffffffffffffffffffffffffffffff168152602001908152602001600020905060008160000160009054906101000a900473ffffffffffffffffffffffffffffffffffffffff1673ffffffffffffffffffffffffffffffffffffffff161415151561096057fe5b600260003373ffffffffffffffffffffffffffffffffffffffff1673ffffffffffffffffffffffffffffffffffffffff1681526020019081526020016000209350600a846002015401925042831015156109b657fe5b82600260003373ffffffffffffffffffffffffffffffffffffffff1673ffffffffffffffffffffffffffffffffffffffff168152602001908152602001600020600201819055508360000160009054906101000a900473ffffffffffffffffffffffffffffffffffffffff1673ffffffffffffffffffffffffffffffffffffffff166108fc85600101549081150290604051600060405180830381858888f193505050501515610a6557600080fd5b50505050565b60026020528060005260406000206000915090508060000160009054906101000a900473ffffffffffffffffffffffffffffffffffffffff16908060010154908060020154905083565b6000600160009054906101000a900473ffffffffffffffffffffffffffffffffffffffff1673ffffffffffffffffffffffffffffffffffffffff163373ffffffffffffffffffffffffffffffffffffffff16141515610b1357600080fd5b816000600260008373ffffffffffffffffffffffffffffffffffffffff1673ffffffffffffffffffffffffffffffffffffffff168152602001908152602001600020905060008160000160009054906101000a900473ffffffffffffffffffffffffffffffffffffffff1673ffffffffffffffffffffffffffffffffffffffff1614151515610b9e57fe5b600260008573ffffffffffffffffffffffffffffffffffffffff1673ffffffffffffffffffffffffffffffffffffffff1681526020019081526020016000209250610c5e83606060405190810160405290816000820160009054906101000a900473ffffffffffffffffffffffffffffffffffffffff1673ffffffffffffffffffffffffffffffffffffffff1673ffffffffffffffffffffffffffffffffffffffff16815260200160018201548152602001600282015481525050611015565b82600101546000808282540392505081905550600260008573ffffffffffffffffffffffffffffffffffffffff1673ffffffffffffffffffffffffffffffffffffffff168152602001908152602001600020600080820160006101000a81549073ffffffffffffffffffffffffffffffffffffffff021916905560018201600090556002820160009055505050505050565b610cf861107a565b816000600260008373ffffffffffffffffffffffffffffffffffffffff1673ffffffffffffffffffffffffffffffffffffffff168152602001908152602001600020905060008160000160009054906101000a900473ffffffffffffffffffffffffffffffffffffffff1673ffffffffffffffffffffffffffffffffffffffff1614151515610d8357fe5b600260008573ffffffffffffffffffffffffffffffffffffffff1673ffffffffffffffffffffffffffffffffffffffff168152602001908152602001600020606060405190810160405290816000820160009054906101000a900473ffffffffffffffffffffffffffffffffffffffff1673ffffffffffffffffffffffffffffffffffffffff1673ffffffffffffffffffffffffffffffffffffffff1681526020016001820154815260200160028201548152505092505050919050565b600160009054906101000a900473ffffffffffffffffffffffffffffffffffffffff1673ffffffffffffffffffffffffffffffffffffffff163373ffffffffffffffffffffffffffffffffffffffff16141515610e9d57600080fd5b816000600260008373ffffffffffffffffffffffffffffffffffffffff1673ffffffffffffffffffffffffffffffffffffffff168152602001908152602001600020905060008160000160009054906101000a900473ffffffffffffffffffffffffffffffffffffffff1673ffffffffffffffffffffffffffffffffffffffff16141515610f2757fe5b670de0b6b3a7640000830260008082825401925050819055506060604051908101604052808573ffffffffffffffffffffffffffffffffffffffff16815260200184815260200142815250600260008673ffffffffffffffffffffffffffffffffffffffff1673ffffffffffffffffffffffffffffffffffffffff16815260200190815260200160002060008201518160000160006101000a81548173ffffffffffffffffffffffffffffffffffffffff021916908373ffffffffffffffffffffffffffffffffffffffff160217905550602082015181600101556040820151816002015590505050505050565b6000600a8260400151420383602001510281151561102f57fe5b049050816000015173ffffffffffffffffffffffffffffffffffffffff166108fc829081150290604051600060405180830381858888f19350505050151561107657600080fd5b5050565b606060405190810160405280600073ffffffffffffffffffffffffffffffffffffffff168152602001600081526020016000815250905600a165627a7a723058202d3bf5b56694ff8b6b93c0dd30c4c87067d2282ef6ac2569d016da302d3ac8d20029",
  "source": "pragma solidity ^0.4.14;\n\ncontract Payroll {\n    struct Employee {\n        address id;\n        uint salary;\n        uint lastPayday;\n    }\n\n    uint constant payDuration = 10 seconds;\n    uint totalSalary;\n\n    address owner;\n    mapping(address => Employee) public employees; //Mapping\n\n    function Payroll() public {\n        owner = msg.sender;\n    }\n\n    // custom modifier\n    modifier onlyOwner {\n        require(msg.sender == owner);\n        _;\n    }\n    \n    // modifier with parameter\n    modifier employeeExist(address employeeId) {\n        var employee = employees[employeeId];\n        assert(employee.id != 0x0);\n        _;\n    }\n    \n     // modifier with parameter\n    modifier employeeNotExist(address employeeId) {\n        var employee = employees[employeeId];\n        assert(employee.id == 0x0);\n        _;\n    }\n\n    function _partialPaid(Employee employee) private {\n        uint payment = employee.salary * (now - employee.lastPayday) / payDuration;\n        employee.id.transfer(payment);\n    }\n\n    function addEmployee(address employeeId, uint salary) onlyOwner employeeNotExist(employeeId) public {\n        totalSalary += salary * 1 ether;\n        employees[employeeId] = Employee(employeeId, salary, now);\n    }\n\n    function removeEmployee(address employeeId) onlyOwner employeeExist(employeeId) public {\n        var employee = employees[employeeId];\n\n        _partialPaid(employee);\n        totalSalary -= employee.salary;\n        delete employees[employeeId];\n    }\n\n    function findEmployee(address employeeId) employeeExist(employeeId) public returns (Employee){\n        return employees[employeeId];\n    }\n\n    function updateEmployee(address employeeId, uint salary) onlyOwner employeeExist(employeeId) public {\n        var employee = employees[employeeId];\n        _partialPaid(employee);\n        totalSalary -= employee.salary;\n        totalSalary += salary * 1 ether; // Don't forget the unit\n        employee.salary = salary;\n        employee.lastPayday = now;\n    }\n\n    function addFund() payable public returns (uint) {\n        return this.balance;\n    }\n\n    function calculateRunway() public returns (uint) {\n        assert(totalSalary != 0x0);\n        return this.balance / totalSalary;\n    }\n\n    function hasEnoughFund() public returns (bool) {\n        if (totalSalary == 0x0) {\n            return true;\n        }\n        return calculateRunway() > 0;\n    }\n    \n    function checkEmployee(address employeeId) public returns (uint salary, uint lastPayday) { //return parameters naming\n        var employee = employees[employeeId];\n        //return (employee.salary, employee.lastPayday);\n        // return parameters assignment\n        salary = employee.salary;\n        lastPayday = employee.lastPayday;\n    }\n\n    function getPaid() employeeExist(msg.sender) public {\n        var employee = employees[msg.sender];\n\n        uint nextPayday = employee.lastPayday + payDuration;\n        assert(nextPayday < now);\n\n        employees[msg.sender].lastPayday = nextPayday;\n        employee.id.transfer(employee.salary);\n    }\n    \n    // new method\n    function changePaymentAddress(address newAddress) employeeExist(msg.sender) employeeNotExist(newAddress) public {\n        var employee = employees[msg.sender];\n        employees[newAddress] = Employee(newAddress, employee.salary, employee.lastPayday);\n        delete employees[msg.sender];\n    }\n}",
  "sourcePath": "/home/xiang/git_repos/guigulive-operation/Lesson4/contracts/Payroll.sol",
  "compiler": {
    "name": "solc",
    "version": "0.4.18+commit.9cf6e910.Emscripten.clang"
  },
  "schemaVersion": "1.0.1",
  "updatedAt": "2018-01-21T06:29:11.113Z"
}