{
  "contractName": "Payroll",
  "abi": [
    {
      "constant": true,
      "inputs": [],
      "name": "hasEnoughFund",
      "outputs": [
        {
          "name": "",
          "type": "bool"
        }
      ],
      "payable": false,
      "stateMutability": "view",
      "type": "function"
    },
    {
      "constant": true,
      "inputs": [],
      "name": "calculateRunway",
      "outputs": [
        {
          "name": "runway",
          "type": "uint256"
        }
      ],
      "payable": false,
      "stateMutability": "view",
      "type": "function"
    },
    {
      "constant": false,
      "inputs": [
        {
          "name": "employeeAddr",
          "type": "address"
        },
        {
          "name": "salary",
          "type": "uint256"
        }
      ],
      "name": "updateEmployee",
      "outputs": [],
      "payable": false,
      "stateMutability": "nonpayable",
      "type": "function"
    },
    {
      "constant": true,
      "inputs": [
        {
          "name": "employeeAddr",
          "type": "address"
        }
      ],
      "name": "checkEmployee",
      "outputs": [
        {
          "name": "salary",
          "type": "uint256"
        },
        {
          "name": "lastPayday",
          "type": "uint256"
        }
      ],
      "payable": false,
      "stateMutability": "view",
      "type": "function"
    },
    {
      "constant": true,
      "inputs": [],
      "name": "owner",
      "outputs": [
        {
          "name": "",
          "type": "address"
        }
      ],
      "payable": false,
      "stateMutability": "view",
      "type": "function"
    },
    {
      "constant": false,
      "inputs": [],
      "name": "addFund",
      "outputs": [
        {
          "name": "balance",
          "type": "uint256"
        }
      ],
      "payable": true,
      "stateMutability": "payable",
      "type": "function"
    },
    {
      "constant": false,
      "inputs": [
        {
          "name": "paymentAddr",
          "type": "address"
        }
      ],
      "name": "changePaymentAddr",
      "outputs": [],
      "payable": false,
      "stateMutability": "nonpayable",
      "type": "function"
    },
    {
      "constant": false,
      "inputs": [],
      "name": "getPaid",
      "outputs": [],
      "payable": false,
      "stateMutability": "nonpayable",
      "type": "function"
    },
    {
      "constant": false,
      "inputs": [
        {
          "name": "employeeAddr",
          "type": "address"
        }
      ],
      "name": "removeEmployee",
      "outputs": [],
      "payable": false,
      "stateMutability": "nonpayable",
      "type": "function"
    },
    {
      "constant": false,
      "inputs": [
        {
          "name": "employeeAddr",
          "type": "address"
        },
        {
          "name": "salary",
          "type": "uint256"
        }
      ],
      "name": "addEmployee",
      "outputs": [],
      "payable": false,
      "stateMutability": "nonpayable",
      "type": "function"
    },
    {
      "constant": false,
      "inputs": [
        {
          "name": "newOwner",
          "type": "address"
        }
      ],
      "name": "transferOwnership",
      "outputs": [],
      "payable": false,
      "stateMutability": "nonpayable",
      "type": "function"
    },
    {
      "anonymous": false,
      "inputs": [
        {
          "indexed": true,
          "name": "previousOwner",
          "type": "address"
        },
        {
          "indexed": true,
          "name": "newOwner",
          "type": "address"
        }
      ],
      "name": "OwnershipTransferred",
      "type": "event"
    }
  ],
  "bytecode": "0x60606040526000600155336000806101000a81548173ffffffffffffffffffffffffffffffffffffffff021916908373ffffffffffffffffffffffffffffffffffffffff16021790555061104d806100586000396000f3006060604052600436106100af576000357c0100000000000000000000000000000000000000000000000000000000900463ffffffff16806323fed09e146100b45780634ec19512146100e15780635e91d8ec1461010a5780637cf562b71461014c5780638da5cb5b146101a0578063a2f09dfa146101f5578063bb292b3714610213578063cf41d6f81461024c578063d108177a14610261578063e7fd9a131461029a578063f2fde38b146102dc575b600080fd5b34156100bf57600080fd5b6100c7610315565b604051808215151515815260200191505060405180910390f35b34156100ec57600080fd5b6100f4610326565b6040518082815260200191505060405180910390f35b341561011557600080fd5b61014a600480803573ffffffffffffffffffffffffffffffffffffffff16906020019091908035906020019091905050610390565b005b341561015757600080fd5b610183600480803573ffffffffffffffffffffffffffffffffffffffff16906020019091905050610618565b604051808381526020018281526020019250505060405180910390f35b34156101ab57600080fd5b6101b3610672565b604051808273ffffffffffffffffffffffffffffffffffffffff1673ffffffffffffffffffffffffffffffffffffffff16815260200191505060405180910390f35b6101fd610697565b6040518082815260200191505060405180910390f35b341561021e57600080fd5b61024a600480803573ffffffffffffffffffffffffffffffffffffffff169060200190919050506106b6565b005b341561025757600080fd5b61025f6107cd565b005b341561026c57600080fd5b610298600480803573ffffffffffffffffffffffffffffffffffffffff169060200190919050506109a5565b005b34156102a557600080fd5b6102da600480803573ffffffffffffffffffffffffffffffffffffffff16906020019091908035906020019091905050610c17565b005b34156102e757600080fd5b610313600480803573ffffffffffffffffffffffffffffffffffffffff16906020019091905050610e67565b005b600080610320610326565b11905090565b60008060015414156103655760003073ffffffffffffffffffffffffffffffffffffffff1631141561035b576000905061038d565b600019905061038d565b6001543073ffffffffffffffffffffffffffffffffffffffff163181151561038957fe5b0490505b90565b60008060009054906101000a900473ffffffffffffffffffffffffffffffffffffffff1673ffffffffffffffffffffffffffffffffffffffff163373ffffffffffffffffffffffffffffffffffffffff161415156103ed57600080fd5b816000811115156103fd57600080fd5b600360008573ffffffffffffffffffffffffffffffffffffffff1673ffffffffffffffffffffffffffffffffffffffff168152602001908152602001600020915060008260000160009054906101000a900473ffffffffffffffffffffffffffffffffffffffff1673ffffffffffffffffffffffffffffffffffffffff161415151561048557fe5b61055a82608060405190810160405290816000820160009054906101000a900473ffffffffffffffffffffffffffffffffffffffff1673ffffffffffffffffffffffffffffffffffffffff1673ffffffffffffffffffffffffffffffffffffffff1681526020016001820160009054906101000a900473ffffffffffffffffffffffffffffffffffffffff1673ffffffffffffffffffffffffffffffffffffffff1673ffffffffffffffffffffffffffffffffffffffff16815260200160028201548152602001600382015481525050610fbc565b8160020154670de0b6b3a7640000840203600160008282540192505081905550670de0b6b3a76400008302600360008673ffffffffffffffffffffffffffffffffffffffff1673ffffffffffffffffffffffffffffffffffffffff1681526020019081526020016000206002018190555042600360008673ffffffffffffffffffffffffffffffffffffffff1673ffffffffffffffffffffffffffffffffffffffff1681526020019081526020016000206003018190555050505050565b6000806000600360008573ffffffffffffffffffffffffffffffffffffffff1673ffffffffffffffffffffffffffffffffffffffff1681526020019081526020016000209050806002015481600301549250925050915091565b6000809054906101000a900473ffffffffffffffffffffffffffffffffffffffff1681565b60003073ffffffffffffffffffffffffffffffffffffffff1631905090565b600080600360003373ffffffffffffffffffffffffffffffffffffffff1673ffffffffffffffffffffffffffffffffffffffff168152602001908152602001600020905060008160000160009054906101000a900473ffffffffffffffffffffffffffffffffffffffff1673ffffffffffffffffffffffffffffffffffffffff161415151561074457600080fd5b600360003373ffffffffffffffffffffffffffffffffffffffff1673ffffffffffffffffffffffffffffffffffffffff1681526020019081526020016000209150828260010160006101000a81548173ffffffffffffffffffffffffffffffffffffffff021916908373ffffffffffffffffffffffffffffffffffffffff160217905550505050565b6000806000600360003373ffffffffffffffffffffffffffffffffffffffff1673ffffffffffffffffffffffffffffffffffffffff168152602001908152602001600020905060008160000160009054906101000a900473ffffffffffffffffffffffffffffffffffffffff1673ffffffffffffffffffffffffffffffffffffffff161415151561085d57600080fd5b600360003373ffffffffffffffffffffffffffffffffffffffff1673ffffffffffffffffffffffffffffffffffffffff1681526020019081526020016000209250600a836003015401915042821015156108b357fe5b81600360003373ffffffffffffffffffffffffffffffffffffffff1673ffffffffffffffffffffffffffffffffffffffff16815260200190815260200160002060030181905550600360003373ffffffffffffffffffffffffffffffffffffffff1673ffffffffffffffffffffffffffffffffffffffff16815260200190815260200160002060010160009054906101000a900473ffffffffffffffffffffffffffffffffffffffff1673ffffffffffffffffffffffffffffffffffffffff166108fc84600201549081150290604051600060405180830381858888f1935050505015156109a057600080fd5b505050565b60008060009054906101000a900473ffffffffffffffffffffffffffffffffffffffff1673ffffffffffffffffffffffffffffffffffffffff163373ffffffffffffffffffffffffffffffffffffffff16141515610a0257600080fd5b600360008373ffffffffffffffffffffffffffffffffffffffff1673ffffffffffffffffffffffffffffffffffffffff168152602001908152602001600020905060008160000160009054906101000a900473ffffffffffffffffffffffffffffffffffffffff1673ffffffffffffffffffffffffffffffffffffffff1614151515610a8a57fe5b610b5f81608060405190810160405290816000820160009054906101000a900473ffffffffffffffffffffffffffffffffffffffff1673ffffffffffffffffffffffffffffffffffffffff1673ffffffffffffffffffffffffffffffffffffffff1681526020016001820160009054906101000a900473ffffffffffffffffffffffffffffffffffffffff1673ffffffffffffffffffffffffffffffffffffffff1673ffffffffffffffffffffffffffffffffffffffff16815260200160028201548152602001600382015481525050610fbc565b8060020154600160008282540392505081905550600360008373ffffffffffffffffffffffffffffffffffffffff1673ffffffffffffffffffffffffffffffffffffffff168152602001908152602001600020600080820160006101000a81549073ffffffffffffffffffffffffffffffffffffffff02191690556001820160006101000a81549073ffffffffffffffffffffffffffffffffffffffff02191690556002820160009055600382016000905550505050565b60008060009054906101000a900473ffffffffffffffffffffffffffffffffffffffff1673ffffffffffffffffffffffffffffffffffffffff163373ffffffffffffffffffffffffffffffffffffffff16141515610c7457600080fd5b81600081111515610c8457600080fd5b600360008573ffffffffffffffffffffffffffffffffffffffff1673ffffffffffffffffffffffffffffffffffffffff168152602001908152602001600020915060008260000160009054906101000a900473ffffffffffffffffffffffffffffffffffffffff1673ffffffffffffffffffffffffffffffffffffffff16141515610d0b57fe5b670de0b6b3a764000083026001600082825401925050819055506080604051908101604052808573ffffffffffffffffffffffffffffffffffffffff1681526020018573ffffffffffffffffffffffffffffffffffffffff168152602001670de0b6b3a76400008502815260200142815250600360008673ffffffffffffffffffffffffffffffffffffffff1673ffffffffffffffffffffffffffffffffffffffff16815260200190815260200160002060008201518160000160006101000a81548173ffffffffffffffffffffffffffffffffffffffff021916908373ffffffffffffffffffffffffffffffffffffffff16021790555060208201518160010160006101000a81548173ffffffffffffffffffffffffffffffffffffffff021916908373ffffffffffffffffffffffffffffffffffffffff160217905550604082015181600201556060820151816003015590505050505050565b6000809054906101000a900473ffffffffffffffffffffffffffffffffffffffff1673ffffffffffffffffffffffffffffffffffffffff163373ffffffffffffffffffffffffffffffffffffffff16141515610ec257600080fd5b600073ffffffffffffffffffffffffffffffffffffffff168173ffffffffffffffffffffffffffffffffffffffff1614151515610efe57600080fd5b8073ffffffffffffffffffffffffffffffffffffffff166000809054906101000a900473ffffffffffffffffffffffffffffffffffffffff1673ffffffffffffffffffffffffffffffffffffffff167f8be0079c531659141344cd1fd0a4f28419497f9722a3daafe3b4186f6b6457e060405160405180910390a3806000806101000a81548173ffffffffffffffffffffffffffffffffffffffff021916908373ffffffffffffffffffffffffffffffffffffffff16021790555050565b6000600a82606001514203836040015102811515610fd657fe5b049050816020015173ffffffffffffffffffffffffffffffffffffffff166108fc829081150290604051600060405180830381858888f19350505050151561101d57600080fd5b50505600a165627a7a7230582086d35e23d46f5ac2e1d1ee851b9c54fce41232e76cc6f9a67626701d30b679540029",
  "source": "pragma solidity ^0.4.14;\n\nimport './Ownable.sol';\n\ncontract Payroll is Ownable{\n  struct Employee {\n    address addr;\n    address paymentAddr;\n    uint salary;\n    uint lastPayday;\n  }\n\n  uint constant payDuration = 10 seconds;\n  uint totalSalary = 0;\n  address owner;\n  uint constant UINT256_MAX = ~uint(0);\n\n  mapping(address => Employee) employees;\n\n  modifier validEmployee() {\n    var employee = employees[msg.sender];\n    require(employee.addr != 0x0);\n    _;\n  }\n\n  modifier validSalary(uint salary) {\n    require(salary > 0);\n    _;\n  }\n\n  function _partialPaid(Employee employee) private {\n    uint amount = employee.salary * (now - employee.lastPayday) / payDuration;\n    employee.paymentAddr.transfer(amount);\n  }\n\n  function addEmployee(address employeeAddr, uint salary) public onlyOwner validSalary(salary) {\n    var duplicate = employees[employeeAddr];\n    assert(duplicate.addr == 0x0);\n    totalSalary += salary * 1 ether;\n    employees[employeeAddr] = Employee(employeeAddr, employeeAddr, salary * 1 ether, now);\n  }\n\n  function removeEmployee(address employeeAddr) public onlyOwner {\n    var employee = employees[employeeAddr];\n    assert(employee.addr != 0x0);\n\n    _partialPaid(employee);\n    totalSalary -= employee.salary;\n    delete employees[employeeAddr];\n  }\n\n  function updateEmployee(address employeeAddr, uint salary) public onlyOwner validSalary(salary) {\n    var employee = employees[employeeAddr];\n    assert(employee.addr != 0x0);\n\n    _partialPaid(employee);\n    totalSalary += salary * 1 ether - employee.salary;\n    employees[employeeAddr].salary = salary * 1 ether;\n    employees[employeeAddr].lastPayday = now;\n  }\n\n  function changePaymentAddr(address paymentAddr) public validEmployee {\n      var employee = employees[msg.sender];\n      employee.paymentAddr = paymentAddr;\n  }\n\n  function checkEmployee(address employeeAddr) public view returns (uint salary, uint lastPayday) {\n    var employee = employees[employeeAddr];\n    return (employee.salary, employee.lastPayday);\n  }\n\n  function addFund() public payable returns (uint balance) {\n    return this.balance;\n  }\n\n  function calculateRunway() public view returns (uint runway) {\n    if (totalSalary == 0) {\n        if (this.balance == 0) {\n            return 0;\n        } else {\n            return UINT256_MAX;\n        }\n    }\n    return this.balance / totalSalary;\n  }\n\n  function hasEnoughFund() public view returns (bool) {\n    return calculateRunway() > 0;\n  }\n\n  function getPaid() public validEmployee {\n    var employee = employees[msg.sender];\n    uint nextPayday = employee.lastPayday + payDuration;\n    assert(nextPayday < now);\n\n    employees[msg.sender].lastPayday = nextPayday;\n    employees[msg.sender].paymentAddr.transfer(employee.salary);\n  }\n}\n",
  "sourcePath": "/Users/xiaowenzhang/Dropbox/projects/guigulive-operation/Lesson4/assignment/contracts/Payroll.sol",
  "compiler": {
    "name": "solc",
    "version": "0.4.18+commit.9cf6e910.Emscripten.clang"
  },
  "schemaVersion": "1.0.1",
  "updatedAt": "2018-01-21T01:36:37.673Z"
}