{
  "contractName": "Payroll",
  "abi": [
    {
      "constant": true,
      "inputs": [],
      "name": "getBalance",
      "outputs": [
        {
          "name": "",
          "type": "uint256"
        }
      ],
      "payable": false,
      "stateMutability": "view",
      "type": "function"
    },
    {
      "constant": true,
      "inputs": [],
      "name": "hasEnoughFund",
      "outputs": [
        {
          "name": "",
          "type": "bool"
        }
      ],
      "payable": false,
      "stateMutability": "view",
      "type": "function"
    },
    {
      "constant": true,
      "inputs": [],
      "name": "getAddress",
      "outputs": [
        {
          "name": "",
          "type": "address"
        }
      ],
      "payable": false,
      "stateMutability": "view",
      "type": "function"
    },
    {
      "constant": true,
      "inputs": [],
      "name": "calculateRunway",
      "outputs": [
        {
          "name": "",
          "type": "uint256"
        }
      ],
      "payable": false,
      "stateMutability": "view",
      "type": "function"
    },
    {
      "constant": false,
      "inputs": [
        {
          "name": "employeeId",
          "type": "address"
        },
        {
          "name": "salary",
          "type": "uint256"
        }
      ],
      "name": "updateEmployee",
      "outputs": [],
      "payable": true,
      "stateMutability": "payable",
      "type": "function"
    },
    {
      "constant": false,
      "inputs": [
        {
          "name": "e",
          "type": "address"
        }
      ],
      "name": "getPaid",
      "outputs": [],
      "payable": false,
      "stateMutability": "nonpayable",
      "type": "function"
    },
    {
      "constant": true,
      "inputs": [
        {
          "name": "addr",
          "type": "address"
        }
      ],
      "name": "getEmployeeSalary",
      "outputs": [
        {
          "name": "",
          "type": "uint256"
        }
      ],
      "payable": false,
      "stateMutability": "view",
      "type": "function"
    },
    {
      "constant": false,
      "inputs": [],
      "name": "addFund",
      "outputs": [
        {
          "name": "",
          "type": "uint256"
        }
      ],
      "payable": true,
      "stateMutability": "payable",
      "type": "function"
    },
    {
      "constant": false,
      "inputs": [
        {
          "name": "employeeId",
          "type": "address"
        }
      ],
      "name": "removeEmployee",
      "outputs": [],
      "payable": true,
      "stateMutability": "payable",
      "type": "function"
    },
    {
      "constant": false,
      "inputs": [
        {
          "name": "employeeId",
          "type": "address"
        },
        {
          "name": "salary",
          "type": "uint256"
        }
      ],
      "name": "addEmployee",
      "outputs": [],
      "payable": false,
      "stateMutability": "nonpayable",
      "type": "function"
    },
    {
      "inputs": [],
      "payable": false,
      "stateMutability": "nonpayable",
      "type": "constructor"
    }
  ],
  "bytecode": "0x60606040526000600255341561001457600080fd5b336000806101000a81548173ffffffffffffffffffffffffffffffffffffffff021916908373ffffffffffffffffffffffffffffffffffffffff160217905550610ce8806100636000396000f3006060604052600436106100a4576000357c0100000000000000000000000000000000000000000000000000000000900463ffffffff16806312065fe0146100a957806323fed09e146100d257806338cc4831146100ff5780634ec19512146101545780635e91d8ec1461017d57806363b8817c146101b45780636f5be0d6146101ed578063a2f09dfa1461023a578063d108177a14610258578063e7fd9a1314610286575b600080fd5b34156100b457600080fd5b6100bc6102c8565b6040518082815260200191505060405180910390f35b34156100dd57600080fd5b6100e56102e7565b604051808215151515815260200191505060405180910390f35b341561010a57600080fd5b610112610311565b604051808273ffffffffffffffffffffffffffffffffffffffff1673ffffffffffffffffffffffffffffffffffffffff16815260200191505060405180910390f35b341561015f57600080fd5b610167610319565b6040518082815260200191505060405180910390f35b6101b2600480803573ffffffffffffffffffffffffffffffffffffffff16906020019091908035906020019091905050610323565b005b34156101bf57600080fd5b6101eb600480803573ffffffffffffffffffffffffffffffffffffffff1690602001909190505061043f565b005b34156101f857600080fd5b610224600480803573ffffffffffffffffffffffffffffffffffffffff169060200190919050506105e2565b6040518082815260200191505060405180910390f35b61024261062e565b6040518082815260200191505060405180910390f35b610284600480803573ffffffffffffffffffffffffffffffffffffffff1690602001909190505061064d565b005b341561029157600080fd5b6102c6600480803573ffffffffffffffffffffffffffffffffffffffff169060200190919080359060200190919050506108b9565b005b60003073ffffffffffffffffffffffffffffffffffffffff1631905090565b6000806102f2610319565b3073ffffffffffffffffffffffffffffffffffffffff16310311905090565b600030905090565b6000600254905090565b60008060009054906101000a900473ffffffffffffffffffffffffffffffffffffffff1673ffffffffffffffffffffffffffffffffffffffff163373ffffffffffffffffffffffffffffffffffffffff1614151561038057600080fd5b8260008173ffffffffffffffffffffffffffffffffffffffff16141515156103a757600080fd5b600160008573ffffffffffffffffffffffffffffffffffffffff1673ffffffffffffffffffffffffffffffffffffffff168152602001908152602001600020915060008260000160009054906101000a900473ffffffffffffffffffffffffffffffffffffffff1673ffffffffffffffffffffffffffffffffffffffff16141561043057600080fd5b82826001018190555050505050565b6000809054906101000a900473ffffffffffffffffffffffffffffffffffffffff1673ffffffffffffffffffffffffffffffffffffffff163373ffffffffffffffffffffffffffffffffffffffff1614151561049a57600080fd5b6000600160008373ffffffffffffffffffffffffffffffffffffffff1673ffffffffffffffffffffffffffffffffffffffff16815260200190815260200160002060000160009054906101000a900473ffffffffffffffffffffffffffffffffffffffff1673ffffffffffffffffffffffffffffffffffffffff161415151561052257600080fd5b6105df600160008373ffffffffffffffffffffffffffffffffffffffff1673ffffffffffffffffffffffffffffffffffffffff168152602001908152602001600020606060405190810160405290816000820160009054906101000a900473ffffffffffffffffffffffffffffffffffffffff1673ffffffffffffffffffffffffffffffffffffffff1673ffffffffffffffffffffffffffffffffffffffff16815260200160018201548152602001600282015481525050610ab7565b50565b6000600160008373ffffffffffffffffffffffffffffffffffffffff1673ffffffffffffffffffffffffffffffffffffffff168152602001908152602001600020600101549050919050565b60003073ffffffffffffffffffffffffffffffffffffffff1631905090565b60008060009054906101000a900473ffffffffffffffffffffffffffffffffffffffff1673ffffffffffffffffffffffffffffffffffffffff163373ffffffffffffffffffffffffffffffffffffffff161415156106aa57600080fd5b8160008173ffffffffffffffffffffffffffffffffffffffff16141515156106d157600080fd5b600160008473ffffffffffffffffffffffffffffffffffffffff1673ffffffffffffffffffffffffffffffffffffffff168152602001908152602001600020915060008260000160009054906101000a900473ffffffffffffffffffffffffffffffffffffffff1673ffffffffffffffffffffffffffffffffffffffff16141561075a57600080fd5b6107d982606060405190810160405290816000820160009054906101000a900473ffffffffffffffffffffffffffffffffffffffff1673ffffffffffffffffffffffffffffffffffffffff1673ffffffffffffffffffffffffffffffffffffffff16815260200160018201548152602001600282015481525050610b8f565b816001015460026000828254039250508190555060008260000160006101000a81548173ffffffffffffffffffffffffffffffffffffffff021916908373ffffffffffffffffffffffffffffffffffffffff16021790555060008260010181905550600160008473ffffffffffffffffffffffffffffffffffffffff1673ffffffffffffffffffffffffffffffffffffffff168152602001908152602001600020600080820160006101000a81549073ffffffffffffffffffffffffffffffffffffffff0219169055600182016000905560028201600090555050505050565b60008060009054906101000a900473ffffffffffffffffffffffffffffffffffffffff1673ffffffffffffffffffffffffffffffffffffffff163373ffffffffffffffffffffffffffffffffffffffff1614151561091657600080fd5b8260008173ffffffffffffffffffffffffffffffffffffffff161415151561093d57600080fd5b600160008573ffffffffffffffffffffffffffffffffffffffff1673ffffffffffffffffffffffffffffffffffffffff168152602001908152602001600020915060008260000160009054906101000a900473ffffffffffffffffffffffffffffffffffffffff1673ffffffffffffffffffffffffffffffffffffffff161415156109c757600080fd5b6109dc83600254610c2f90919063ffffffff16565b6002819055506060604051908101604052808573ffffffffffffffffffffffffffffffffffffffff16815260200184815260200142815250600160008673ffffffffffffffffffffffffffffffffffffffff1673ffffffffffffffffffffffffffffffffffffffff16815260200190815260200160002060008201518160000160006101000a81548173ffffffffffffffffffffffffffffffffffffffff021916908373ffffffffffffffffffffffffffffffffffffffff160217905550602082015181600101556040820151816002015590505050505050565b60008060009054906101000a900473ffffffffffffffffffffffffffffffffffffffff1673ffffffffffffffffffffffffffffffffffffffff163373ffffffffffffffffffffffffffffffffffffffff16141515610b1457600080fd5b610b2c600a8360400151610c2f90919063ffffffff16565b90504281101515610b3957fe5b80826040018181525050816000015173ffffffffffffffffffffffffffffffffffffffff166108fc83602001519081150290604051600060405180830381858888f193505050501515610b8b57600080fd5b5050565b6000610bd1610bbe600a610bb0856040015142610c4d90919063ffffffff16565b610c6690919063ffffffff16565b8360200151610c8190919063ffffffff16565b90506000811115610c2b5742826040018181525050816000015173ffffffffffffffffffffffffffffffffffffffff166108fc829081150290604051600060405180830381858888f193505050501515610c2a57600080fd5b5b5050565b6000808284019050838110151515610c4357fe5b8091505092915050565b6000828211151515610c5b57fe5b818303905092915050565b6000808284811515610c7457fe5b0490508091505092915050565b6000806000841415610c965760009150610cb5565b8284029050828482811515610ca757fe5b04141515610cb157fe5b8091505b50929150505600a165627a7a72305820e703c1dc39b3f3877303a19ab987eda239da5e2558d2e866f96c67b2640db5810029",
  "source": "pragma solidity ^0.4.2;\n\nimport \"./SafeMath.sol\";\ncontract Payroll {\n    using SafeMath for uint;\n    struct Employee {\n        address id;\n        uint salary;\n        uint lastPayday;\n    }\n    uint constant payDuration = 10 seconds;\n    address owner;\n    mapping (address => Employee) employees;\n\n    uint totalSalary = 0;\n    \n    function Payroll() public  {\n        owner = msg.sender;\n    }\n    \n    function _partialPaid(Employee employee) private {\n        uint payment = employee.salary.mul((now.sub(employee.lastPayday)).div(payDuration)) ;\n        if(payment > 0){\n            employee.lastPayday = now;\n            employee.id.transfer(payment);\n        }\n    }\n    \n\n    modifier requireOwner() {\n        require(msg.sender == owner);\n        _;\n    }\n    \n    modifier validAddress(address addr) {\n        require(addr != 0x0);\n        _;\n    }\n    \n    function addEmployee(address employeeId, uint salary) public  requireOwner\n                validAddress(employeeId){\n        var e = employees[employeeId];\n        if (e.id != 0x0) revert();\n        totalSalary = totalSalary.add(salary);\n        employees[employeeId] = Employee(employeeId, salary, now);\n    }\n    \n    function removeEmployee(address employeeId) public payable requireOwner validAddress(employeeId){\n        var e = employees[employeeId];\n        if (e.id == 0x0) revert();\n        _partialPaid(e);\n        totalSalary-= e.salary;\n        e.id=0;\n        e.salary=0;\n\n        delete employees[employeeId];\n\n    }\n    \n    function updateEmployee(address employeeId, uint salary) public requireOwner payable validAddress(employeeId){\n        var e = employees[employeeId];\n        if (e.id == 0x0) revert();\n        e.salary = salary;\n    }\n\n\n    function addFund() public payable returns(uint) \n    {\n        return this.balance;\n    }\n\n    function getPaid(address e) public requireOwner {\n        require(employees[e].id != 0x0);\n        getPaid(employees[e]);\n    }\n    \n    function getPaid(Employee e) internal requireOwner {\n        \n        var nextPayday = e.lastPayday.add(payDuration);\n        assert(nextPayday < now);\n        e.lastPayday = nextPayday;\n        e.id.transfer(e.salary);\n    }\n    \n    function calculateRunway() public view returns(uint) {\n       return totalSalary;\n    }\n    \n    function hasEnoughFund() public  view returns(bool) {\n        return this.balance - calculateRunway() > 0;\n    }\n\n    function getBalance() public view returns(uint) {\n        return this.balance;\n    }\n\n    function getEmployeeSalary(address addr) public view returns(uint) {\n        return employees[addr].salary;\n    }\n\n    function getAddress() public view returns(address) {\n        return this;\n    }\n    \n    \n}",
  "sourcePath": "/Users/bowman_apple/guigulive-operation/Lesson4/assignment/contracts/Payroll.sol",
  "compiler": {
    "name": "solc",
    "version": "0.4.18+commit.9cf6e910.Emscripten.clang"
  },
  "schemaVersion": "1.0.1",
  "updatedAt": "2018-01-31T20:36:45.861Z"
}