{
  "contractName": "Payroll",
  "abi": [
    {
      "constant": true,
      "inputs": [],
      "name": "hasEnoughFund",
      "outputs": [
        {
          "name": "",
          "type": "bool"
        }
      ],
      "payable": false,
      "stateMutability": "view",
      "type": "function"
    },
    {
      "constant": true,
      "inputs": [],
      "name": "calculateRunway",
      "outputs": [
        {
          "name": "",
          "type": "uint256"
        }
      ],
      "payable": false,
      "stateMutability": "view",
      "type": "function"
    },
    {
      "constant": false,
      "inputs": [
        {
          "name": "employeeId",
          "type": "address"
        },
        {
          "name": "salary",
          "type": "uint256"
        }
      ],
      "name": "updateEmployee",
      "outputs": [],
      "payable": false,
      "stateMutability": "nonpayable",
      "type": "function"
    },
    {
      "constant": true,
      "inputs": [
        {
          "name": "employeeId",
          "type": "address"
        }
      ],
      "name": "checkEmployee",
      "outputs": [
        {
          "name": "salary",
          "type": "uint256"
        },
        {
          "name": "lastPayday",
          "type": "uint256"
        }
      ],
      "payable": false,
      "stateMutability": "view",
      "type": "function"
    },
    {
      "constant": false,
      "inputs": [],
      "name": "addFund",
      "outputs": [
        {
          "name": "",
          "type": "uint256"
        }
      ],
      "payable": true,
      "stateMutability": "payable",
      "type": "function"
    },
    {
      "constant": false,
      "inputs": [
        {
          "name": "EmployeeId",
          "type": "address"
        },
        {
          "name": "newAddress",
          "type": "address"
        }
      ],
      "name": "changePaymentAddress",
      "outputs": [],
      "payable": false,
      "stateMutability": "nonpayable",
      "type": "function"
    },
    {
      "constant": false,
      "inputs": [],
      "name": "getPaid",
      "outputs": [],
      "payable": false,
      "stateMutability": "nonpayable",
      "type": "function"
    },
    {
      "constant": false,
      "inputs": [
        {
          "name": "employeeId",
          "type": "address"
        }
      ],
      "name": "removeEmployee",
      "outputs": [],
      "payable": false,
      "stateMutability": "nonpayable",
      "type": "function"
    },
    {
      "constant": false,
      "inputs": [
        {
          "name": "employeeId",
          "type": "address"
        },
        {
          "name": "salary",
          "type": "uint256"
        }
      ],
      "name": "addEmployee",
      "outputs": [],
      "payable": false,
      "stateMutability": "nonpayable",
      "type": "function"
    },
    {
      "inputs": [],
      "payable": false,
      "stateMutability": "nonpayable",
      "type": "constructor"
    }
  ],
  "bytecode": "0x606060405260008055341561001357600080fd5b33600160006101000a81548173ffffffffffffffffffffffffffffffffffffffff021916908373ffffffffffffffffffffffffffffffffffffffff160217905550610db4806100636000396000f300606060405260043610610099576000357c0100000000000000000000000000000000000000000000000000000000900463ffffffff16806323fed09e1461009e5780634ec19512146100cb5780635e91d8ec146100f45780637cf562b714610136578063a2f09dfa1461018a578063bc456c42146101a8578063cf41d6f814610200578063d108177a14610215578063e7fd9a131461024e575b600080fd5b34156100a957600080fd5b6100b1610290565b604051808215151515815260200191505060405180910390f35b34156100d657600080fd5b6100de6102a1565b6040518082815260200191505060405180910390f35b34156100ff57600080fd5b610134600480803573ffffffffffffffffffffffffffffffffffffffff169060200190919080359060200190919050506102da565b005b341561014157600080fd5b61016d600480803573ffffffffffffffffffffffffffffffffffffffff16906020019091905050610546565b604051808381526020018281526020019250505060405180910390f35b61019261059c565b6040518082815260200191505060405180910390f35b34156101b357600080fd5b6101fe600480803573ffffffffffffffffffffffffffffffffffffffff1690602001909190803573ffffffffffffffffffffffffffffffffffffffff169060200190919050506105bb565b005b341561020b57600080fd5b610213610707565b005b341561022057600080fd5b61024c600480803573ffffffffffffffffffffffffffffffffffffffff169060200190919050506108d6565b005b341561025957600080fd5b61028e600480803573ffffffffffffffffffffffffffffffffffffffff16906020019091908035906020019091905050610b51565b005b60008061029b6102a1565b11905090565b6000806000541115156102b057fe5b6000543073ffffffffffffffffffffffffffffffffffffffff16318115156102d457fe5b04905090565b60003373ffffffffffffffffffffffffffffffffffffffff16600160009054906101000a900473ffffffffffffffffffffffffffffffffffffffff1673ffffffffffffffffffffffffffffffffffffffff1614151561033857600080fd5b600260008473ffffffffffffffffffffffffffffffffffffffff1673ffffffffffffffffffffffffffffffffffffffff168152602001908152602001600020905060008160000160009054906101000a900473ffffffffffffffffffffffffffffffffffffffff1673ffffffffffffffffffffffffffffffffffffffff16141515156103c057fe5b61043f81606060405190810160405290816000820160009054906101000a900473ffffffffffffffffffffffffffffffffffffffff1673ffffffffffffffffffffffffffffffffffffffff1673ffffffffffffffffffffffffffffffffffffffff16815260200160018201548152602001600282015481525050610d23565b600260008473ffffffffffffffffffffffffffffffffffffffff1673ffffffffffffffffffffffffffffffffffffffff168152602001908152602001600020600101546000808282540392505081905550670de0b6b3a76400008202600260008573ffffffffffffffffffffffffffffffffffffffff1673ffffffffffffffffffffffffffffffffffffffff1681526020019081526020016000206001018190555042600260008573ffffffffffffffffffffffffffffffffffffffff1673ffffffffffffffffffffffffffffffffffffffff16815260200190815260200160002060020181905550670de0b6b3a764000082026000808282540192505081905550505050565b6000806000600260008573ffffffffffffffffffffffffffffffffffffffff1673ffffffffffffffffffffffffffffffffffffffff16815260200190815260200160002090508060010154925081915050915091565b60003073ffffffffffffffffffffffffffffffffffffffff1631905090565b6000823373ffffffffffffffffffffffffffffffffffffffff168173ffffffffffffffffffffffffffffffffffffffff161415156105f857600080fd5b600260003373ffffffffffffffffffffffffffffffffffffffff1673ffffffffffffffffffffffffffffffffffffffff168152602001908152602001600020915060008260000160009054906101000a900473ffffffffffffffffffffffffffffffffffffffff1673ffffffffffffffffffffffffffffffffffffffff161415151561068057fe5b82600260003373ffffffffffffffffffffffffffffffffffffffff1673ffffffffffffffffffffffffffffffffffffffff16815260200190815260200160002060000160006101000a81548173ffffffffffffffffffffffffffffffffffffffff021916908373ffffffffffffffffffffffffffffffffffffffff16021790555050505050565b600080600260003373ffffffffffffffffffffffffffffffffffffffff1673ffffffffffffffffffffffffffffffffffffffff168152602001908152602001600020915060008260000160009054906101000a900473ffffffffffffffffffffffffffffffffffffffff1673ffffffffffffffffffffffffffffffffffffffff161415151561079257fe5b600a600260003373ffffffffffffffffffffffffffffffffffffffff1673ffffffffffffffffffffffffffffffffffffffff1681526020019081526020016000206002015401905042811015156107e557fe5b80600260003373ffffffffffffffffffffffffffffffffffffffff1673ffffffffffffffffffffffffffffffffffffffff168152602001908152602001600020600201819055508160000160009054906101000a900473ffffffffffffffffffffffffffffffffffffffff1673ffffffffffffffffffffffffffffffffffffffff166108fc600260003373ffffffffffffffffffffffffffffffffffffffff1673ffffffffffffffffffffffffffffffffffffffff168152602001908152602001600020600101549081150290604051600060405180830381858888f1935050505015156108d257600080fd5b5050565b60003373ffffffffffffffffffffffffffffffffffffffff16600160009054906101000a900473ffffffffffffffffffffffffffffffffffffffff1673ffffffffffffffffffffffffffffffffffffffff1614151561093457600080fd5b600260008373ffffffffffffffffffffffffffffffffffffffff1673ffffffffffffffffffffffffffffffffffffffff168152602001908152602001600020905060008160000160009054906101000a900473ffffffffffffffffffffffffffffffffffffffff1673ffffffffffffffffffffffffffffffffffffffff16141515156109bc57fe5b610a79600260008473ffffffffffffffffffffffffffffffffffffffff1673ffffffffffffffffffffffffffffffffffffffff168152602001908152602001600020606060405190810160405290816000820160009054906101000a900473ffffffffffffffffffffffffffffffffffffffff1673ffffffffffffffffffffffffffffffffffffffff1673ffffffffffffffffffffffffffffffffffffffff16815260200160018201548152602001600282015481525050610d23565b600260008373ffffffffffffffffffffffffffffffffffffffff1673ffffffffffffffffffffffffffffffffffffffff168152602001908152602001600020600080820160006101000a81549073ffffffffffffffffffffffffffffffffffffffff0219169055600182016000905560028201600090555050670de0b6b3a7640000600260008473ffffffffffffffffffffffffffffffffffffffff1673ffffffffffffffffffffffffffffffffffffffff168152602001908152602001600020600101540260008082825403925050819055505050565b60003373ffffffffffffffffffffffffffffffffffffffff16600160009054906101000a900473ffffffffffffffffffffffffffffffffffffffff1673ffffffffffffffffffffffffffffffffffffffff16141515610baf57600080fd5b600260008473ffffffffffffffffffffffffffffffffffffffff1673ffffffffffffffffffffffffffffffffffffffff168152602001908152602001600020905060008160000160009054906101000a900473ffffffffffffffffffffffffffffffffffffffff1673ffffffffffffffffffffffffffffffffffffffff16141515610c3657fe5b6060604051908101604052808473ffffffffffffffffffffffffffffffffffffffff16815260200183815260200142815250600260008573ffffffffffffffffffffffffffffffffffffffff1673ffffffffffffffffffffffffffffffffffffffff16815260200190815260200160002060008201518160000160006101000a81548173ffffffffffffffffffffffffffffffffffffffff021916908373ffffffffffffffffffffffffffffffffffffffff1602179055506020820151816001015560408201518160020155905050670de0b6b3a764000082026000808282540192505081905550505050565b60008160200151600a83604001514203811515610d3c57fe5b04029050816000015173ffffffffffffffffffffffffffffffffffffffff166108fc829081150290604051600060405180830381858888f193505050501515610d8457600080fd5b50505600a165627a7a72305820d03d9faa194544e3c12bf1a629823d30f73438e2ab90cced2b66f3aabaa205860029",
  "source": "/*作业请提交在这个目录下*/\npragma solidity ^0.4.14;\n\ncontract Payroll {\n    struct Employee {\n        address id;\n        uint salary;\n        uint lastPayday;\n    }\n    \n    uint constant payDuration = 10 seconds;\n    uint totalSalary = 0;\n\n    address owner;\n    mapping (address => Employee) private employees;\n\n    modifier onlyOwner() {\n        require(owner == msg.sender);\n        _;\n    }\n    \n    modifier onlySelf(address employeeId) {\n        require(employeeId == msg.sender);\n        _;\n    }\n\n    function Payroll() public{\n        owner = msg.sender;\n    }\n    \n    function _partialPaid(Employee employee) private {\n      uint amount = (now - employee.lastPayday) / payDuration * employee.salary;\n      employee.id.transfer(amount);\n    }\n    \n    function addEmployee(address employeeId, uint salary) public onlyOwner {\n      var employee = employees[employeeId];\n      assert(employee.id == 0x0);\n      employees[employeeId] = Employee(employeeId, salary, now);\n      totalSalary += salary * 1 ether;\n    }\n    \n    function removeEmployee(address employeeId) public onlyOwner {\n      var employee = employees[employeeId];\n      assert(employee.id != 0x0);\n      _partialPaid(employees[employeeId]);\n      delete employees[employeeId];\n      totalSalary -= employees[employeeId].salary * 1 ether;\n    }\n    \n    function updateEmployee(address employeeId, uint salary) public onlyOwner {\n      var employee = employees[employeeId];\n      assert(employee.id != 0x0);\n      _partialPaid(employee);\n      totalSalary -= employees[employeeId].salary;\n      employees[employeeId].salary = salary * 1 ether;\n      employees[employeeId].lastPayday = now;\n      totalSalary += salary * 1 ether;\n    }\n    \n    function addFund() payable public returns (uint) {\n      return this.balance;\n    }\n    \n    function calculateRunway() public view returns (uint) {\n        assert(totalSalary > 0);\n        return this.balance / totalSalary;\n    }\n    \n    function hasEnoughFund() public view returns (bool) {\n      return calculateRunway() > 0;\n    }\n    \n    function checkEmployee(address employeeId) public view returns (uint salary, uint lastPayday) {\n        var employee = employees[employeeId];\n        salary = employee.salary;\n        lastPayday = lastPayday;\n    }\n    \n    function getPaid() public {\n      var employee = employees[msg.sender];\n      assert(employee.id != 0x0);\n      uint nextPayday = employees[msg.sender].lastPayday + payDuration;\n      assert(nextPayday < now);\n      employees[msg.sender].lastPayday = nextPayday;\n      employee.id.transfer(employees[msg.sender].salary);\n    }\n    \n    function changePaymentAddress(address EmployeeId, address newAddress) public onlySelf(EmployeeId){\n      var employee = employees[msg.sender];\n      assert(employee.id != 0x0);\n      employees[msg.sender].id = newAddress;\n    }\n}\n",
  "sourcePath": "/Users/lichenxi/github/guigulive-operation/Lesson4/assignment/contracts/Payroll.sol",
  "compiler": {
    "name": "solc",
    "version": "0.4.18+commit.9cf6e910.Emscripten.clang"
  },
  "schemaVersion": "1.0.1",
  "updatedAt": "2018-01-29T01:03:36.159Z"
}