{
  "contractName": "Payroll",
  "abi": [
    {
      "constant": false,
      "inputs": [],
      "name": "hasEnoughFund",
      "outputs": [
        {
          "name": "",
          "type": "bool"
        }
      ],
      "payable": false,
      "stateMutability": "nonpayable",
      "type": "function"
    },
    {
      "constant": false,
      "inputs": [
        {
          "name": "employeeId",
          "type": "address"
        }
      ],
      "name": "isEmployeeExist",
      "outputs": [],
      "payable": false,
      "stateMutability": "nonpayable",
      "type": "function"
    },
    {
      "constant": false,
      "inputs": [],
      "name": "calculateRunway",
      "outputs": [
        {
          "name": "",
          "type": "uint256"
        }
      ],
      "payable": false,
      "stateMutability": "nonpayable",
      "type": "function"
    },
    {
      "constant": false,
      "inputs": [
        {
          "name": "employeeId",
          "type": "address"
        },
        {
          "name": "salary",
          "type": "uint256"
        }
      ],
      "name": "updateEmployee",
      "outputs": [],
      "payable": false,
      "stateMutability": "nonpayable",
      "type": "function"
    },
    {
      "constant": false,
      "inputs": [
        {
          "name": "employeeId",
          "type": "address"
        }
      ],
      "name": "changePaymentAddress",
      "outputs": [],
      "payable": false,
      "stateMutability": "nonpayable",
      "type": "function"
    },
    {
      "constant": false,
      "inputs": [
        {
          "name": "employeeId",
          "type": "address"
        }
      ],
      "name": "checkEmployee",
      "outputs": [
        {
          "name": "salary",
          "type": "uint256"
        },
        {
          "name": "lastPayday",
          "type": "uint256"
        }
      ],
      "payable": false,
      "stateMutability": "nonpayable",
      "type": "function"
    },
    {
      "constant": true,
      "inputs": [],
      "name": "owner",
      "outputs": [
        {
          "name": "",
          "type": "address"
        }
      ],
      "payable": false,
      "stateMutability": "view",
      "type": "function"
    },
    {
      "constant": false,
      "inputs": [],
      "name": "addFund",
      "outputs": [
        {
          "name": "",
          "type": "uint256"
        }
      ],
      "payable": true,
      "stateMutability": "payable",
      "type": "function"
    },
    {
      "constant": false,
      "inputs": [],
      "name": "getPaid",
      "outputs": [],
      "payable": false,
      "stateMutability": "nonpayable",
      "type": "function"
    },
    {
      "constant": true,
      "inputs": [
        {
          "name": "",
          "type": "address"
        }
      ],
      "name": "employees",
      "outputs": [
        {
          "name": "id",
          "type": "address"
        },
        {
          "name": "salary",
          "type": "uint256"
        },
        {
          "name": "lastPayday",
          "type": "uint256"
        }
      ],
      "payable": false,
      "stateMutability": "view",
      "type": "function"
    },
    {
      "constant": false,
      "inputs": [
        {
          "name": "employeeId",
          "type": "address"
        }
      ],
      "name": "removeEmployee",
      "outputs": [],
      "payable": false,
      "stateMutability": "nonpayable",
      "type": "function"
    },
    {
      "constant": false,
      "inputs": [
        {
          "name": "employeeId",
          "type": "address"
        },
        {
          "name": "salary",
          "type": "uint256"
        }
      ],
      "name": "addEmployee",
      "outputs": [],
      "payable": false,
      "stateMutability": "nonpayable",
      "type": "function"
    },
    {
      "constant": false,
      "inputs": [
        {
          "name": "newOwner",
          "type": "address"
        }
      ],
      "name": "transferOwnership",
      "outputs": [],
      "payable": false,
      "stateMutability": "nonpayable",
      "type": "function"
    },
    {
      "anonymous": false,
      "inputs": [
        {
          "indexed": true,
          "name": "previousOwner",
          "type": "address"
        },
        {
          "indexed": true,
          "name": "newOwner",
          "type": "address"
        }
      ],
      "name": "OwnershipTransferred",
      "type": "event"
    }
  ],
  "bytecode": "0x6060604052336000806101000a81548173ffffffffffffffffffffffffffffffffffffffff021916908373ffffffffffffffffffffffffffffffffffffffff1602179055506111fc806100536000396000f3006060604052600436106100c5576000357c0100000000000000000000000000000000000000000000000000000000900463ffffffff16806323fed09e146100ca57806335950120146100f75780634ec19512146101305780635e91d8ec146101595780637124d6131461019b5780637cf562b7146101d45780638da5cb5b14610228578063a2f09dfa1461027d578063cf41d6f81461029b578063d0678947146102b0578063d108177a14610337578063e7fd9a1314610370578063f2fde38b146103b2575b600080fd5b34156100d557600080fd5b6100dd6103eb565b604051808215151515815260200191505060405180910390f35b341561010257600080fd5b61012e600480803573ffffffffffffffffffffffffffffffffffffffff169060200190919050506103fc565b005b341561013b57600080fd5b61014361048a565b6040518082815260200191505060405180910390f35b341561016457600080fd5b610199600480803573ffffffffffffffffffffffffffffffffffffffff169060200190919080359060200190919050506104bd565b005b34156101a657600080fd5b6101d2600480803573ffffffffffffffffffffffffffffffffffffffff1690602001909190505061066d565b005b34156101df57600080fd5b61020b600480803573ffffffffffffffffffffffffffffffffffffffff16906020019091905050610891565b604051808381526020018281526020019250505060405180910390f35b341561023357600080fd5b61023b6108eb565b604051808273ffffffffffffffffffffffffffffffffffffffff1673ffffffffffffffffffffffffffffffffffffffff16815260200191505060405180910390f35b610285610910565b6040518082815260200191505060405180910390f35b34156102a657600080fd5b6102ae61092f565b005b34156102bb57600080fd5b6102e7600480803573ffffffffffffffffffffffffffffffffffffffff16906020019091905050610b27565b604051808473ffffffffffffffffffffffffffffffffffffffff1673ffffffffffffffffffffffffffffffffffffffff168152602001838152602001828152602001935050505060405180910390f35b341561034257600080fd5b61036e600480803573ffffffffffffffffffffffffffffffffffffffff16906020019091905050610b71565b005b341561037b57600080fd5b6103b0600480803573ffffffffffffffffffffffffffffffffffffffff16906020019091908035906020019091905050610db7565b005b34156103bd57600080fd5b6103e9600480803573ffffffffffffffffffffffffffffffffffffffff16906020019091905050610f62565b005b6000806103f661048a565b11905090565b6000600160008373ffffffffffffffffffffffffffffffffffffffff1673ffffffffffffffffffffffffffffffffffffffff168152602001908152602001600020905060008160000160009054906101000a900473ffffffffffffffffffffffffffffffffffffffff1673ffffffffffffffffffffffffffffffffffffffff161415151561048657fe5b5050565b60006104b86003543073ffffffffffffffffffffffffffffffffffffffff16316110b790919063ffffffff16565b905090565b60008060009054906101000a900473ffffffffffffffffffffffffffffffffffffffff1673ffffffffffffffffffffffffffffffffffffffff163373ffffffffffffffffffffffffffffffffffffffff1614151561051a57600080fd5b826000600160008373ffffffffffffffffffffffffffffffffffffffff1673ffffffffffffffffffffffffffffffffffffffff168152602001908152602001600020905060008160000160009054906101000a900473ffffffffffffffffffffffffffffffffffffffff1673ffffffffffffffffffffffffffffffffffffffff16141515156105a557fe5b600160008673ffffffffffffffffffffffffffffffffffffffff1673ffffffffffffffffffffffffffffffffffffffff1681526020019081526020016000209250610615610604670de0b6b3a7640000866110d290919063ffffffff16565b60035461110d90919063ffffffff16565b600381905550610634836001015460035461112b90919063ffffffff16565b600381905550610655670de0b6b3a7640000856110d290919063ffffffff16565b83600101819055504283600201819055505050505050565b6000336000600160008373ffffffffffffffffffffffffffffffffffffffff1673ffffffffffffffffffffffffffffffffffffffff168152602001908152602001600020905060008160000160009054906101000a900473ffffffffffffffffffffffffffffffffffffffff1673ffffffffffffffffffffffffffffffffffffffff16141515156106fa57fe5b600160003373ffffffffffffffffffffffffffffffffffffffff1673ffffffffffffffffffffffffffffffffffffffff16815260200190815260200160002092506060604051908101604052808573ffffffffffffffffffffffffffffffffffffffff168152602001846001015481526020018460020154815250600160008673ffffffffffffffffffffffffffffffffffffffff1673ffffffffffffffffffffffffffffffffffffffff16815260200190815260200160002060008201518160000160006101000a81548173ffffffffffffffffffffffffffffffffffffffff021916908373ffffffffffffffffffffffffffffffffffffffff1602179055506020820151816001015560408201518160020155905050600160003373ffffffffffffffffffffffffffffffffffffffff1673ffffffffffffffffffffffffffffffffffffffff168152602001908152602001600020600080820160006101000a81549073ffffffffffffffffffffffffffffffffffffffff021916905560018201600090556002820160009055505050505050565b6000806000600160008573ffffffffffffffffffffffffffffffffffffffff1673ffffffffffffffffffffffffffffffffffffffff1681526020019081526020016000209050806001015492508060020154915050915091565b6000809054906101000a900473ffffffffffffffffffffffffffffffffffffffff1681565b60003073ffffffffffffffffffffffffffffffffffffffff1631905090565b600080336000600160008373ffffffffffffffffffffffffffffffffffffffff1673ffffffffffffffffffffffffffffffffffffffff168152602001908152602001600020905060008160000160009054906101000a900473ffffffffffffffffffffffffffffffffffffffff1673ffffffffffffffffffffffffffffffffffffffff16141515156109bd57fe5b336000600160008373ffffffffffffffffffffffffffffffffffffffff1673ffffffffffffffffffffffffffffffffffffffff168152602001908152602001600020905060008160000160009054906101000a900473ffffffffffffffffffffffffffffffffffffffff1673ffffffffffffffffffffffffffffffffffffffff1614151515610a4857fe5b600160003373ffffffffffffffffffffffffffffffffffffffff1673ffffffffffffffffffffffffffffffffffffffff1681526020019081526020016000209550610aa1600a876002015461110d90919063ffffffff16565b94504285101515610aae57fe5b8486600201819055508560000160009054906101000a900473ffffffffffffffffffffffffffffffffffffffff1673ffffffffffffffffffffffffffffffffffffffff166108fc87600101549081150290604051600060405180830381858888f193505050501515610b1f57600080fd5b505050505050565b60016020528060005260406000206000915090508060000160009054906101000a900473ffffffffffffffffffffffffffffffffffffffff16908060010154908060020154905083565b60008060009054906101000a900473ffffffffffffffffffffffffffffffffffffffff1673ffffffffffffffffffffffffffffffffffffffff163373ffffffffffffffffffffffffffffffffffffffff16141515610bce57600080fd5b816000600160008373ffffffffffffffffffffffffffffffffffffffff1673ffffffffffffffffffffffffffffffffffffffff168152602001908152602001600020905060008160000160009054906101000a900473ffffffffffffffffffffffffffffffffffffffff1673ffffffffffffffffffffffffffffffffffffffff1614151515610c5957fe5b600160008573ffffffffffffffffffffffffffffffffffffffff1673ffffffffffffffffffffffffffffffffffffffff1681526020019081526020016000209250610d1983606060405190810160405290816000820160009054906101000a900473ffffffffffffffffffffffffffffffffffffffff1673ffffffffffffffffffffffffffffffffffffffff1673ffffffffffffffffffffffffffffffffffffffff16815260200160018201548152602001600282015481525050611144565b610d32836001015460035461112b90919063ffffffff16565b600381905550600160008573ffffffffffffffffffffffffffffffffffffffff1673ffffffffffffffffffffffffffffffffffffffff168152602001908152602001600020600080820160006101000a81549073ffffffffffffffffffffffffffffffffffffffff021916905560018201600090556002820160009055505050505050565b60008060009054906101000a900473ffffffffffffffffffffffffffffffffffffffff1673ffffffffffffffffffffffffffffffffffffffff163373ffffffffffffffffffffffffffffffffffffffff16141515610e1457600080fd5b600160008473ffffffffffffffffffffffffffffffffffffffff1673ffffffffffffffffffffffffffffffffffffffff16815260200190815260200160002090506060604051908101604052808473ffffffffffffffffffffffffffffffffffffffff168152602001610e98670de0b6b3a7640000856110d290919063ffffffff16565b815260200142815250600160008573ffffffffffffffffffffffffffffffffffffffff1673ffffffffffffffffffffffffffffffffffffffff16815260200190815260200160002060008201518160000160006101000a81548173ffffffffffffffffffffffffffffffffffffffff021916908373ffffffffffffffffffffffffffffffffffffffff1602179055506020820151816001015560408201518160020155905050610f57816001015460035461110d90919063ffffffff16565b600381905550505050565b6000809054906101000a900473ffffffffffffffffffffffffffffffffffffffff1673ffffffffffffffffffffffffffffffffffffffff163373ffffffffffffffffffffffffffffffffffffffff16141515610fbd57600080fd5b600073ffffffffffffffffffffffffffffffffffffffff168173ffffffffffffffffffffffffffffffffffffffff1614151515610ff957600080fd5b8073ffffffffffffffffffffffffffffffffffffffff166000809054906101000a900473ffffffffffffffffffffffffffffffffffffffff1673ffffffffffffffffffffffffffffffffffffffff167f8be0079c531659141344cd1fd0a4f28419497f9722a3daafe3b4186f6b6457e060405160405180910390a3806000806101000a81548173ffffffffffffffffffffffffffffffffffffffff021916908373ffffffffffffffffffffffffffffffffffffffff16021790555050565b60008082848115156110c557fe5b0490508091505092915050565b60008060008414156110e75760009150611106565b82840290508284828115156110f857fe5b0414151561110257fe5b8091505b5092915050565b600080828401905083811015151561112157fe5b8091505092915050565b600082821115151561113957fe5b818303905092915050565b6000611186600a61117861116585604001514261112b90919063ffffffff16565b85602001516110d290919063ffffffff16565b6110b790919063ffffffff16565b9050816000015173ffffffffffffffffffffffffffffffffffffffff166108fc829081150290604051600060405180830381858888f1935050505015156111cc57600080fd5b50505600a165627a7a72305820e60c32b9691b936977b45913fd7da6ce089d8ab916caf4154a3df72e2ff730e50029",
  "source": "/*作业请提交在这个目录下*/\n\npragma solidity ^0.4.18;\n\nimport './SafeMath.sol';\nimport './Ownable.sol';\n\ncontract Payroll is Ownable  {\n    \n    struct Employee{\n        address id ;\n        uint salary;\n        uint lastPayday;\n    }\n    \n    mapping(address => Employee) public employees;\n    address owner;\n    uint constant payDuration = 10 seconds;\n    uint  totalSalary;\n    using SafeMath for uint256;\n    \n    modifier employeeExist(address employeeId){\n        var employee = employees[employeeId];\n        assert(employee.id != 0x0);\n        _;\n        \n    }\n    \n    function isEmployeeExist(address employeeId){\n        var employee = employees[employeeId];\n        assert(employee.id != 0x0);\n    }\n\n    function _partialPaid(Employee employee) private{\n        uint payment = employee.salary.mul((now.sub(employee.lastPayday))).div(payDuration);\n        employee.id.transfer(payment);\n    }\n    \n    function checkEmployee(address employeeId) returns(uint salary,uint lastPayday){\n        var employee = employees[employeeId];\n        salary = employee.salary;\n        lastPayday = employee.lastPayday;\n    }\n    \n    function addEmployee(address employeeId, uint salary) onlyOwner  {\n        \n        var employee = employees[employeeId];\n        employees[employeeId] = Employee(employeeId,salary.mul(1 ether),now);\n        totalSalary = totalSalary.add(employee.salary);\n    }\n    \n    function removeEmployee(address employeeId) onlyOwner employeeExist(employeeId) {\n        var employee = employees[employeeId];\n        _partialPaid(employee);\n        totalSalary = totalSalary.sub(employee.salary) ;\n        delete  employees[employeeId];\n\n    }\n    \n    function updateEmployee(address employeeId ,uint salary) onlyOwner employeeExist(employeeId) {\n        var employee = employees[employeeId];\n        totalSalary = totalSalary.add(salary.mul(1 ether));\n        totalSalary = totalSalary.sub(employee.salary);\n        employee.salary = salary.mul(1 ether);\n        employee.lastPayday = now;\n\n    }\n    \n    function calculateRunway( ) returns (uint){\n        return this.balance.div(totalSalary);\n        \n    }\n\n   // add fund into the account\n    function addFund() payable returns(uint) {\n        return  this.balance;\n    }\n    \n    function hasEnoughFund() returns (bool){\n        return  calculateRunway()> 0;\n        \n    }\n  \n    function changePaymentAddress(address employeeId) employeeExist(msg.sender){\n        var employee = employees[msg.sender];\n        employees[employeeId] = Employee(employeeId,employee.salary,employee.lastPayday);\n        delete employees[msg.sender];\n    }   \n    \n    // the staff claim his salary\n    function getPaid() employeeExist(msg.sender) employeeExist(msg.sender) {\n        var employee = employees[msg.sender];\n        uint nextPayday = employee.lastPayday.add(payDuration);\n        assert(nextPayday < now) ;\n        employee.lastPayday = nextPayday;\n        employee.id.transfer(employee.salary);\n       \n   }\n   \n\n  \n}\n",
  "sourcePath": "/Users/alan/payroll_backup/contracts/payroll.sol",
  "compiler": {
    "name": "solc",
    "version": "0.4.18+commit.9cf6e910.Emscripten.clang"
  },
  "schemaVersion": "1.0.1",
  "updatedAt": "2018-01-24T01:13:31.153Z"
}