{
  "contractName": "Payroll",
  "abi": [
    {
      "constant": false,
      "inputs": [],
      "name": "hasEnoughFund",
      "outputs": [
        {
          "name": "",
          "type": "bool"
        }
      ],
      "payable": false,
      "stateMutability": "nonpayable",
      "type": "function"
    },
    {
      "constant": true,
      "inputs": [],
      "name": "totalSalary",
      "outputs": [
        {
          "name": "",
          "type": "uint256"
        }
      ],
      "payable": false,
      "stateMutability": "view",
      "type": "function"
    },
    {
      "constant": false,
      "inputs": [],
      "name": "calculateRunway",
      "outputs": [
        {
          "name": "",
          "type": "uint256"
        }
      ],
      "payable": false,
      "stateMutability": "nonpayable",
      "type": "function"
    },
    {
      "constant": false,
      "inputs": [
        {
          "name": "employeeId",
          "type": "address"
        },
        {
          "name": "numOfEthers",
          "type": "uint256"
        }
      ],
      "name": "updateEmployee",
      "outputs": [],
      "payable": false,
      "stateMutability": "nonpayable",
      "type": "function"
    },
    {
      "constant": false,
      "inputs": [
        {
          "name": "newEmployeeId",
          "type": "address"
        }
      ],
      "name": "changePaymentAddress",
      "outputs": [],
      "payable": false,
      "stateMutability": "nonpayable",
      "type": "function"
    },
    {
      "constant": false,
      "inputs": [
        {
          "name": "employeeId",
          "type": "address"
        }
      ],
      "name": "checkEmployee",
      "outputs": [
        {
          "name": "salary",
          "type": "uint256"
        },
        {
          "name": "lastPayday",
          "type": "uint256"
        }
      ],
      "payable": false,
      "stateMutability": "nonpayable",
      "type": "function"
    },
    {
      "constant": true,
      "inputs": [],
      "name": "owner",
      "outputs": [
        {
          "name": "",
          "type": "address"
        }
      ],
      "payable": false,
      "stateMutability": "view",
      "type": "function"
    },
    {
      "constant": false,
      "inputs": [],
      "name": "addFund",
      "outputs": [
        {
          "name": "",
          "type": "uint256"
        }
      ],
      "payable": true,
      "stateMutability": "payable",
      "type": "function"
    },
    {
      "constant": false,
      "inputs": [],
      "name": "getPaid",
      "outputs": [],
      "payable": false,
      "stateMutability": "nonpayable",
      "type": "function"
    },
    {
      "constant": true,
      "inputs": [
        {
          "name": "",
          "type": "address"
        }
      ],
      "name": "employees",
      "outputs": [
        {
          "name": "id",
          "type": "address"
        },
        {
          "name": "salary",
          "type": "uint256"
        },
        {
          "name": "lastPayday",
          "type": "uint256"
        }
      ],
      "payable": false,
      "stateMutability": "view",
      "type": "function"
    },
    {
      "constant": false,
      "inputs": [
        {
          "name": "employeeId",
          "type": "address"
        }
      ],
      "name": "removeEmployee",
      "outputs": [],
      "payable": false,
      "stateMutability": "nonpayable",
      "type": "function"
    },
    {
      "constant": false,
      "inputs": [
        {
          "name": "employeeId",
          "type": "address"
        },
        {
          "name": "numOfEthers",
          "type": "uint256"
        }
      ],
      "name": "addEmployee",
      "outputs": [],
      "payable": false,
      "stateMutability": "nonpayable",
      "type": "function"
    },
    {
      "constant": false,
      "inputs": [
        {
          "name": "newOwner",
          "type": "address"
        }
      ],
      "name": "transferOwnership",
      "outputs": [],
      "payable": false,
      "stateMutability": "nonpayable",
      "type": "function"
    },
    {
      "constant": false,
      "inputs": [],
      "name": "getPayDuration",
      "outputs": [
        {
          "name": "",
          "type": "uint256"
        }
      ],
      "payable": false,
      "stateMutability": "nonpayable",
      "type": "function"
    },
    {
      "anonymous": false,
      "inputs": [
        {
          "indexed": true,
          "name": "previousOwner",
          "type": "address"
        },
        {
          "indexed": true,
          "name": "newOwner",
          "type": "address"
        }
      ],
      "name": "OwnershipTransferred",
      "type": "event"
    }
  ],
  "bytecode": "0x6060604052336000806101000a81548173ffffffffffffffffffffffffffffffffffffffff021916908373ffffffffffffffffffffffffffffffffffffffff1602179055506110a9806100536000396000f3006060604052600436106100d0576000357c0100000000000000000000000000000000000000000000000000000000900463ffffffff16806323fed09e146100d55780632e46eb1d146101025780634ec195121461012b5780635e91d8ec146101545780637124d613146101965780637cf562b7146101cf5780638da5cb5b14610223578063a2f09dfa14610278578063cf41d6f814610296578063d0678947146102ab578063d108177a14610332578063e7fd9a131461036b578063f2fde38b146103ad578063f8c1a4ae146103e6575b600080fd5b34156100e057600080fd5b6100e861040f565b604051808215151515815260200191505060405180910390f35b341561010d57600080fd5b610115610420565b6040518082815260200191505060405180910390f35b341561013657600080fd5b61013e610426565b6040518082815260200191505060405180910390f35b341561015f57600080fd5b610194600480803573ffffffffffffffffffffffffffffffffffffffff16906020019091908035906020019091905050610450565b005b34156101a157600080fd5b6101cd600480803573ffffffffffffffffffffffffffffffffffffffff1690602001909190505061064e565b005b34156101da57600080fd5b610206600480803573ffffffffffffffffffffffffffffffffffffffff1690602001909190505061075f565b604051808381526020018281526020019250505060405180910390f35b341561022e57600080fd5b6102366107b9565b604051808273ffffffffffffffffffffffffffffffffffffffff1673ffffffffffffffffffffffffffffffffffffffff16815260200191505060405180910390f35b6102806107de565b6040518082815260200191505060405180910390f35b34156102a157600080fd5b6102a9610858565b005b34156102b657600080fd5b6102e2600480803573ffffffffffffffffffffffffffffffffffffffff169060200190919050506109ba565b604051808473ffffffffffffffffffffffffffffffffffffffff1673ffffffffffffffffffffffffffffffffffffffff168152602001838152602001828152602001935050505060405180910390f35b341561033d57600080fd5b610369600480803573ffffffffffffffffffffffffffffffffffffffff16906020019091905050610a04565b005b341561037657600080fd5b6103ab600480803573ffffffffffffffffffffffffffffffffffffffff16906020019091908035906020019091905050610c41565b005b34156103b857600080fd5b6103e4600480803573ffffffffffffffffffffffffffffffffffffffff16906020019091905050610e21565b005b34156103f157600080fd5b6103f9610f76565b6040518082815260200191505060405180910390f35b60008061041a610426565b11905090565b60025481565b600061044b3073ffffffffffffffffffffffffffffffffffffffff1631600254610f7f565b905090565b60008060009054906101000a900473ffffffffffffffffffffffffffffffffffffffff1673ffffffffffffffffffffffffffffffffffffffff163373ffffffffffffffffffffffffffffffffffffffff161415156104ad57600080fd5b826000600160008373ffffffffffffffffffffffffffffffffffffffff1673ffffffffffffffffffffffffffffffffffffffff168152602001908152602001600020905060008160000160009054906101000a900473ffffffffffffffffffffffffffffffffffffffff1673ffffffffffffffffffffffffffffffffffffffff161415151561053857fe5b600160008673ffffffffffffffffffffffffffffffffffffffff1673ffffffffffffffffffffffffffffffffffffffff16815260200190815260200160002092506105896002548460010154610f9a565b60028190555061060e83606060405190810160405290816000820160009054906101000a900473ffffffffffffffffffffffffffffffffffffffff1673ffffffffffffffffffffffffffffffffffffffff1673ffffffffffffffffffffffffffffffffffffffff16815260200160018201548152602001600282015481525050610fb3565b61062084670de0b6b3a7640000611024565b8360010181905550610638600254846001015461105f565b6002819055504283600201819055505050505050565b336000600160008373ffffffffffffffffffffffffffffffffffffffff1673ffffffffffffffffffffffffffffffffffffffff168152602001908152602001600020905060008160000160009054906101000a900473ffffffffffffffffffffffffffffffffffffffff1673ffffffffffffffffffffffffffffffffffffffff16141515156106d957fe5b82600160003373ffffffffffffffffffffffffffffffffffffffff1673ffffffffffffffffffffffffffffffffffffffff16815260200190815260200160002060000160006101000a81548173ffffffffffffffffffffffffffffffffffffffff021916908373ffffffffffffffffffffffffffffffffffffffff160217905550505050565b6000806000600160008573ffffffffffffffffffffffffffffffffffffffff1673ffffffffffffffffffffffffffffffffffffffff1681526020019081526020016000209050806001015492508060020154915050915091565b6000809054906101000a900473ffffffffffffffffffffffffffffffffffffffff1681565b60008060009054906101000a900473ffffffffffffffffffffffffffffffffffffffff1673ffffffffffffffffffffffffffffffffffffffff163373ffffffffffffffffffffffffffffffffffffffff1614151561083b57600080fd5b3073ffffffffffffffffffffffffffffffffffffffff1631905090565b600080336000600160008373ffffffffffffffffffffffffffffffffffffffff1673ffffffffffffffffffffffffffffffffffffffff168152602001908152602001600020905060008160000160009054906101000a900473ffffffffffffffffffffffffffffffffffffffff1673ffffffffffffffffffffffffffffffffffffffff16141515156108e657fe5b600160003373ffffffffffffffffffffffffffffffffffffffff1673ffffffffffffffffffffffffffffffffffffffff16815260200190815260200160002093506109368460020154600a61105f565b9250428310151561094357fe5b8284600201819055508360000160009054906101000a900473ffffffffffffffffffffffffffffffffffffffff1673ffffffffffffffffffffffffffffffffffffffff166108fc85600101549081150290604051600060405180830381858888f1935050505015156109b457600080fd5b50505050565b60016020528060005260406000206000915090508060000160009054906101000a900473ffffffffffffffffffffffffffffffffffffffff16908060010154908060020154905083565b60008060009054906101000a900473ffffffffffffffffffffffffffffffffffffffff1673ffffffffffffffffffffffffffffffffffffffff163373ffffffffffffffffffffffffffffffffffffffff16141515610a6157600080fd5b816000600160008373ffffffffffffffffffffffffffffffffffffffff1673ffffffffffffffffffffffffffffffffffffffff168152602001908152602001600020905060008160000160009054906101000a900473ffffffffffffffffffffffffffffffffffffffff1673ffffffffffffffffffffffffffffffffffffffff1614151515610aec57fe5b600160008573ffffffffffffffffffffffffffffffffffffffff1673ffffffffffffffffffffffffffffffffffffffff1681526020019081526020016000209250610bac83606060405190810160405290816000820160009054906101000a900473ffffffffffffffffffffffffffffffffffffffff1673ffffffffffffffffffffffffffffffffffffffff1673ffffffffffffffffffffffffffffffffffffffff16815260200160018201548152602001600282015481525050610fb3565b610bbc6002548460010154610f9a565b600281905550600160008573ffffffffffffffffffffffffffffffffffffffff1673ffffffffffffffffffffffffffffffffffffffff168152602001908152602001600020600080820160006101000a81549073ffffffffffffffffffffffffffffffffffffffff021916905560018201600090556002820160009055505050505050565b6000806000809054906101000a900473ffffffffffffffffffffffffffffffffffffffff1673ffffffffffffffffffffffffffffffffffffffff163373ffffffffffffffffffffffffffffffffffffffff16141515610c9f57600080fd5b600160008573ffffffffffffffffffffffffffffffffffffffff1673ffffffffffffffffffffffffffffffffffffffff168152602001908152602001600020915060008260000160009054906101000a900473ffffffffffffffffffffffffffffffffffffffff1673ffffffffffffffffffffffffffffffffffffffff16141515610d2657fe5b610d3883670de0b6b3a7640000611024565b9050610d466002548261105f565b6002819055506060604051908101604052808573ffffffffffffffffffffffffffffffffffffffff16815260200182815260200142815250600160008673ffffffffffffffffffffffffffffffffffffffff1673ffffffffffffffffffffffffffffffffffffffff16815260200190815260200160002060008201518160000160006101000a81548173ffffffffffffffffffffffffffffffffffffffff021916908373ffffffffffffffffffffffffffffffffffffffff160217905550602082015181600101556040820151816002015590505050505050565b6000809054906101000a900473ffffffffffffffffffffffffffffffffffffffff1673ffffffffffffffffffffffffffffffffffffffff163373ffffffffffffffffffffffffffffffffffffffff16141515610e7c57600080fd5b600073ffffffffffffffffffffffffffffffffffffffff168173ffffffffffffffffffffffffffffffffffffffff1614151515610eb857600080fd5b8073ffffffffffffffffffffffffffffffffffffffff166000809054906101000a900473ffffffffffffffffffffffffffffffffffffffff1673ffffffffffffffffffffffffffffffffffffffff167f8be0079c531659141344cd1fd0a4f28419497f9722a3daafe3b4186f6b6457e060405160405180910390a3806000806101000a81548173ffffffffffffffffffffffffffffffffffffffff021916908373ffffffffffffffffffffffffffffffffffffffff16021790555050565b6000600a905090565b6000808284811515610f8d57fe5b0490508091505092915050565b6000828211151515610fa857fe5b818303905092915050565b6000610fda610fd38360200151610fce428660400151610f9a565b611024565b600a610f7f565b9050816000015173ffffffffffffffffffffffffffffffffffffffff166108fc829081150290604051600060405180830381858888f19350505050151561102057600080fd5b5050565b60008060008414156110395760009150611058565b828402905082848281151561104a57fe5b0414151561105457fe5b8091505b5092915050565b600080828401905083811015151561107357fe5b80915050929150505600a165627a7a72305820c54b3d60593a34f1dac1bbb21715df86b19a014af337de8bacf969d751dafc420029",
  "source": "pragma solidity ^0.4.17;\n\nimport \"zeppelin-solidity/contracts/math/SafeMath.sol\";\nimport \"zeppelin-solidity/contracts/ownership/Ownable.sol\";\n\ncontract Payroll is Ownable {\n    struct Employee {\n        address id;\n        uint salary;\n        uint lastPayday;\n\n    }\n    uint constant payDuration = 10 seconds;\n\n    mapping(address => Employee) public employees;\n    uint public totalSalary;\n\n    modifier employeeExist(address employeeId) {\n        var employee = employees[employeeId];\n        assert(employee.id != 0x0);\n        _;\n    }\n\n    function _partialPaid(Employee employee) private {\n        uint payment = SafeMath.div(SafeMath.mul(employee.salary, SafeMath.sub(now, employee.lastPayday)), payDuration);\n        employee.id.transfer(payment);\n    }\n\n    function changePaymentAddress(address newEmployeeId) employeeExist(msg.sender){\n        employees[msg.sender].id = newEmployeeId;\n    }\n\n    function checkEmployee(address employeeId) returns (uint salary, uint lastPayday) {\n        var employee = employees[employeeId];\n        salary = employee.salary;\n        lastPayday = employee.lastPayday;\n    }\n\n    function addEmployee(address employeeId, uint numOfEthers) onlyOwner {\n        var employee = employees[employeeId];\n        assert(employee.id == 0x0);\n        uint salary = SafeMath.mul(numOfEthers, 1 ether);\n        totalSalary = SafeMath.add(totalSalary, salary);\n\n        employees[employeeId] = Employee(employeeId, salary, now);\n    }\n\n    function removeEmployee(address employeeId) public onlyOwner employeeExist(employeeId) {\n        var employee = employees[employeeId];\n        _partialPaid(employee);\n\n        totalSalary = SafeMath.sub(totalSalary, employee.salary);\n        delete employees[employeeId];\n\n    }\n\n    function updateEmployee(address employeeId, uint numOfEthers) public onlyOwner employeeExist(employeeId) {\n        var employee = employees[employeeId];\n        totalSalary = SafeMath.sub(totalSalary, employee.salary);\n        _partialPaid(employee);\n        employee.salary = SafeMath.mul(numOfEthers, 1 ether);\n        totalSalary = SafeMath.add(totalSalary, employee.salary);\n        employee.lastPayday = now;\n    }\n\n    function addFund() public onlyOwner payable returns (uint)  {\n        return this.balance;\n    }\n\n    function getPayDuration() returns (uint) {\n        return payDuration;\n    }\n\n    function calculateRunway() returns (uint) {\n        return SafeMath.div(this.balance, totalSalary);\n    }\n\n    function hasEnoughFund() returns (bool) {\n        return calculateRunway() > 0; // In EVM it's jump operation; if use this.calculateRunway() will use msg, gas cost is high\n    }\n\n    function getPaid() employeeExist(msg.sender){\n        var employee = employees[msg.sender];\n        uint nextPayday = SafeMath.add(employee.lastPayday, payDuration);\n        assert(nextPayday < now);\n\n        employee.lastPayday = nextPayday;\n        employee.id.transfer(employee.salary);\n    }\n}\n",
  "sourcePath": "/Users/hanhua/Dropbox/Cryptocurrency/blockchain class/blockchain-class-repo/Lesson4/assignment/contracts/Payroll.sol",
  "compiler": {
    "name": "solc",
    "version": "0.4.18+commit.9cf6e910.Emscripten.clang"
  },
  "schemaVersion": "1.0.1",
  "updatedAt": "2018-01-24T08:49:00.806Z"
}