{
  "contractName": "Payroll",
  "abi": [
    {
      "constant": true,
      "inputs": [],
      "name": "hasEnoughFund",
      "outputs": [
        {
          "name": "",
          "type": "bool"
        }
      ],
      "payable": false,
      "stateMutability": "view",
      "type": "function"
    },
    {
      "constant": true,
      "inputs": [],
      "name": "calculateRunway",
      "outputs": [
        {
          "name": "",
          "type": "uint256"
        }
      ],
      "payable": false,
      "stateMutability": "view",
      "type": "function"
    },
    {
      "constant": false,
      "inputs": [
        {
          "name": "employeeId",
          "type": "address"
        },
        {
          "name": "salary",
          "type": "uint256"
        }
      ],
      "name": "updateEmployee",
      "outputs": [],
      "payable": false,
      "stateMutability": "nonpayable",
      "type": "function"
    },
    {
      "constant": true,
      "inputs": [],
      "name": "owner",
      "outputs": [
        {
          "name": "",
          "type": "address"
        }
      ],
      "payable": false,
      "stateMutability": "view",
      "type": "function"
    },
    {
      "constant": false,
      "inputs": [],
      "name": "addFund",
      "outputs": [
        {
          "name": "",
          "type": "uint256"
        }
      ],
      "payable": true,
      "stateMutability": "payable",
      "type": "function"
    },
    {
      "constant": false,
      "inputs": [
        {
          "name": "employeeId",
          "type": "address"
        },
        {
          "name": "newemployeeId",
          "type": "address"
        }
      ],
      "name": "changePaymentAddress",
      "outputs": [],
      "payable": false,
      "stateMutability": "nonpayable",
      "type": "function"
    },
    {
      "constant": false,
      "inputs": [],
      "name": "getPaid",
      "outputs": [],
      "payable": false,
      "stateMutability": "nonpayable",
      "type": "function"
    },
    {
      "constant": true,
      "inputs": [
        {
          "name": "",
          "type": "address"
        }
      ],
      "name": "employees",
      "outputs": [
        {
          "name": "id",
          "type": "address"
        },
        {
          "name": "salary",
          "type": "uint256"
        },
        {
          "name": "lastPayday",
          "type": "uint256"
        }
      ],
      "payable": false,
      "stateMutability": "view",
      "type": "function"
    },
    {
      "constant": false,
      "inputs": [
        {
          "name": "employeeId",
          "type": "address"
        }
      ],
      "name": "removeEmployee",
      "outputs": [],
      "payable": false,
      "stateMutability": "nonpayable",
      "type": "function"
    },
    {
      "constant": false,
      "inputs": [
        {
          "name": "employeeId",
          "type": "address"
        },
        {
          "name": "salary",
          "type": "uint256"
        }
      ],
      "name": "addEmployee",
      "outputs": [],
      "payable": false,
      "stateMutability": "nonpayable",
      "type": "function"
    },
    {
      "constant": false,
      "inputs": [
        {
          "name": "newOwner",
          "type": "address"
        }
      ],
      "name": "transferOwnership",
      "outputs": [],
      "payable": false,
      "stateMutability": "nonpayable",
      "type": "function"
    },
    {
      "anonymous": false,
      "inputs": [
        {
          "indexed": true,
          "name": "previousOwner",
          "type": "address"
        },
        {
          "indexed": true,
          "name": "newOwner",
          "type": "address"
        }
      ],
      "name": "OwnershipTransferred",
      "type": "event"
    }
  ],
  "bytecode": "0x6060604052336000806101000a81548173ffffffffffffffffffffffffffffffffffffffff021916908373ffffffffffffffffffffffffffffffffffffffff1602179055506112d8806100536000396000f3006060604052600436106100af576000357c0100000000000000000000000000000000000000000000000000000000900463ffffffff16806323fed09e146100b45780634ec19512146100e15780635e91d8ec1461010a5780638da5cb5b1461014c578063a2f09dfa146101a1578063bc456c42146101bf578063cf41d6f814610217578063d06789471461022c578063d108177a146102b3578063e7fd9a13146102ec578063f2fde38b1461032e575b600080fd5b34156100bf57600080fd5b6100c7610367565b604051808215151515815260200191505060405180910390f35b34156100ec57600080fd5b6100f4610378565b6040518082815260200191505060405180910390f35b341561011557600080fd5b61014a600480803573ffffffffffffffffffffffffffffffffffffffff169060200190919080359060200190919050506103ab565b005b341561015757600080fd5b61015f6106bc565b604051808273ffffffffffffffffffffffffffffffffffffffff1673ffffffffffffffffffffffffffffffffffffffff16815260200191505060405180910390f35b6101a96106e1565b6040518082815260200191505060405180910390f35b34156101ca57600080fd5b610215600480803573ffffffffffffffffffffffffffffffffffffffff1690602001909190803573ffffffffffffffffffffffffffffffffffffffff16906020019091905050610700565b005b341561022257600080fd5b61022a610a13565b005b341561023757600080fd5b610263600480803573ffffffffffffffffffffffffffffffffffffffff16906020019091905050610bbc565b604051808473ffffffffffffffffffffffffffffffffffffffff1673ffffffffffffffffffffffffffffffffffffffff168152602001838152602001828152602001935050505060405180910390f35b34156102be57600080fd5b6102ea600480803573ffffffffffffffffffffffffffffffffffffffff16906020019091905050610c06565b005b34156102f757600080fd5b61032c600480803573ffffffffffffffffffffffffffffffffffffffff16906020019091908035906020019091905050610e4c565b005b341561033957600080fd5b610365600480803573ffffffffffffffffffffffffffffffffffffffff1690602001909190505061103e565b005b600080610372610378565b11905090565b60006103a66001543073ffffffffffffffffffffffffffffffffffffffff163161119390919063ffffffff16565b905090565b60008060009054906101000a900473ffffffffffffffffffffffffffffffffffffffff1673ffffffffffffffffffffffffffffffffffffffff163373ffffffffffffffffffffffffffffffffffffffff1614151561040857600080fd5b826000600360008373ffffffffffffffffffffffffffffffffffffffff1673ffffffffffffffffffffffffffffffffffffffff168152602001908152602001600020905060008160000160009054906101000a900473ffffffffffffffffffffffffffffffffffffffff1673ffffffffffffffffffffffffffffffffffffffff161415151561049357fe5b600360008673ffffffffffffffffffffffffffffffffffffffff1673ffffffffffffffffffffffffffffffffffffffff168152602001908152602001600020925061055383606060405190810160405290816000820160009054906101000a900473ffffffffffffffffffffffffffffffffffffffff1673ffffffffffffffffffffffffffffffffffffffff1673ffffffffffffffffffffffffffffffffffffffff168152602001600182015481526020016002820154815250506111ae565b6105aa600360008773ffffffffffffffffffffffffffffffffffffffff1673ffffffffffffffffffffffffffffffffffffffff1681526020019081526020016000206001015460015461123a90919063ffffffff16565b6001819055506105cb670de0b6b3a76400008561125390919063ffffffff16565b600360008773ffffffffffffffffffffffffffffffffffffffff1673ffffffffffffffffffffffffffffffffffffffff16815260200190815260200160002060010181905550610668600360008773ffffffffffffffffffffffffffffffffffffffff1673ffffffffffffffffffffffffffffffffffffffff1681526020019081526020016000206001015460015461128e90919063ffffffff16565b60018190555042600360008773ffffffffffffffffffffffffffffffffffffffff1673ffffffffffffffffffffffffffffffffffffffff168152602001908152602001600020600201819055505050505050565b6000809054906101000a900473ffffffffffffffffffffffffffffffffffffffff1681565b60003073ffffffffffffffffffffffffffffffffffffffff1631905090565b816000600360008373ffffffffffffffffffffffffffffffffffffffff1673ffffffffffffffffffffffffffffffffffffffff168152602001908152602001600020905060008160000160009054906101000a900473ffffffffffffffffffffffffffffffffffffffff1673ffffffffffffffffffffffffffffffffffffffff161415151561078b57fe5b826000600360008373ffffffffffffffffffffffffffffffffffffffff1673ffffffffffffffffffffffffffffffffffffffff168152602001908152602001600020905060008160000160009054906101000a900473ffffffffffffffffffffffffffffffffffffffff1673ffffffffffffffffffffffffffffffffffffffff1614151561081557fe5b600360008773ffffffffffffffffffffffffffffffffffffffff1673ffffffffffffffffffffffffffffffffffffffff168152602001908152602001600020600360008773ffffffffffffffffffffffffffffffffffffffff1673ffffffffffffffffffffffffffffffffffffffff1681526020019081526020016000206000820160009054906101000a900473ffffffffffffffffffffffffffffffffffffffff168160000160006101000a81548173ffffffffffffffffffffffffffffffffffffffff021916908373ffffffffffffffffffffffffffffffffffffffff160217905550600182015481600101556002820154816002015590505084600360008773ffffffffffffffffffffffffffffffffffffffff1673ffffffffffffffffffffffffffffffffffffffff16815260200190815260200160002060000160006101000a81548173ffffffffffffffffffffffffffffffffffffffff021916908373ffffffffffffffffffffffffffffffffffffffff160217905550600360008773ffffffffffffffffffffffffffffffffffffffff1673ffffffffffffffffffffffffffffffffffffffff168152602001908152602001600020600080820160006101000a81549073ffffffffffffffffffffffffffffffffffffffff0219169055600182016000905560028201600090555050505050505050565b600080336000600360008373ffffffffffffffffffffffffffffffffffffffff1673ffffffffffffffffffffffffffffffffffffffff168152602001908152602001600020905060008160000160009054906101000a900473ffffffffffffffffffffffffffffffffffffffff1673ffffffffffffffffffffffffffffffffffffffff1614151515610aa157fe5b600360003373ffffffffffffffffffffffffffffffffffffffff1673ffffffffffffffffffffffffffffffffffffffff1681526020019081526020016000209350610afa600a856002015461128e90919063ffffffff16565b92504283101515610b0757fe5b82600360003373ffffffffffffffffffffffffffffffffffffffff1673ffffffffffffffffffffffffffffffffffffffff168152602001908152602001600020600201819055508360000160009054906101000a900473ffffffffffffffffffffffffffffffffffffffff1673ffffffffffffffffffffffffffffffffffffffff166108fc85600101549081150290604051600060405180830381858888f193505050501515610bb657600080fd5b50505050565b60036020528060005260406000206000915090508060000160009054906101000a900473ffffffffffffffffffffffffffffffffffffffff16908060010154908060020154905083565b60008060009054906101000a900473ffffffffffffffffffffffffffffffffffffffff1673ffffffffffffffffffffffffffffffffffffffff163373ffffffffffffffffffffffffffffffffffffffff16141515610c6357600080fd5b816000600360008373ffffffffffffffffffffffffffffffffffffffff1673ffffffffffffffffffffffffffffffffffffffff168152602001908152602001600020905060008160000160009054906101000a900473ffffffffffffffffffffffffffffffffffffffff1673ffffffffffffffffffffffffffffffffffffffff1614151515610cee57fe5b600360008573ffffffffffffffffffffffffffffffffffffffff1673ffffffffffffffffffffffffffffffffffffffff1681526020019081526020016000209250610dae83606060405190810160405290816000820160009054906101000a900473ffffffffffffffffffffffffffffffffffffffff1673ffffffffffffffffffffffffffffffffffffffff1673ffffffffffffffffffffffffffffffffffffffff168152602001600182015481526020016002820154815250506111ae565b610dc7836001015460015461123a90919063ffffffff16565b600181905550600360008573ffffffffffffffffffffffffffffffffffffffff1673ffffffffffffffffffffffffffffffffffffffff168152602001908152602001600020600080820160006101000a81549073ffffffffffffffffffffffffffffffffffffffff021916905560018201600090556002820160009055505050505050565b6000809054906101000a900473ffffffffffffffffffffffffffffffffffffffff1673ffffffffffffffffffffffffffffffffffffffff163373ffffffffffffffffffffffffffffffffffffffff16141515610ea757600080fd5b816000600360008373ffffffffffffffffffffffffffffffffffffffff1673ffffffffffffffffffffffffffffffffffffffff168152602001908152602001600020905060008160000160009054906101000a900473ffffffffffffffffffffffffffffffffffffffff1673ffffffffffffffffffffffffffffffffffffffff16141515610f3157fe5b610f4c670de0b6b3a76400008461125390919063ffffffff16565b92506060604051908101604052808573ffffffffffffffffffffffffffffffffffffffff16815260200184815260200142815250600360008673ffffffffffffffffffffffffffffffffffffffff1673ffffffffffffffffffffffffffffffffffffffff16815260200190815260200160002060008201518160000160006101000a81548173ffffffffffffffffffffffffffffffffffffffff021916908373ffffffffffffffffffffffffffffffffffffffff16021790555060208201518160010155604082015181600201559050506110328360015461128e90919063ffffffff16565b60018190555050505050565b6000809054906101000a900473ffffffffffffffffffffffffffffffffffffffff1673ffffffffffffffffffffffffffffffffffffffff163373ffffffffffffffffffffffffffffffffffffffff1614151561109957600080fd5b600073ffffffffffffffffffffffffffffffffffffffff168173ffffffffffffffffffffffffffffffffffffffff16141515156110d557600080fd5b8073ffffffffffffffffffffffffffffffffffffffff166000809054906101000a900473ffffffffffffffffffffffffffffffffffffffff1673ffffffffffffffffffffffffffffffffffffffff167f8be0079c531659141344cd1fd0a4f28419497f9722a3daafe3b4186f6b6457e060405160405180910390a3806000806101000a81548173ffffffffffffffffffffffffffffffffffffffff021916908373ffffffffffffffffffffffffffffffffffffffff16021790555050565b60008082848115156111a157fe5b0490508091505092915050565b60006111f0600a6111e26111cf85604001514261123a90919063ffffffff16565b856020015161125390919063ffffffff16565b61119390919063ffffffff16565b9050816000015173ffffffffffffffffffffffffffffffffffffffff166108fc829081150290604051600060405180830381858888f19350505050151561123657600080fd5b5050565b600082821115151561124857fe5b818303905092915050565b60008060008414156112685760009150611287565b828402905082848281151561127957fe5b0414151561128357fe5b8091505b5092915050565b60008082840190508381101515156112a257fe5b80915050929150505600a165627a7a72305820cd31a331524774dfcb4779249c2dbf02993f82b64f6537aae5612c7f03c557d60029",
  "source": "pragma solidity ^0.4.14;\r\n\r\nimport './SafeMath.sol';\r\nimport './Ownable.sol';\r\n\r\ncontract Payroll is Ownable{\r\n    using SafeMath for uint;\r\n    struct Employee {\r\n        address id;\r\n        uint salary;\r\n        uint lastPayday;\r\n    }\r\n    \r\n    uint constant payDuration = 10 seconds;\r\n    uint totalSalary;\r\n    \r\n    address owner;\r\n    mapping(address => Employee) public employees;\r\n\r\n    /*\r\n    function Payroll() public {\r\n        owner = msg.sender;\r\n    }\r\n    \r\n    modifier onlyOwner {\r\n        require(msg.sender == owner);\r\n        _;\r\n    }\r\n    */\r\n    \r\n    modifier employeeExist(address employeeId) {\r\n        var employee = employees[employeeId];\r\n        assert(employee.id != 0x0);\r\n        _;\r\n    }\r\n    \r\n    //第三课作业 使用modifier\r\n    modifier employeeNotExist(address employeeId) {\r\n        var employee = employees[employeeId];\r\n        assert(employee.id == 0x0);\r\n        _;\r\n    }\r\n\r\n    function _partialPaid(Employee employee) private {\r\n        uint payment = employee.salary\r\n            .mul(now.sub(employee.lastPayday))\r\n            .div(payDuration);\r\n        employee.id.transfer(payment);        \r\n    }\r\n    \r\n    /*\r\n    function _findEmployee(address employeeId) private constant returns (Employee, uint) {\r\n        for (uint i = 0; i < employees.length; i++) {\r\n            if (employees[i].id == employeeId) {\r\n                return (employees[i], i);\r\n            }\r\n        }\r\n    }\r\n    */\r\n    \r\n    function addEmployee(address employeeId, uint salary) public onlyOwner employeeNotExist(employeeId){ \r\n        //require(msg.sender == owner);\r\n        //var employee = employees[employeeId];\r\n        //assert(employee.id == 0x0);\r\n        \r\n        salary = salary.mul(1 ether);\r\n        employees[employeeId] = Employee(employeeId, salary, now);\r\n        totalSalary = totalSalary.add(salary);\r\n    }\r\n    \r\n    function removeEmployee(address employeeId) public onlyOwner employeeExist(employeeId) {\r\n        //require(msg.sender == owner);\r\n        var employee = employees[employeeId];\r\n        //assert(employee.id != 0x0);\r\n        \r\n        _partialPaid(employee);\r\n        totalSalary = totalSalary.sub(employee.salary);//优化calculateRunway修改\r\n        delete employees[employeeId];\r\n    }\r\n\r\n    function updateEmployee(address employeeId, uint salary) public onlyOwner employeeExist(employeeId) {\r\n        //require(msg.sender == owner);\r\n        var employee = employees[employeeId];\r\n        //assert(employee.id != 0x0);        \r\n        \r\n        _partialPaid(employee);\r\n\r\n        totalSalary = totalSalary.sub(employees[employeeId].salary);\r\n        employees[employeeId].salary = salary.mul(1 ether);\r\n        totalSalary = totalSalary.add(employees[employeeId].salary);\r\n        employees[employeeId].lastPayday = now;\r\n    }\r\n    \r\n    //第三课作业 增加changePaymentAddress\r\n    function changePaymentAddress(address employeeId, address newemployeeId) public employeeExist(employeeId) employeeNotExist(newemployeeId) {\r\n        employees[newemployeeId] = employees[employeeId];\r\n        employees[newemployeeId].id = newemployeeId;\r\n        delete employees[employeeId];\r\n    }\r\n    \r\n    /*\r\n    function checkEmployee(address employeeId) public constant returns (uint salary, uint lastPayday){\r\n        var employee= employees[employeeId];\r\n        salary = employee.salary;\r\n        lastPayday = employee.lastPayday;\r\n    }\r\n    */\r\n    \r\n    function addFund() public payable returns (uint) {\r\n        return this.balance;\r\n    }\r\n    \r\n    function calculateRunway() public constant returns (uint) {\r\n        //require(totalSalary != 0);\r\n        return this.balance.div(totalSalary);\r\n    }\r\n\r\n    function hasEnoughFund() public constant returns (bool) {\r\n        return calculateRunway() > 0;\r\n    }\r\n\r\n    function getPaid() public employeeExist(msg.sender) {\r\n        var employee = employees[msg.sender];\r\n        //assert(employee.id != 0x0);  \r\n\r\n        uint nextPayday = employee.lastPayday.add(payDuration);\r\n        assert(nextPayday < now);\r\n\r\n        employees[msg.sender].lastPayday = nextPayday;//employee.lastPayday = nextPayday;\r\n        employee.id.transfer(employee.salary);\r\n    }\r\n}",
  "sourcePath": "D:\\code\\truffle\\employee\\contracts\\Payroll.sol",
  "compiler": {
    "name": "solc",
    "version": "0.4.18+commit.9cf6e910.Emscripten.clang"
  },
  "schemaVersion": "1.0.1",
  "updatedAt": "2018-01-21T07:20:49.578Z"
}